{
    "contractName": "PropertyContract",
    "abi": [
        {
            "inputs": [],
            "stateMutability": "nonpayable",
            "type": "constructor"
        },
        {
            "anonymous": false,
            "inputs": [
                {
                    "indexed": true,
                    "internalType": "address",
                    "name": "owner",
                    "type": "address"
                },
                {
                    "indexed": true,
                    "internalType": "address",
                    "name": "approved",
                    "type": "address"
                },
                {
                    "indexed": true,
                    "internalType": "uint256",
                    "name": "tokenId",
                    "type": "uint256"
                }
            ],
            "name": "Approval",
            "type": "event"
        },
        {
            "anonymous": false,
            "inputs": [
                {
                    "indexed": true,
                    "internalType": "address",
                    "name": "owner",
                    "type": "address"
                },
                {
                    "indexed": true,
                    "internalType": "address",
                    "name": "operator",
                    "type": "address"
                },
                {
                    "indexed": false,
                    "internalType": "bool",
                    "name": "approved",
                    "type": "bool"
                }
            ],
            "name": "ApprovalForAll",
            "type": "event"
        },
        {
            "anonymous": false,
            "inputs": [
                {
                    "indexed": false,
                    "internalType": "address",
                    "name": "owner",
                    "type": "address"
                }
            ],
            "name": "ContractOwnerShipTransferred",
            "type": "event"
        },
        {
            "anonymous": false,
            "inputs": [
                {
                    "indexed": true,
                    "internalType": "address",
                    "name": "from",
                    "type": "address"
                },
                {
                    "indexed": true,
                    "internalType": "address",
                    "name": "to",
                    "type": "address"
                },
                {
                    "indexed": true,
                    "internalType": "uint256",
                    "name": "tokenId",
                    "type": "uint256"
                }
            ],
            "name": "Transfer",
            "type": "event"
        },
        {
            "inputs": [
                {
                    "internalType": "uint256",
                    "name": "",
                    "type": "uint256"
                }
            ],
            "name": "_propertylist",
            "outputs": [
                {
                    "internalType": "string",
                    "name": "location",
                    "type": "string"
                },
                {
                    "internalType": "string",
                    "name": "unit_block",
                    "type": "string"
                },
                {
                    "internalType": "string",
                    "name": "unit_floor",
                    "type": "string"
                },
                {
                    "internalType": "string",
                    "name": "unit_flat",
                    "type": "string"
                },
                {
                    "internalType": "string",
                    "name": "prop_id",
                    "type": "string"
                }
            ],
            "stateMutability": "view",
            "type": "function"
        },
        {
            "inputs": [
                {
                    "internalType": "address",
                    "name": "to",
                    "type": "address"
                },
                {
                    "internalType": "uint256",
                    "name": "tokenId",
                    "type": "uint256"
                }
            ],
            "name": "approve",
            "outputs": [],
            "stateMutability": "nonpayable",
            "type": "function"
        },
        {
            "inputs": [
                {
                    "internalType": "address",
                    "name": "owner",
                    "type": "address"
                }
            ],
            "name": "balanceOf",
            "outputs": [
                {
                    "internalType": "uint256",
                    "name": "",
                    "type": "uint256"
                }
            ],
            "stateMutability": "view",
            "type": "function"
        },
        {
            "inputs": [
                {
                    "internalType": "uint256",
                    "name": "tokenId",
                    "type": "uint256"
                },
                {
                    "internalType": "uint256",
                    "name": "bidPrice",
                    "type": "uint256"
                }
            ],
            "name": "bidProperty",
            "outputs": [],
            "stateMutability": "payable",
            "type": "function"
        },
        {
            "inputs": [
                {
                    "internalType": "uint256",
                    "name": "tokenId",
                    "type": "uint256"
                }
            ],
            "name": "getApproved",
            "outputs": [
                {
                    "internalType": "address",
                    "name": "",
                    "type": "address"
                }
            ],
            "stateMutability": "view",
            "type": "function"
        },
        {
            "inputs": [
                {
                    "internalType": "uint256",
                    "name": "tokenId",
                    "type": "uint256"
                }
            ],
            "name": "get_property_location",
            "outputs": [
                {
                    "internalType": "string",
                    "name": "",
                    "type": "string"
                }
            ],
            "stateMutability": "view",
            "type": "function"
        },
        {
            "inputs": [
                {
                    "internalType": "address",
                    "name": "owner",
                    "type": "address"
                },
                {
                    "internalType": "address",
                    "name": "operator",
                    "type": "address"
                }
            ],
            "name": "isApprovedForAll",
            "outputs": [
                {
                    "internalType": "bool",
                    "name": "",
                    "type": "bool"
                }
            ],
            "stateMutability": "view",
            "type": "function"
        },
        {
            "inputs": [],
            "name": "name",
            "outputs": [
                {
                    "internalType": "string",
                    "name": "",
                    "type": "string"
                }
            ],
            "stateMutability": "view",
            "type": "function"
        },
        {
            "inputs": [
                {
                    "internalType": "uint256",
                    "name": "tokenId",
                    "type": "uint256"
                }
            ],
            "name": "ownerOf",
            "outputs": [
                {
                    "internalType": "address",
                    "name": "",
                    "type": "address"
                }
            ],
            "stateMutability": "view",
            "type": "function"
        },
        {
            "inputs": [
                {
                    "internalType": "string",
                    "name": "_location",
                    "type": "string"
                },
                {
                    "internalType": "string",
                    "name": "_unit_block",
                    "type": "string"
                },
                {
                    "internalType": "string",
                    "name": "_unit_floor",
                    "type": "string"
                },
                {
                    "internalType": "string",
                    "name": "_unit_flat",
                    "type": "string"
                },
                {
                    "internalType": "string",
                    "name": "_prop_id",
                    "type": "string"
                },
                {
                    "internalType": "uint256",
                    "name": "_target_price",
                    "type": "uint256"
                }
            ],
            "name": "registerProperty",
            "outputs": [
                {
                    "internalType": "uint256",
                    "name": "",
                    "type": "uint256"
                }
            ],
            "stateMutability": "nonpayable",
            "type": "function"
        },
        {
            "inputs": [
                {
                    "internalType": "address",
                    "name": "from",
                    "type": "address"
                },
                {
                    "internalType": "address",
                    "name": "to",
                    "type": "address"
                },
                {
                    "internalType": "uint256",
                    "name": "tokenId",
                    "type": "uint256"
                }
            ],
            "name": "safeTransferFrom",
            "outputs": [],
            "stateMutability": "nonpayable",
            "type": "function"
        },
        {
            "inputs": [
                {
                    "internalType": "address",
                    "name": "from",
                    "type": "address"
                },
                {
                    "internalType": "address",
                    "name": "to",
                    "type": "address"
                },
                {
                    "internalType": "uint256",
                    "name": "tokenId",
                    "type": "uint256"
                },
                {
                    "internalType": "bytes",
                    "name": "data",
                    "type": "bytes"
                }
            ],
            "name": "safeTransferFrom",
            "outputs": [],
            "stateMutability": "nonpayable",
            "type": "function"
        },
        {
            "inputs": [
                {
                    "internalType": "address",
                    "name": "operator",
                    "type": "address"
                },
                {
                    "internalType": "bool",
                    "name": "approved",
                    "type": "bool"
                }
            ],
            "name": "setApprovalForAll",
            "outputs": [],
            "stateMutability": "nonpayable",
            "type": "function"
        },
        {
            "inputs": [
                {
                    "internalType": "uint256",
                    "name": "tokenId",
                    "type": "uint256"
                }
            ],
            "name": "set_for_sale",
            "outputs": [],
            "stateMutability": "nonpayable",
            "type": "function"
        },
        {
            "inputs": [],
            "name": "set_image",
            "outputs": [],
            "stateMutability": "nonpayable",
            "type": "function"
        },
        {
            "inputs": [
                {
                    "internalType": "bytes4",
                    "name": "interfaceId",
                    "type": "bytes4"
                }
            ],
            "name": "supportsInterface",
            "outputs": [
                {
                    "internalType": "bool",
                    "name": "",
                    "type": "bool"
                }
            ],
            "stateMutability": "view",
            "type": "function"
        },
        {
            "inputs": [],
            "name": "symbol",
            "outputs": [
                {
                    "internalType": "string",
                    "name": "",
                    "type": "string"
                }
            ],
            "stateMutability": "view",
            "type": "function"
        },
        {
            "inputs": [
                {
                    "internalType": "uint256",
                    "name": "tokenId",
                    "type": "uint256"
                }
            ],
            "name": "tokenURI",
            "outputs": [
                {
                    "internalType": "string",
                    "name": "",
                    "type": "string"
                }
            ],
            "stateMutability": "view",
            "type": "function"
        },
        {
            "inputs": [
                {
                    "internalType": "address",
                    "name": "from",
                    "type": "address"
                },
                {
                    "internalType": "address",
                    "name": "to",
                    "type": "address"
                },
                {
                    "internalType": "uint256",
                    "name": "tokenId",
                    "type": "uint256"
                }
            ],
            "name": "transferFrom",
            "outputs": [],
            "stateMutability": "nonpayable",
            "type": "function"
        }
    ],
    "bytecode": "60806040523480156200001157600080fd5b506040518060400160405280600e81526020016d50726f7065727479546f6b656e7360901b81525060405180604001604052806002815260200161141560f21b81525081600090816200006591906200016a565b5060016200007482826200016a565b5050600b80546001600160a01b031916339081179091556040519081527fedc72216363839831f76919254ddbbadce2234833dfa8fb47dcdbe73035b8a60915060200160405180910390a162000236565b634e487b7160e01b600052604160045260246000fd5b600181811c90821680620000f057607f821691505b6020821081036200011157634e487b7160e01b600052602260045260246000fd5b50919050565b601f8211156200016557600081815260208120601f850160051c81016020861015620001405750805b601f850160051c820191505b8181101562000161578281556001016200014c565b5050505b505050565b81516001600160401b03811115620001865762000186620000c5565b6200019e81620001978454620000db565b8462000117565b602080601f831160018114620001d65760008415620001bd5750858301515b600019600386901b1c1916600185901b17855562000161565b600085815260208120601f198616915b828110156200020757888601518255948401946001909101908401620001e6565b5085821015620002265787850151600019600388901b60f8161c191681555b5050505050600190811b01905550565b611e4d80620002466000396000f3fe6080604052600436106101145760003560e01c806378a8353e116100a0578063bdd3fea011610064578063bdd3fea0146102f9578063c87b56dd1461032f578063cb96fb481461034f578063e985e9c514610380578063fd508728146103a057600080fd5b806378a8353e1461027857806395d89b411461029857806398a7608b146102ad578063a22cb465146102b9578063b88d4fde146102d957600080fd5b806323b872dd116100e757806323b872dd146101ca57806342842e0e146101ea578063596b83571461020a5780636352211e1461023857806370a082311461025857600080fd5b806301ffc9a71461011957806306fdde031461014e578063081812fc14610170578063095ea7b3146101a8575b600080fd5b34801561012557600080fd5b506101396101343660046116fc565b6103b3565b60405190151581526020015b60405180910390f35b34801561015a57600080fd5b50610163610405565b6040516101459190611769565b34801561017c57600080fd5b5061019061018b36600461177c565b610497565b6040516001600160a01b039091168152602001610145565b3480156101b457600080fd5b506101c86101c33660046117b1565b6104be565b005b3480156101d657600080fd5b506101c86101e53660046117db565b6105d8565b3480156101f657600080fd5b506101c86102053660046117db565b610609565b34801561021657600080fd5b5061022a6102253660046118c3565b610624565b604051908152602001610145565b34801561024457600080fd5b5061019061025336600461177c565b610794565b34801561026457600080fd5b5061022a61027336600461199d565b6107f4565b34801561028457600080fd5b5061016361029336600461177c565b61087a565b3480156102a457600080fd5b5061016361091e565b3480156101c857600080fd5b3480156102c557600080fd5b506101c86102d43660046119b8565b61092d565b3480156102e557600080fd5b506101c86102f43660046119f4565b61093c565b34801561030557600080fd5b506101c861031436600461177c565b6000908152600a60205260409020805460ff19166001179055565b34801561033b57600080fd5b5061016361034a36600461177c565b610974565b34801561035b57600080fd5b5061036f61036a36600461177c565b6109e8565b604051610145959493929190611a70565b34801561038c57600080fd5b5061013961039b366004611ad1565b610cbe565b6101c86103ae366004611b04565b610cec565b60006001600160e01b031982166380ac58cd60e01b14806103e457506001600160e01b03198216635b5e139f60e01b145b806103ff57506301ffc9a760e01b6001600160e01b03198316145b92915050565b60606000805461041490611b26565b80601f016020809104026020016040519081016040528092919081815260200182805461044090611b26565b801561048d5780601f106104625761010080835404028352916020019161048d565b820191906000526020600020905b81548152906001019060200180831161047057829003601f168201915b5050505050905090565b60006104a282610eb8565b506000908152600460205260409020546001600160a01b031690565b60006104c982610794565b9050806001600160a01b0316836001600160a01b03160361053b5760405162461bcd60e51b815260206004820152602160248201527f4552433732313a20617070726f76616c20746f2063757272656e74206f776e656044820152603960f91b60648201526084015b60405180910390fd5b336001600160a01b038216148061055757506105578133610cbe565b6105c95760405162461bcd60e51b815260206004820152603d60248201527f4552433732313a20617070726f76652063616c6c6572206973206e6f7420746f60448201527f6b656e206f776e6572206f7220617070726f76656420666f7220616c6c0000006064820152608401610532565b6105d38383610f1a565b505050565b6105e23382610f88565b6105fe5760405162461bcd60e51b815260040161053290611b60565b6105d3838383610fe7565b6105d38383836040518060200160405280600081525061093c565b600b546000906001600160a01b031633146106815760405162461bcd60e51b815260206004820181905260248201527f4f6e6c79206f776e65722063616e2072656769737465722070726f70657274796044820152606401610532565b60006040518060a0016040528089815260200188815260200187815260200186815260200185815250905060006106b760065490565b60008181526008602052604090208351919250839181906106d89082611bfb565b50602082015160018201906106ed9082611bfb565b50604082015160028201906107029082611bfb565b50606082015160038201906107179082611bfb565b506080820151600482019061072c9082611bfb565b505050600081815260076020908152604080832080546001600160a01b0319163390811790915560098352818420889055600a909252909120805460ff1916600117905561077a9082611158565b610788600680546001019055565b98975050505050505050565b6000818152600260205260408120546001600160a01b0316806103ff5760405162461bcd60e51b8152602060048201526018602482015277115490cdcc8c4e881a5b9d985b1a59081d1bdad95b88125160421b6044820152606401610532565b60006001600160a01b03821661085e5760405162461bcd60e51b815260206004820152602960248201527f4552433732313a2061646472657373207a65726f206973206e6f7420612076616044820152683634b21037bbb732b960b91b6064820152608401610532565b506001600160a01b031660009081526003602052604090205490565b60008181526008602052604081208054606092919061089890611b26565b80601f01602080910402602001604051908101604052809291908181526020018280546108c490611b26565b80156109115780601f106108e657610100808354040283529160200191610911565b820191906000526020600020905b8154815290600101906020018083116108f457829003601f168201915b5093979650505050505050565b60606001805461041490611b26565b6109383383836112f1565b5050565b6109463383610f88565b6109625760405162461bcd60e51b815260040161053290611b60565b61096e848484846113bf565b50505050565b606061097f82610eb8565b600061099660408051602081019091526000815290565b905060008151116109b657604051806020016040528060008152506109e1565b806109c0846113f2565b6040516020016109d1929190611cbb565b6040516020818303038152906040525b9392505050565b600860205260009081526040902080548190610a0390611b26565b80601f0160208091040260200160405190810160405280929190818152602001828054610a2f90611b26565b8015610a7c5780601f10610a5157610100808354040283529160200191610a7c565b820191906000526020600020905b815481529060010190602001808311610a5f57829003601f168201915b505050505090806001018054610a9190611b26565b80601f0160208091040260200160405190810160405280929190818152602001828054610abd90611b26565b8015610b0a5780601f10610adf57610100808354040283529160200191610b0a565b820191906000526020600020905b815481529060010190602001808311610aed57829003601f168201915b505050505090806002018054610b1f90611b26565b80601f0160208091040260200160405190810160405280929190818152602001828054610b4b90611b26565b8015610b985780601f10610b6d57610100808354040283529160200191610b98565b820191906000526020600020905b815481529060010190602001808311610b7b57829003601f168201915b505050505090806003018054610bad90611b26565b80601f0160208091040260200160405190810160405280929190818152602001828054610bd990611b26565b8015610c265780601f10610bfb57610100808354040283529160200191610c26565b820191906000526020600020905b815481529060010190602001808311610c0957829003601f168201915b505050505090806004018054610c3b90611b26565b80601f0160208091040260200160405190810160405280929190818152602001828054610c6790611b26565b8015610cb45780601f10610c8957610100808354040283529160200191610cb4565b820191906000526020600020905b815481529060010190602001808311610c9757829003601f168201915b5050505050905085565b6001600160a01b03918216600090815260056020908152604080832093909416825291909152205460ff1690565b6000828152600760205260409020546001600160a01b03163303610d525760405162461bcd60e51b815260206004820152601d60248201527f4f776e65722063616e6e6f7420627579207468652070726f70657274790000006044820152606401610532565b600082815260096020526040902054811015610dcd5760405162461bcd60e51b815260206004820152603460248201527f596f7520626964207072696365206973206c6f776572207468616e20746865206044820152737461726765742073656c6c696e6720707269636560601b6064820152608401610532565b6000828152600a602052604090205460ff161515600114610e3c5760405162461bcd60e51b815260206004820152602360248201527f50726f7065727479206e6f7420666f722073616c6520617420746865206d6f6d604482015262195b9d60ea1b6064820152608401610532565b6000610e4783610794565b9050610e54813385610fe7565b6000838152600a60209081526040808320805460ff19169055600790915280822080546001600160a01b03191633179055516001600160a01b038316913480156108fc02929091818181858888f1935050505015801561096e573d6000803e3d6000fd5b6000818152600260205260409020546001600160a01b0316610f175760405162461bcd60e51b8152602060048201526018602482015277115490cdcc8c4e881a5b9d985b1a59081d1bdad95b88125160421b6044820152606401610532565b50565b600081815260046020526040902080546001600160a01b0319166001600160a01b0384169081179091558190610f4f82610794565b6001600160a01b03167f8c5be1e5ebec7d5bd14f71427d1e84f3dd0314c0f7b2291e5b200ac8c7c3b92560405160405180910390a45050565b600080610f9483610794565b9050806001600160a01b0316846001600160a01b03161480610fbb5750610fbb8185610cbe565b80610fdf5750836001600160a01b0316610fd484610497565b6001600160a01b0316145b949350505050565b826001600160a01b0316610ffa82610794565b6001600160a01b0316146110205760405162461bcd60e51b815260040161053290611cea565b6001600160a01b0382166110825760405162461bcd60e51b8152602060048201526024808201527f4552433732313a207472616e7366657220746f20746865207a65726f206164646044820152637265737360e01b6064820152608401610532565b61108f8383836001611485565b826001600160a01b03166110a282610794565b6001600160a01b0316146110c85760405162461bcd60e51b815260040161053290611cea565b600081815260046020908152604080832080546001600160a01b03199081169091556001600160a01b0387811680865260038552838620805460001901905590871680865283862080546001019055868652600290945282852080549092168417909155905184937fddf252ad1be2c89b69c2b068fc378daa952ba7f163c4a11628f55a4df523b3ef91a4505050565b6001600160a01b0382166111ae5760405162461bcd60e51b815260206004820181905260248201527f4552433732313a206d696e7420746f20746865207a65726f20616464726573736044820152606401610532565b6000818152600260205260409020546001600160a01b0316156112135760405162461bcd60e51b815260206004820152601c60248201527f4552433732313a20746f6b656e20616c7265616479206d696e746564000000006044820152606401610532565b611221600083836001611485565b6000818152600260205260409020546001600160a01b0316156112865760405162461bcd60e51b815260206004820152601c60248201527f4552433732313a20746f6b656e20616c7265616479206d696e746564000000006044820152606401610532565b6001600160a01b038216600081815260036020908152604080832080546001019055848352600290915280822080546001600160a01b0319168417905551839291907fddf252ad1be2c89b69c2b068fc378daa952ba7f163c4a11628f55a4df523b3ef908290a45050565b816001600160a01b0316836001600160a01b0316036113525760405162461bcd60e51b815260206004820152601960248201527f4552433732313a20617070726f766520746f2063616c6c6572000000000000006044820152606401610532565b6001600160a01b03838116600081815260056020908152604080832094871680845294825291829020805460ff191686151590811790915591519182527f17307eab39ab6107e8899845ad3d59bd9653f200f220920489ca2b5937696c31910160405180910390a3505050565b6113ca848484610fe7565b6113d68484848461150d565b61096e5760405162461bcd60e51b815260040161053290611d2f565b606060006113ff8361160e565b600101905060008167ffffffffffffffff81111561141f5761141f611817565b6040519080825280601f01601f191660200182016040528015611449576020820181803683370190505b5090508181016020015b600019016f181899199a1a9b1b9c1cb0b131b232b360811b600a86061a8153600a850494508461145357509392505050565b600181111561096e576001600160a01b038416156114cb576001600160a01b038416600090815260036020526040812080548392906114c5908490611d97565b90915550505b6001600160a01b0383161561096e576001600160a01b03831660009081526003602052604081208054839290611502908490611daa565b909155505050505050565b60006001600160a01b0384163b1561160357604051630a85bd0160e11b81526001600160a01b0385169063150b7a0290611551903390899088908890600401611dbd565b6020604051808303816000875af192505050801561158c575060408051601f3d908101601f1916820190925261158991810190611dfa565b60015b6115e9573d8080156115ba576040519150601f19603f3d011682016040523d82523d6000602084013e6115bf565b606091505b5080516000036115e15760405162461bcd60e51b815260040161053290611d2f565b805181602001fd5b6001600160e01b031916630a85bd0160e11b149050610fdf565b506001949350505050565b60008072184f03e93ff9f4daa797ed6e38ed64bf6a1f0160401b831061164d5772184f03e93ff9f4daa797ed6e38ed64bf6a1f0160401b830492506040015b6d04ee2d6d415b85acef81000000008310611679576d04ee2d6d415b85acef8100000000830492506020015b662386f26fc10000831061169757662386f26fc10000830492506010015b6305f5e10083106116af576305f5e100830492506008015b61271083106116c357612710830492506004015b606483106116d5576064830492506002015b600a83106103ff5760010192915050565b6001600160e01b031981168114610f1757600080fd5b60006020828403121561170e57600080fd5b81356109e1816116e6565b60005b8381101561173457818101518382015260200161171c565b50506000910152565b60008151808452611755816020860160208601611719565b601f01601f19169290920160200192915050565b6020815260006109e1602083018461173d565b60006020828403121561178e57600080fd5b5035919050565b80356001600160a01b03811681146117ac57600080fd5b919050565b600080604083850312156117c457600080fd5b6117cd83611795565b946020939093013593505050565b6000806000606084860312156117f057600080fd5b6117f984611795565b925061180760208501611795565b9150604084013590509250925092565b634e487b7160e01b600052604160045260246000fd5b600067ffffffffffffffff8084111561184857611848611817565b604051601f8501601f19908116603f0116810190828211818310171561187057611870611817565b8160405280935085815286868601111561188957600080fd5b858560208301376000602087830101525050509392505050565b600082601f8301126118b457600080fd5b6109e18383356020850161182d565b60008060008060008060c087890312156118dc57600080fd5b863567ffffffffffffffff808211156118f457600080fd5b6119008a838b016118a3565b9750602089013591508082111561191657600080fd5b6119228a838b016118a3565b9650604089013591508082111561193857600080fd5b6119448a838b016118a3565b9550606089013591508082111561195a57600080fd5b6119668a838b016118a3565b9450608089013591508082111561197c57600080fd5b5061198989828a016118a3565b92505060a087013590509295509295509295565b6000602082840312156119af57600080fd5b6109e182611795565b600080604083850312156119cb57600080fd5b6119d483611795565b9150602083013580151581146119e957600080fd5b809150509250929050565b60008060008060808587031215611a0a57600080fd5b611a1385611795565b9350611a2160208601611795565b925060408501359150606085013567ffffffffffffffff811115611a4457600080fd5b8501601f81018713611a5557600080fd5b611a648782356020840161182d565b91505092959194509250565b60a081526000611a8360a083018861173d565b8281036020840152611a95818861173d565b90508281036040840152611aa9818761173d565b90508281036060840152611abd818661173d565b90508281036080840152610788818561173d565b60008060408385031215611ae457600080fd5b611aed83611795565b9150611afb60208401611795565b90509250929050565b60008060408385031215611b1757600080fd5b50508035926020909101359150565b600181811c90821680611b3a57607f821691505b602082108103611b5a57634e487b7160e01b600052602260045260246000fd5b50919050565b6020808252602d908201527f4552433732313a2063616c6c6572206973206e6f7420746f6b656e206f776e6560408201526c1c881bdc88185c1c1c9bdd9959609a1b606082015260800190565b601f8211156105d357600081815260208120601f850160051c81016020861015611bd45750805b601f850160051c820191505b81811015611bf357828155600101611be0565b505050505050565b815167ffffffffffffffff811115611c1557611c15611817565b611c2981611c238454611b26565b84611bad565b602080601f831160018114611c5e5760008415611c465750858301515b600019600386901b1c1916600185901b178555611bf3565b600085815260208120601f198616915b82811015611c8d57888601518255948401946001909101908401611c6e565b5085821015611cab5787850151600019600388901b60f8161c191681555b5050505050600190811b01905550565b60008351611ccd818460208801611719565b835190830190611ce1818360208801611719565b01949350505050565b60208082526025908201527f4552433732313a207472616e736665722066726f6d20696e636f72726563742060408201526437bbb732b960d91b606082015260800190565b60208082526032908201527f4552433732313a207472616e7366657220746f206e6f6e20455243373231526560408201527131b2b4bb32b91034b6b83632b6b2b73a32b960711b606082015260800190565b634e487b7160e01b600052601160045260246000fd5b818103818111156103ff576103ff611d81565b808201808211156103ff576103ff611d81565b6001600160a01b0385811682528416602082015260408101839052608060608201819052600090611df09083018461173d565b9695505050505050565b600060208284031215611e0c57600080fd5b81516109e1816116e656fea2646970667358221220ac4660ddba243950f819d09109bf7724d54a3ff9aeb12ba82ee6ab9bbdceb1e564736f6c63430008110033",
    "sourcePath": "/home/ubuntu/code/capstone/capstone_project/contracts/PropertyToken.sol",
    "compiler": {
        "name": "solc",
        "version": "0.8.17+commit.8df45f5f"
    },
    "functionHashes": {
        "_propertylist(uint256)": "cb96fb48",
        "approve(address,uint256)": "095ea7b3",
        "balanceOf(address)": "70a08231",
        "bidProperty(uint256,uint256)": "fd508728",
        "getApproved(uint256)": "081812fc",
        "get_property_location(uint256)": "78a8353e",
        "isApprovedForAll(address,address)": "e985e9c5",
        "name()": "06fdde03",
        "ownerOf(uint256)": "6352211e",
        "registerProperty(string,string,string,string,string,uint256)": "596b8357",
        "safeTransferFrom(address,address,uint256)": "42842e0e",
        "safeTransferFrom(address,address,uint256,bytes)": "b88d4fde",
        "setApprovalForAll(address,bool)": "a22cb465",
        "set_for_sale(uint256)": "bdd3fea0",
        "set_image()": "98a7608b",
        "supportsInterface(bytes4)": "01ffc9a7",
        "symbol()": "95d89b41",
        "tokenURI(uint256)": "c87b56dd",
        "transferFrom(address,address,uint256)": "23b872dd"
    },
    "gasEstimates": {
        "creation": {
            "codeDepositCost": "1551400",
            "executionCost": "infinite",
            "totalCost": "infinite"
        },
        "external": {
            "_propertylist(uint256)": "infinite",
            "approve(address,uint256)": "infinite",
            "balanceOf(address)": "2700",
            "bidProperty(uint256,uint256)": "infinite",
            "getApproved(uint256)": "4792",
            "get_property_location(uint256)": "infinite",
            "isApprovedForAll(address,address)": "infinite",
            "name()": "infinite",
            "ownerOf(uint256)": "2627",
            "registerProperty(string,string,string,string,string,uint256)": "infinite",
            "safeTransferFrom(address,address,uint256)": "infinite",
            "safeTransferFrom(address,address,uint256,bytes)": "infinite",
            "setApprovalForAll(address,bool)": "26772",
            "set_for_sale(uint256)": "24521",
            "set_image()": "190",
            "supportsInterface(bytes4)": "534",
            "symbol()": "infinite",
            "tokenURI(uint256)": "infinite",
            "transferFrom(address,address,uint256)": "infinite"
        }
    }
}