{
    "contractName": "PropertyContract",
    "abi": [
        {
            "inputs": [],
            "stateMutability": "nonpayable",
            "type": "constructor"
        },
        {
            "anonymous": false,
            "inputs": [
                {
                    "indexed": true,
                    "internalType": "address",
                    "name": "owner",
                    "type": "address"
                },
                {
                    "indexed": true,
                    "internalType": "address",
                    "name": "approved",
                    "type": "address"
                },
                {
                    "indexed": true,
                    "internalType": "uint256",
                    "name": "tokenId",
                    "type": "uint256"
                }
            ],
            "name": "Approval",
            "type": "event"
        },
        {
            "anonymous": false,
            "inputs": [
                {
                    "indexed": true,
                    "internalType": "address",
                    "name": "owner",
                    "type": "address"
                },
                {
                    "indexed": true,
                    "internalType": "address",
                    "name": "operator",
                    "type": "address"
                },
                {
                    "indexed": false,
                    "internalType": "bool",
                    "name": "approved",
                    "type": "bool"
                }
            ],
            "name": "ApprovalForAll",
            "type": "event"
        },
        {
            "anonymous": false,
            "inputs": [
                {
                    "indexed": false,
                    "internalType": "address",
                    "name": "owner",
                    "type": "address"
                }
            ],
            "name": "ContractOwnerShipTransferred",
            "type": "event"
        },
        {
            "anonymous": false,
            "inputs": [
                {
                    "indexed": true,
                    "internalType": "address",
                    "name": "from",
                    "type": "address"
                },
                {
                    "indexed": true,
                    "internalType": "address",
                    "name": "to",
                    "type": "address"
                },
                {
                    "indexed": true,
                    "internalType": "uint256",
                    "name": "tokenId",
                    "type": "uint256"
                }
            ],
            "name": "Transfer",
            "type": "event"
        },
        {
            "inputs": [
                {
                    "internalType": "string",
                    "name": "_location",
                    "type": "string"
                },
                {
                    "internalType": "string",
                    "name": "_unit_block",
                    "type": "string"
                },
                {
                    "internalType": "string",
                    "name": "_unit_floor",
                    "type": "string"
                },
                {
                    "internalType": "string",
                    "name": "_unit_flat",
                    "type": "string"
                },
                {
                    "internalType": "string",
                    "name": "_prop_id",
                    "type": "string"
                }
            ],
            "name": "_registerProperty",
            "outputs": [
                {
                    "internalType": "uint256",
                    "name": "",
                    "type": "uint256"
                }
            ],
            "stateMutability": "nonpayable",
            "type": "function"
        },
        {
            "inputs": [
                {
                    "internalType": "address",
                    "name": "to",
                    "type": "address"
                },
                {
                    "internalType": "uint256",
                    "name": "tokenId",
                    "type": "uint256"
                }
            ],
            "name": "approve",
            "outputs": [],
            "stateMutability": "nonpayable",
            "type": "function"
        },
        {
            "inputs": [
                {
                    "internalType": "address",
                    "name": "owner",
                    "type": "address"
                }
            ],
            "name": "balanceOf",
            "outputs": [
                {
                    "internalType": "uint256",
                    "name": "",
                    "type": "uint256"
                }
            ],
            "stateMutability": "view",
            "type": "function"
        },
        {
            "inputs": [
                {
                    "internalType": "uint256",
                    "name": "bidPrice",
                    "type": "uint256"
                }
            ],
            "name": "bidProperty",
            "outputs": [],
            "stateMutability": "nonpayable",
            "type": "function"
        },
        {
            "inputs": [
                {
                    "internalType": "uint256",
                    "name": "tokenId",
                    "type": "uint256"
                }
            ],
            "name": "getApproved",
            "outputs": [
                {
                    "internalType": "address",
                    "name": "",
                    "type": "address"
                }
            ],
            "stateMutability": "view",
            "type": "function"
        },
        {
            "inputs": [],
            "name": "getPropertyDetail",
            "outputs": [],
            "stateMutability": "nonpayable",
            "type": "function"
        },
        {
            "inputs": [
                {
                    "internalType": "address",
                    "name": "owner",
                    "type": "address"
                },
                {
                    "internalType": "address",
                    "name": "operator",
                    "type": "address"
                }
            ],
            "name": "isApprovedForAll",
            "outputs": [
                {
                    "internalType": "bool",
                    "name": "",
                    "type": "bool"
                }
            ],
            "stateMutability": "view",
            "type": "function"
        },
        {
            "inputs": [],
            "name": "name",
            "outputs": [
                {
                    "internalType": "string",
                    "name": "",
                    "type": "string"
                }
            ],
            "stateMutability": "view",
            "type": "function"
        },
        {
            "inputs": [
                {
                    "internalType": "uint256",
                    "name": "tokenId",
                    "type": "uint256"
                }
            ],
            "name": "ownerOf",
            "outputs": [
                {
                    "internalType": "address",
                    "name": "",
                    "type": "address"
                }
            ],
            "stateMutability": "view",
            "type": "function"
        },
        {
            "inputs": [
                {
                    "internalType": "address",
                    "name": "from",
                    "type": "address"
                },
                {
                    "internalType": "address",
                    "name": "to",
                    "type": "address"
                },
                {
                    "internalType": "uint256",
                    "name": "tokenId",
                    "type": "uint256"
                }
            ],
            "name": "safeTransferFrom",
            "outputs": [],
            "stateMutability": "nonpayable",
            "type": "function"
        },
        {
            "inputs": [
                {
                    "internalType": "address",
                    "name": "from",
                    "type": "address"
                },
                {
                    "internalType": "address",
                    "name": "to",
                    "type": "address"
                },
                {
                    "internalType": "uint256",
                    "name": "tokenId",
                    "type": "uint256"
                },
                {
                    "internalType": "bytes",
                    "name": "data",
                    "type": "bytes"
                }
            ],
            "name": "safeTransferFrom",
            "outputs": [],
            "stateMutability": "nonpayable",
            "type": "function"
        },
        {
            "inputs": [
                {
                    "internalType": "address",
                    "name": "operator",
                    "type": "address"
                },
                {
                    "internalType": "bool",
                    "name": "approved",
                    "type": "bool"
                }
            ],
            "name": "setApprovalForAll",
            "outputs": [],
            "stateMutability": "nonpayable",
            "type": "function"
        },
        {
            "inputs": [
                {
                    "internalType": "bytes4",
                    "name": "interfaceId",
                    "type": "bytes4"
                }
            ],
            "name": "supportsInterface",
            "outputs": [
                {
                    "internalType": "bool",
                    "name": "",
                    "type": "bool"
                }
            ],
            "stateMutability": "view",
            "type": "function"
        },
        {
            "inputs": [],
            "name": "symbol",
            "outputs": [
                {
                    "internalType": "string",
                    "name": "",
                    "type": "string"
                }
            ],
            "stateMutability": "view",
            "type": "function"
        },
        {
            "inputs": [
                {
                    "internalType": "uint256",
                    "name": "tokenId",
                    "type": "uint256"
                }
            ],
            "name": "tokenURI",
            "outputs": [
                {
                    "internalType": "string",
                    "name": "",
                    "type": "string"
                }
            ],
            "stateMutability": "view",
            "type": "function"
        },
        {
            "inputs": [
                {
                    "internalType": "address",
                    "name": "from",
                    "type": "address"
                },
                {
                    "internalType": "address",
                    "name": "to",
                    "type": "address"
                },
                {
                    "internalType": "uint256",
                    "name": "tokenId",
                    "type": "uint256"
                }
            ],
            "name": "transferFrom",
            "outputs": [],
            "stateMutability": "nonpayable",
            "type": "function"
        }
    ],
    "bytecode": "60806040523480156200001157600080fd5b506040518060400160405280600e81526020016d50726f7065727479546f6b656e7360901b81525060405180604001604052806002815260200161141560f21b81525081600090816200006591906200016a565b5060016200007482826200016a565b5050600980546001600160a01b031916339081179091556040519081527fedc72216363839831f76919254ddbbadce2234833dfa8fb47dcdbe73035b8a60915060200160405180910390a162000236565b634e487b7160e01b600052604160045260246000fd5b600181811c90821680620000f057607f821691505b6020821081036200011157634e487b7160e01b600052602260045260246000fd5b50919050565b601f8211156200016557600081815260208120601f850160051c81016020861015620001405750805b601f850160051c820191505b8181101562000161578281556001016200014c565b5050505b505050565b81516001600160401b03811115620001865762000186620000c5565b6200019e81620001978454620000db565b8462000117565b602080601f831160018114620001d65760008415620001bd5750858301515b600019600386901b1c1916600185901b17855562000161565b600085815260208120601f198616915b828110156200020757888601518255948401946001909101908401620001e6565b5085821015620002265787850151600019600388901b60f8161c191681555b5050505050600190811b01905550565b6115be80620002466000396000f3fe608060405234801561001057600080fd5b50600436106101005760003560e01c806370a0823111610097578063b88d4fde11610066578063b88d4fde1461021b578063c87b56dd1461022e578063ccd6e8e514610180578063e985e9c51461024157600080fd5b806370a08231146101dc5780637ce9e707146101ef57806395d89b4114610200578063a22cb4651461020857600080fd5b806323b872dd116100d357806323b872dd146101825780632f490b181461019557806342842e0e146101b65780636352211e146101c957600080fd5b806301ffc9a71461010557806306fdde031461012d578063081812fc14610142578063095ea7b31461016d575b600080fd5b610118610113366004610ecf565b610254565b60405190151581526020015b60405180910390f35b6101356102a6565b6040516101249190610f3c565b610155610150366004610f4f565b610338565b6040516001600160a01b039091168152602001610124565b61018061017b366004610f84565b61035f565b005b610180610190366004610fae565b610479565b6101a86101a3366004611096565b6104aa565b604051908152602001610124565b6101806101c4366004610fae565b6105b3565b6101556101d7366004610f4f565b6105ce565b6101a86101ea366004611168565b61062e565b6101806101fd366004610f4f565b50565b6101356106b4565b610180610216366004611183565b6106c3565b6101806102293660046111bf565b6106d2565b61013561023c366004610f4f565b61070a565b61011861024f36600461123b565b61077e565b60006001600160e01b031982166380ac58cd60e01b148061028557506001600160e01b03198216635b5e139f60e01b145b806102a057506301ffc9a760e01b6001600160e01b03198316145b92915050565b6060600080546102b59061126e565b80601f01602080910402602001604051908101604052809291908181526020018280546102e19061126e565b801561032e5780601f106103035761010080835404028352916020019161032e565b820191906000526020600020905b81548152906001019060200180831161031157829003601f168201915b5050505050905090565b6000610343826107ac565b506000908152600460205260409020546001600160a01b031690565b600061036a826105ce565b9050806001600160a01b0316836001600160a01b0316036103dc5760405162461bcd60e51b815260206004820152602160248201527f4552433732313a20617070726f76616c20746f2063757272656e74206f776e656044820152603960f91b60648201526084015b60405180910390fd5b336001600160a01b03821614806103f857506103f8813361077e565b61046a5760405162461bcd60e51b815260206004820152603e60248201527f4552433732313a20617070726f76652063616c6c6572206973206e6f7420746f60448201527f6b656e206f776e6572206e6f7220617070726f76656420666f7220616c6c000060648201526084016103d3565b610474838361080b565b505050565b6104833382610879565b61049f5760405162461bcd60e51b81526004016103d3906112a8565b6104748383836108d8565b6000806040518060a0016040528088815260200187815260200186815260200185815260200184815250905060006104e160065490565b6000818152600860209081526040822080546001810182559083529120845192935084926005909202019081906105189082611344565b506020820151600182019061052d9082611344565b50604082015160028201906105429082611344565b50606082015160038201906105579082611344565b506080820151600482019061056c9082611344565b505050600081815260076020526040902080546001600160a01b0319163390811790915561059a9082610a74565b6105a8600680546001019055565b979650505050505050565b610474838383604051806020016040528060008152506106d2565b6000818152600260205260408120546001600160a01b0316806102a05760405162461bcd60e51b8152602060048201526018602482015277115490cdcc8c4e881a5b9d985b1a59081d1bdad95b88125160421b60448201526064016103d3565b60006001600160a01b0382166106985760405162461bcd60e51b815260206004820152602960248201527f4552433732313a2061646472657373207a65726f206973206e6f7420612076616044820152683634b21037bbb732b960b91b60648201526084016103d3565b506001600160a01b031660009081526003602052604090205490565b6060600180546102b59061126e565b6106ce338383610bb6565b5050565b6106dc3383610879565b6106f85760405162461bcd60e51b81526004016103d3906112a8565b61070484848484610c84565b50505050565b6060610715826107ac565b600061072c60408051602081019091526000815290565b9050600081511161074c5760405180602001604052806000815250610777565b8061075684610cb7565b604051602001610767929190611404565b6040516020818303038152906040525b9392505050565b6001600160a01b03918216600090815260056020908152604080832093909416825291909152205460ff1690565b6000818152600260205260409020546001600160a01b03166101fd5760405162461bcd60e51b8152602060048201526018602482015277115490cdcc8c4e881a5b9d985b1a59081d1bdad95b88125160421b60448201526064016103d3565b600081815260046020526040902080546001600160a01b0319166001600160a01b0384169081179091558190610840826105ce565b6001600160a01b03167f8c5be1e5ebec7d5bd14f71427d1e84f3dd0314c0f7b2291e5b200ac8c7c3b92560405160405180910390a45050565b600080610885836105ce565b9050806001600160a01b0316846001600160a01b031614806108ac57506108ac818561077e565b806108d05750836001600160a01b03166108c584610338565b6001600160a01b0316145b949350505050565b826001600160a01b03166108eb826105ce565b6001600160a01b03161461094f5760405162461bcd60e51b815260206004820152602560248201527f4552433732313a207472616e736665722066726f6d20696e636f72726563742060448201526437bbb732b960d91b60648201526084016103d3565b6001600160a01b0382166109b15760405162461bcd60e51b8152602060048201526024808201527f4552433732313a207472616e7366657220746f20746865207a65726f206164646044820152637265737360e01b60648201526084016103d3565b6109bc60008261080b565b6001600160a01b03831660009081526003602052604081208054600192906109e5908490611449565b90915550506001600160a01b0382166000908152600360205260408120805460019290610a1390849061145c565b909155505060008181526002602052604080822080546001600160a01b0319166001600160a01b0386811691821790925591518493918716917fddf252ad1be2c89b69c2b068fc378daa952ba7f163c4a11628f55a4df523b3ef91a4505050565b6001600160a01b038216610aca5760405162461bcd60e51b815260206004820181905260248201527f4552433732313a206d696e7420746f20746865207a65726f206164647265737360448201526064016103d3565b6000818152600260205260409020546001600160a01b031615610b2f5760405162461bcd60e51b815260206004820152601c60248201527f4552433732313a20746f6b656e20616c7265616479206d696e7465640000000060448201526064016103d3565b6001600160a01b0382166000908152600360205260408120805460019290610b5890849061145c565b909155505060008181526002602052604080822080546001600160a01b0319166001600160a01b03861690811790915590518392907fddf252ad1be2c89b69c2b068fc378daa952ba7f163c4a11628f55a4df523b3ef908290a45050565b816001600160a01b0316836001600160a01b031603610c175760405162461bcd60e51b815260206004820152601960248201527f4552433732313a20617070726f766520746f2063616c6c65720000000000000060448201526064016103d3565b6001600160a01b03838116600081815260056020908152604080832094871680845294825291829020805460ff191686151590811790915591519182527f17307eab39ab6107e8899845ad3d59bd9653f200f220920489ca2b5937696c31910160405180910390a3505050565b610c8f8484846108d8565b610c9b84848484610db8565b6107045760405162461bcd60e51b81526004016103d39061146f565b606081600003610cde5750506040805180820190915260018152600360fc1b602082015290565b8160005b8115610d085780610cf2816114c1565b9150610d019050600a836114f0565b9150610ce2565b60008167ffffffffffffffff811115610d2357610d23610fea565b6040519080825280601f01601f191660200182016040528015610d4d576020820181803683370190505b5090505b84156108d057610d62600183611449565b9150610d6f600a86611504565b610d7a90603061145c565b60f81b818381518110610d8f57610d8f611518565b60200101906001600160f81b031916908160001a905350610db1600a866114f0565b9450610d51565b60006001600160a01b0384163b15610eae57604051630a85bd0160e11b81526001600160a01b0385169063150b7a0290610dfc90339089908890889060040161152e565b6020604051808303816000875af1925050508015610e37575060408051601f3d908101601f19168201909252610e349181019061156b565b60015b610e94573d808015610e65576040519150601f19603f3d011682016040523d82523d6000602084013e610e6a565b606091505b508051600003610e8c5760405162461bcd60e51b81526004016103d39061146f565b805181602001fd5b6001600160e01b031916630a85bd0160e11b1490506108d0565b506001949350505050565b6001600160e01b0319811681146101fd57600080fd5b600060208284031215610ee157600080fd5b813561077781610eb9565b60005b83811015610f07578181015183820152602001610eef565b50506000910152565b60008151808452610f28816020860160208601610eec565b601f01601f19169290920160200192915050565b6020815260006107776020830184610f10565b600060208284031215610f6157600080fd5b5035919050565b80356001600160a01b0381168114610f7f57600080fd5b919050565b60008060408385031215610f9757600080fd5b610fa083610f68565b946020939093013593505050565b600080600060608486031215610fc357600080fd5b610fcc84610f68565b9250610fda60208501610f68565b9150604084013590509250925092565b634e487b7160e01b600052604160045260246000fd5b600067ffffffffffffffff8084111561101b5761101b610fea565b604051601f8501601f19908116603f0116810190828211818310171561104357611043610fea565b8160405280935085815286868601111561105c57600080fd5b858560208301376000602087830101525050509392505050565b600082601f83011261108757600080fd5b61077783833560208501611000565b600080600080600060a086880312156110ae57600080fd5b853567ffffffffffffffff808211156110c657600080fd5b6110d289838a01611076565b965060208801359150808211156110e857600080fd5b6110f489838a01611076565b9550604088013591508082111561110a57600080fd5b61111689838a01611076565b9450606088013591508082111561112c57600080fd5b61113889838a01611076565b9350608088013591508082111561114e57600080fd5b5061115b88828901611076565b9150509295509295909350565b60006020828403121561117a57600080fd5b61077782610f68565b6000806040838503121561119657600080fd5b61119f83610f68565b9150602083013580151581146111b457600080fd5b809150509250929050565b600080600080608085870312156111d557600080fd5b6111de85610f68565b93506111ec60208601610f68565b925060408501359150606085013567ffffffffffffffff81111561120f57600080fd5b8501601f8101871361122057600080fd5b61122f87823560208401611000565b91505092959194509250565b6000806040838503121561124e57600080fd5b61125783610f68565b915061126560208401610f68565b90509250929050565b600181811c9082168061128257607f821691505b6020821081036112a257634e487b7160e01b600052602260045260246000fd5b50919050565b6020808252602e908201527f4552433732313a2063616c6c6572206973206e6f7420746f6b656e206f776e6560408201526d1c881b9bdc88185c1c1c9bdd995960921b606082015260800190565b601f82111561047457600081815260208120601f850160051c8101602086101561131d5750805b601f850160051c820191505b8181101561133c57828155600101611329565b505050505050565b815167ffffffffffffffff81111561135e5761135e610fea565b6113728161136c845461126e565b846112f6565b602080601f8311600181146113a7576000841561138f5750858301515b600019600386901b1c1916600185901b17855561133c565b600085815260208120601f198616915b828110156113d6578886015182559484019460019091019084016113b7565b50858210156113f45787850151600019600388901b60f8161c191681555b5050505050600190811b01905550565b60008351611416818460208801610eec565b83519083019061142a818360208801610eec565b01949350505050565b634e487b7160e01b600052601160045260246000fd5b818103818111156102a0576102a0611433565b808201808211156102a0576102a0611433565b60208082526032908201527f4552433732313a207472616e7366657220746f206e6f6e20455243373231526560408201527131b2b4bb32b91034b6b83632b6b2b73a32b960711b606082015260800190565b6000600182016114d3576114d3611433565b5060010190565b634e487b7160e01b600052601260045260246000fd5b6000826114ff576114ff6114da565b500490565b600082611513576115136114da565b500690565b634e487b7160e01b600052603260045260246000fd5b6001600160a01b038581168252841660208201526040810183905260806060820181905260009061156190830184610f10565b9695505050505050565b60006020828403121561157d57600080fd5b815161077781610eb956fea264697066735822122040b54df62bdc5885766a813cdc7346ece38493fda75ca209de864ff950bf06f964736f6c63430008110033",
    "sourcePath": "/home/ubuntu/code/capstone/capstone_project/contracts/PropertyToken.sol",
    "compiler": {
        "name": "solc",
        "version": "0.8.17+commit.8df45f5f"
    },
    "functionHashes": {
        "_registerProperty(string,string,string,string,string)": "2f490b18",
        "approve(address,uint256)": "095ea7b3",
        "balanceOf(address)": "70a08231",
        "bidProperty(uint256)": "7ce9e707",
        "getApproved(uint256)": "081812fc",
        "getPropertyDetail()": "ccd6e8e5",
        "isApprovedForAll(address,address)": "e985e9c5",
        "name()": "06fdde03",
        "ownerOf(uint256)": "6352211e",
        "safeTransferFrom(address,address,uint256)": "42842e0e",
        "safeTransferFrom(address,address,uint256,bytes)": "b88d4fde",
        "setApprovalForAll(address,bool)": "a22cb465",
        "supportsInterface(bytes4)": "01ffc9a7",
        "symbol()": "95d89b41",
        "tokenURI(uint256)": "c87b56dd",
        "transferFrom(address,address,uint256)": "23b872dd"
    },
    "gasEstimates": {
        "creation": {
            "codeDepositCost": "1113200",
            "executionCost": "infinite",
            "totalCost": "infinite"
        },
        "external": {
            "_registerProperty(string,string,string,string,string)": "infinite",
            "approve(address,uint256)": "infinite",
            "balanceOf(address)": "2612",
            "bidProperty(uint256)": "256",
            "getApproved(uint256)": "4792",
            "getPropertyDetail()": "186",
            "isApprovedForAll(address,address)": "infinite",
            "name()": "infinite",
            "ownerOf(uint256)": "2627",
            "safeTransferFrom(address,address,uint256)": "infinite",
            "safeTransferFrom(address,address,uint256,bytes)": "infinite",
            "setApprovalForAll(address,bool)": "26772",
            "supportsInterface(bytes4)": "534",
            "symbol()": "infinite",
            "tokenURI(uint256)": "infinite",
            "transferFrom(address,address,uint256)": "infinite"
        }
    }
}