{
    "contractName": "PropertyContract",
    "abi": [
        {
            "inputs": [],
            "stateMutability": "nonpayable",
            "type": "constructor"
        },
        {
            "anonymous": false,
            "inputs": [
                {
                    "indexed": true,
                    "internalType": "address",
                    "name": "owner",
                    "type": "address"
                },
                {
                    "indexed": true,
                    "internalType": "address",
                    "name": "approved",
                    "type": "address"
                },
                {
                    "indexed": true,
                    "internalType": "uint256",
                    "name": "tokenId",
                    "type": "uint256"
                }
            ],
            "name": "Approval",
            "type": "event"
        },
        {
            "anonymous": false,
            "inputs": [
                {
                    "indexed": true,
                    "internalType": "address",
                    "name": "owner",
                    "type": "address"
                },
                {
                    "indexed": true,
                    "internalType": "address",
                    "name": "operator",
                    "type": "address"
                },
                {
                    "indexed": false,
                    "internalType": "bool",
                    "name": "approved",
                    "type": "bool"
                }
            ],
            "name": "ApprovalForAll",
            "type": "event"
        },
        {
            "anonymous": false,
            "inputs": [
                {
                    "indexed": false,
                    "internalType": "address",
                    "name": "owner",
                    "type": "address"
                }
            ],
            "name": "ContractOwnerShipTransferred",
            "type": "event"
        },
        {
            "anonymous": false,
            "inputs": [
                {
                    "indexed": true,
                    "internalType": "address",
                    "name": "from",
                    "type": "address"
                },
                {
                    "indexed": true,
                    "internalType": "address",
                    "name": "to",
                    "type": "address"
                },
                {
                    "indexed": true,
                    "internalType": "uint256",
                    "name": "tokenId",
                    "type": "uint256"
                }
            ],
            "name": "Transfer",
            "type": "event"
        },
        {
            "inputs": [
                {
                    "internalType": "uint256",
                    "name": "",
                    "type": "uint256"
                }
            ],
            "name": "_propertylist",
            "outputs": [
                {
                    "internalType": "string",
                    "name": "location",
                    "type": "string"
                },
                {
                    "internalType": "string",
                    "name": "unit_block",
                    "type": "string"
                },
                {
                    "internalType": "string",
                    "name": "unit_floor",
                    "type": "string"
                },
                {
                    "internalType": "string",
                    "name": "unit_flat",
                    "type": "string"
                },
                {
                    "internalType": "string",
                    "name": "prop_id",
                    "type": "string"
                }
            ],
            "stateMutability": "view",
            "type": "function"
        },
        {
            "inputs": [
                {
                    "internalType": "address",
                    "name": "to",
                    "type": "address"
                },
                {
                    "internalType": "uint256",
                    "name": "tokenId",
                    "type": "uint256"
                }
            ],
            "name": "approve",
            "outputs": [],
            "stateMutability": "nonpayable",
            "type": "function"
        },
        {
            "inputs": [
                {
                    "internalType": "address",
                    "name": "owner",
                    "type": "address"
                }
            ],
            "name": "balanceOf",
            "outputs": [
                {
                    "internalType": "uint256",
                    "name": "",
                    "type": "uint256"
                }
            ],
            "stateMutability": "view",
            "type": "function"
        },
        {
            "inputs": [
                {
                    "internalType": "uint256",
                    "name": "tokenId",
                    "type": "uint256"
                },
                {
                    "internalType": "uint256",
                    "name": "bidPrice",
                    "type": "uint256"
                }
            ],
            "name": "bidProperty",
            "outputs": [],
            "stateMutability": "payable",
            "type": "function"
        },
        {
            "inputs": [
                {
                    "internalType": "uint256",
                    "name": "tokenId",
                    "type": "uint256"
                }
            ],
            "name": "getApproved",
            "outputs": [
                {
                    "internalType": "address",
                    "name": "",
                    "type": "address"
                }
            ],
            "stateMutability": "view",
            "type": "function"
        },
        {
            "inputs": [
                {
                    "internalType": "uint256",
                    "name": "tokenId",
                    "type": "uint256"
                }
            ],
            "name": "get_property_location",
            "outputs": [
                {
                    "internalType": "string",
                    "name": "",
                    "type": "string"
                }
            ],
            "stateMutability": "view",
            "type": "function"
        },
        {
            "inputs": [
                {
                    "internalType": "address",
                    "name": "owner",
                    "type": "address"
                },
                {
                    "internalType": "address",
                    "name": "operator",
                    "type": "address"
                }
            ],
            "name": "isApprovedForAll",
            "outputs": [
                {
                    "internalType": "bool",
                    "name": "",
                    "type": "bool"
                }
            ],
            "stateMutability": "view",
            "type": "function"
        },
        {
            "inputs": [],
            "name": "name",
            "outputs": [
                {
                    "internalType": "string",
                    "name": "",
                    "type": "string"
                }
            ],
            "stateMutability": "view",
            "type": "function"
        },
        {
            "inputs": [
                {
                    "internalType": "uint256",
                    "name": "tokenId",
                    "type": "uint256"
                }
            ],
            "name": "ownerOf",
            "outputs": [
                {
                    "internalType": "address",
                    "name": "",
                    "type": "address"
                }
            ],
            "stateMutability": "view",
            "type": "function"
        },
        {
            "inputs": [
                {
                    "internalType": "string",
                    "name": "_location",
                    "type": "string"
                },
                {
                    "internalType": "string",
                    "name": "_unit_block",
                    "type": "string"
                },
                {
                    "internalType": "string",
                    "name": "_unit_floor",
                    "type": "string"
                },
                {
                    "internalType": "string",
                    "name": "_unit_flat",
                    "type": "string"
                },
                {
                    "internalType": "string",
                    "name": "_prop_id",
                    "type": "string"
                },
                {
                    "internalType": "uint256",
                    "name": "_target_price",
                    "type": "uint256"
                }
            ],
            "name": "registerProperty",
            "outputs": [
                {
                    "internalType": "uint256",
                    "name": "",
                    "type": "uint256"
                }
            ],
            "stateMutability": "nonpayable",
            "type": "function"
        },
        {
            "inputs": [
                {
                    "internalType": "address",
                    "name": "from",
                    "type": "address"
                },
                {
                    "internalType": "address",
                    "name": "to",
                    "type": "address"
                },
                {
                    "internalType": "uint256",
                    "name": "tokenId",
                    "type": "uint256"
                }
            ],
            "name": "safeTransferFrom",
            "outputs": [],
            "stateMutability": "nonpayable",
            "type": "function"
        },
        {
            "inputs": [
                {
                    "internalType": "address",
                    "name": "from",
                    "type": "address"
                },
                {
                    "internalType": "address",
                    "name": "to",
                    "type": "address"
                },
                {
                    "internalType": "uint256",
                    "name": "tokenId",
                    "type": "uint256"
                },
                {
                    "internalType": "bytes",
                    "name": "data",
                    "type": "bytes"
                }
            ],
            "name": "safeTransferFrom",
            "outputs": [],
            "stateMutability": "nonpayable",
            "type": "function"
        },
        {
            "inputs": [
                {
                    "internalType": "address",
                    "name": "operator",
                    "type": "address"
                },
                {
                    "internalType": "bool",
                    "name": "approved",
                    "type": "bool"
                }
            ],
            "name": "setApprovalForAll",
            "outputs": [],
            "stateMutability": "nonpayable",
            "type": "function"
        },
        {
            "inputs": [
                {
                    "internalType": "bytes4",
                    "name": "interfaceId",
                    "type": "bytes4"
                }
            ],
            "name": "supportsInterface",
            "outputs": [
                {
                    "internalType": "bool",
                    "name": "",
                    "type": "bool"
                }
            ],
            "stateMutability": "view",
            "type": "function"
        },
        {
            "inputs": [],
            "name": "symbol",
            "outputs": [
                {
                    "internalType": "string",
                    "name": "",
                    "type": "string"
                }
            ],
            "stateMutability": "view",
            "type": "function"
        },
        {
            "inputs": [
                {
                    "internalType": "uint256",
                    "name": "tokenId",
                    "type": "uint256"
                }
            ],
            "name": "tokenURI",
            "outputs": [
                {
                    "internalType": "string",
                    "name": "",
                    "type": "string"
                }
            ],
            "stateMutability": "view",
            "type": "function"
        },
        {
            "inputs": [
                {
                    "internalType": "address",
                    "name": "from",
                    "type": "address"
                },
                {
                    "internalType": "address",
                    "name": "to",
                    "type": "address"
                },
                {
                    "internalType": "uint256",
                    "name": "tokenId",
                    "type": "uint256"
                }
            ],
            "name": "transferFrom",
            "outputs": [],
            "stateMutability": "nonpayable",
            "type": "function"
        }
    ],
    "bytecode": "60806040523480156200001157600080fd5b506040518060400160405280600e81526020016d50726f7065727479546f6b656e7360901b81525060405180604001604052806002815260200161141560f21b81525081600090816200006591906200016a565b5060016200007482826200016a565b5050600b80546001600160a01b031916339081179091556040519081527fedc72216363839831f76919254ddbbadce2234833dfa8fb47dcdbe73035b8a60915060200160405180910390a162000236565b634e487b7160e01b600052604160045260246000fd5b600181811c90821680620000f057607f821691505b6020821081036200011157634e487b7160e01b600052602260045260246000fd5b50919050565b601f8211156200016557600081815260208120601f850160051c81016020861015620001405750805b601f850160051c820191505b8181101562000161578281556001016200014c565b5050505b505050565b81516001600160401b03811115620001865762000186620000c5565b6200019e81620001978454620000db565b8462000117565b602080601f831160018114620001d65760008415620001bd5750858301515b600019600386901b1c1916600185901b17855562000161565b600085815260208120601f198616915b828110156200020757888601518255948401946001909101908401620001e6565b5085821015620002265787850151600019600388901b60f8161c191681555b5050505050600190811b01905550565b611c7780620002466000396000f3fe6080604052600436106100fe5760003560e01c806370a0823111610095578063b88d4fde11610064578063b88d4fde146102b7578063c87b56dd146102d7578063cb96fb48146102f7578063e985e9c514610328578063fd5087281461034857600080fd5b806370a082311461024257806378a8353e1461026257806395d89b4114610282578063a22cb4651461029757600080fd5b806323b872dd116100d157806323b872dd146101b457806342842e0e146101d4578063596b8357146101f45780636352211e1461022257600080fd5b806301ffc9a71461010357806306fdde0314610138578063081812fc1461015a578063095ea7b314610192575b600080fd5b34801561010f57600080fd5b5061012361011e3660046114fd565b61035b565b60405190151581526020015b60405180910390f35b34801561014457600080fd5b5061014d6103ad565b60405161012f919061156a565b34801561016657600080fd5b5061017a61017536600461157d565b61043f565b6040516001600160a01b03909116815260200161012f565b34801561019e57600080fd5b506101b26101ad3660046115b2565b610466565b005b3480156101c057600080fd5b506101b26101cf3660046115dc565b610580565b3480156101e057600080fd5b506101b26101ef3660046115dc565b6105b1565b34801561020057600080fd5b5061021461020f3660046116c4565b6105cc565b60405190815260200161012f565b34801561022e57600080fd5b5061017a61023d36600461157d565b61073c565b34801561024e57600080fd5b5061021461025d36600461179e565b61079c565b34801561026e57600080fd5b5061014d61027d36600461157d565b610822565b34801561028e57600080fd5b5061014d6108c6565b3480156102a357600080fd5b506101b26102b23660046117b9565b6108d5565b3480156102c357600080fd5b506101b26102d23660046117f5565b6108e4565b3480156102e357600080fd5b5061014d6102f236600461157d565b61091c565b34801561030357600080fd5b5061031761031236600461157d565b610990565b60405161012f959493929190611871565b34801561033457600080fd5b506101236103433660046118d2565b610c66565b6101b2610356366004611905565b610c94565b60006001600160e01b031982166380ac58cd60e01b148061038c57506001600160e01b03198216635b5e139f60e01b145b806103a757506301ffc9a760e01b6001600160e01b03198316145b92915050565b6060600080546103bc90611927565b80601f01602080910402602001604051908101604052809291908181526020018280546103e890611927565b80156104355780601f1061040a57610100808354040283529160200191610435565b820191906000526020600020905b81548152906001019060200180831161041857829003601f168201915b5050505050905090565b600061044a82610dd7565b506000908152600460205260409020546001600160a01b031690565b60006104718261073c565b9050806001600160a01b0316836001600160a01b0316036104e35760405162461bcd60e51b815260206004820152602160248201527f4552433732313a20617070726f76616c20746f2063757272656e74206f776e656044820152603960f91b60648201526084015b60405180910390fd5b336001600160a01b03821614806104ff57506104ff8133610c66565b6105715760405162461bcd60e51b815260206004820152603e60248201527f4552433732313a20617070726f76652063616c6c6572206973206e6f7420746f60448201527f6b656e206f776e6572206e6f7220617070726f76656420666f7220616c6c000060648201526084016104da565b61057b8383610e39565b505050565b61058a3382610ea7565b6105a65760405162461bcd60e51b81526004016104da90611961565b61057b838383610f06565b61057b838383604051806020016040528060008152506108e4565b600b546000906001600160a01b031633146106295760405162461bcd60e51b815260206004820181905260248201527f4f6e6c79206f776e65722063616e2072656769737465722070726f706572747960448201526064016104da565b60006040518060a00160405280898152602001888152602001878152602001868152602001858152509050600061065f60065490565b600081815260086020526040902083519192508391819061068090826119fd565b506020820151600182019061069590826119fd565b50604082015160028201906106aa90826119fd565b50606082015160038201906106bf90826119fd565b50608082015160048201906106d490826119fd565b505050600081815260076020908152604080832080546001600160a01b0319163390811790915560098352818420889055600a909252909120805460ff1916600117905561072290826110a2565b610730600680546001019055565b98975050505050505050565b6000818152600260205260408120546001600160a01b0316806103a75760405162461bcd60e51b8152602060048201526018602482015277115490cdcc8c4e881a5b9d985b1a59081d1bdad95b88125160421b60448201526064016104da565b60006001600160a01b0382166108065760405162461bcd60e51b815260206004820152602960248201527f4552433732313a2061646472657373207a65726f206973206e6f7420612076616044820152683634b21037bbb732b960b91b60648201526084016104da565b506001600160a01b031660009081526003602052604090205490565b60008181526008602052604081208054606092919061084090611927565b80601f016020809104026020016040519081016040528092919081815260200182805461086c90611927565b80156108b95780601f1061088e576101008083540402835291602001916108b9565b820191906000526020600020905b81548152906001019060200180831161089c57829003601f168201915b5093979650505050505050565b6060600180546103bc90611927565b6108e03383836111e4565b5050565b6108ee3383610ea7565b61090a5760405162461bcd60e51b81526004016104da90611961565b610916848484846112b2565b50505050565b606061092782610dd7565b600061093e60408051602081019091526000815290565b9050600081511161095e5760405180602001604052806000815250610989565b80610968846112e5565b604051602001610979929190611abd565b6040516020818303038152906040525b9392505050565b6008602052600090815260409020805481906109ab90611927565b80601f01602080910402602001604051908101604052809291908181526020018280546109d790611927565b8015610a245780601f106109f957610100808354040283529160200191610a24565b820191906000526020600020905b815481529060010190602001808311610a0757829003601f168201915b505050505090806001018054610a3990611927565b80601f0160208091040260200160405190810160405280929190818152602001828054610a6590611927565b8015610ab25780601f10610a8757610100808354040283529160200191610ab2565b820191906000526020600020905b815481529060010190602001808311610a9557829003601f168201915b505050505090806002018054610ac790611927565b80601f0160208091040260200160405190810160405280929190818152602001828054610af390611927565b8015610b405780601f10610b1557610100808354040283529160200191610b40565b820191906000526020600020905b815481529060010190602001808311610b2357829003601f168201915b505050505090806003018054610b5590611927565b80601f0160208091040260200160405190810160405280929190818152602001828054610b8190611927565b8015610bce5780601f10610ba357610100808354040283529160200191610bce565b820191906000526020600020905b815481529060010190602001808311610bb157829003601f168201915b505050505090806004018054610be390611927565b80601f0160208091040260200160405190810160405280929190818152602001828054610c0f90611927565b8015610c5c5780601f10610c3157610100808354040283529160200191610c5c565b820191906000526020600020905b815481529060010190602001808311610c3f57829003601f168201915b5050505050905085565b6001600160a01b03918216600090815260056020908152604080832093909416825291909152205460ff1690565b6000828152600760205260409020546001600160a01b03163303610cfa5760405162461bcd60e51b815260206004820152601d60248201527f4f776e65722063616e6e6f7420627579207468652070726f706572747900000060448201526064016104da565b600082815260096020526040902054811015610d755760405162461bcd60e51b815260206004820152603460248201527f596f7520626964207072696365206973206c6f776572207468616e20746865206044820152737461726765742073656c6c696e6720707269636560601b60648201526084016104da565b6000610d808361073c565b9050610d8d813385610f06565b6000838152600a6020526040808220805460ff19169055516001600160a01b038316913480156108fc02929091818181858888f19350505050158015610916573d6000803e3d6000fd5b6000818152600260205260409020546001600160a01b0316610e365760405162461bcd60e51b8152602060048201526018602482015277115490cdcc8c4e881a5b9d985b1a59081d1bdad95b88125160421b60448201526064016104da565b50565b600081815260046020526040902080546001600160a01b0319166001600160a01b0384169081179091558190610e6e8261073c565b6001600160a01b03167f8c5be1e5ebec7d5bd14f71427d1e84f3dd0314c0f7b2291e5b200ac8c7c3b92560405160405180910390a45050565b600080610eb38361073c565b9050806001600160a01b0316846001600160a01b03161480610eda5750610eda8185610c66565b80610efe5750836001600160a01b0316610ef38461043f565b6001600160a01b0316145b949350505050565b826001600160a01b0316610f198261073c565b6001600160a01b031614610f7d5760405162461bcd60e51b815260206004820152602560248201527f4552433732313a207472616e736665722066726f6d20696e636f72726563742060448201526437bbb732b960d91b60648201526084016104da565b6001600160a01b038216610fdf5760405162461bcd60e51b8152602060048201526024808201527f4552433732313a207472616e7366657220746f20746865207a65726f206164646044820152637265737360e01b60648201526084016104da565b610fea600082610e39565b6001600160a01b0383166000908152600360205260408120805460019290611013908490611b02565b90915550506001600160a01b0382166000908152600360205260408120805460019290611041908490611b15565b909155505060008181526002602052604080822080546001600160a01b0319166001600160a01b0386811691821790925591518493918716917fddf252ad1be2c89b69c2b068fc378daa952ba7f163c4a11628f55a4df523b3ef91a4505050565b6001600160a01b0382166110f85760405162461bcd60e51b815260206004820181905260248201527f4552433732313a206d696e7420746f20746865207a65726f206164647265737360448201526064016104da565b6000818152600260205260409020546001600160a01b03161561115d5760405162461bcd60e51b815260206004820152601c60248201527f4552433732313a20746f6b656e20616c7265616479206d696e7465640000000060448201526064016104da565b6001600160a01b0382166000908152600360205260408120805460019290611186908490611b15565b909155505060008181526002602052604080822080546001600160a01b0319166001600160a01b03861690811790915590518392907fddf252ad1be2c89b69c2b068fc378daa952ba7f163c4a11628f55a4df523b3ef908290a45050565b816001600160a01b0316836001600160a01b0316036112455760405162461bcd60e51b815260206004820152601960248201527f4552433732313a20617070726f766520746f2063616c6c65720000000000000060448201526064016104da565b6001600160a01b03838116600081815260056020908152604080832094871680845294825291829020805460ff191686151590811790915591519182527f17307eab39ab6107e8899845ad3d59bd9653f200f220920489ca2b5937696c31910160405180910390a3505050565b6112bd848484610f06565b6112c9848484846113e6565b6109165760405162461bcd60e51b81526004016104da90611b28565b60608160000361130c5750506040805180820190915260018152600360fc1b602082015290565b8160005b8115611336578061132081611b7a565b915061132f9050600a83611ba9565b9150611310565b60008167ffffffffffffffff81111561135157611351611618565b6040519080825280601f01601f19166020018201604052801561137b576020820181803683370190505b5090505b8415610efe57611390600183611b02565b915061139d600a86611bbd565b6113a8906030611b15565b60f81b8183815181106113bd576113bd611bd1565b60200101906001600160f81b031916908160001a9053506113df600a86611ba9565b945061137f565b60006001600160a01b0384163b156114dc57604051630a85bd0160e11b81526001600160a01b0385169063150b7a029061142a903390899088908890600401611be7565b6020604051808303816000875af1925050508015611465575060408051601f3d908101601f1916820190925261146291810190611c24565b60015b6114c2573d808015611493576040519150601f19603f3d011682016040523d82523d6000602084013e611498565b606091505b5080516000036114ba5760405162461bcd60e51b81526004016104da90611b28565b805181602001fd5b6001600160e01b031916630a85bd0160e11b149050610efe565b506001949350505050565b6001600160e01b031981168114610e3657600080fd5b60006020828403121561150f57600080fd5b8135610989816114e7565b60005b8381101561153557818101518382015260200161151d565b50506000910152565b6000815180845261155681602086016020860161151a565b601f01601f19169290920160200192915050565b602081526000610989602083018461153e565b60006020828403121561158f57600080fd5b5035919050565b80356001600160a01b03811681146115ad57600080fd5b919050565b600080604083850312156115c557600080fd5b6115ce83611596565b946020939093013593505050565b6000806000606084860312156115f157600080fd5b6115fa84611596565b925061160860208501611596565b9150604084013590509250925092565b634e487b7160e01b600052604160045260246000fd5b600067ffffffffffffffff8084111561164957611649611618565b604051601f8501601f19908116603f0116810190828211818310171561167157611671611618565b8160405280935085815286868601111561168a57600080fd5b858560208301376000602087830101525050509392505050565b600082601f8301126116b557600080fd5b6109898383356020850161162e565b60008060008060008060c087890312156116dd57600080fd5b863567ffffffffffffffff808211156116f557600080fd5b6117018a838b016116a4565b9750602089013591508082111561171757600080fd5b6117238a838b016116a4565b9650604089013591508082111561173957600080fd5b6117458a838b016116a4565b9550606089013591508082111561175b57600080fd5b6117678a838b016116a4565b9450608089013591508082111561177d57600080fd5b5061178a89828a016116a4565b92505060a087013590509295509295509295565b6000602082840312156117b057600080fd5b61098982611596565b600080604083850312156117cc57600080fd5b6117d583611596565b9150602083013580151581146117ea57600080fd5b809150509250929050565b6000806000806080858703121561180b57600080fd5b61181485611596565b935061182260208601611596565b925060408501359150606085013567ffffffffffffffff81111561184557600080fd5b8501601f8101871361185657600080fd5b6118658782356020840161162e565b91505092959194509250565b60a08152600061188460a083018861153e565b8281036020840152611896818861153e565b905082810360408401526118aa818761153e565b905082810360608401526118be818661153e565b90508281036080840152610730818561153e565b600080604083850312156118e557600080fd5b6118ee83611596565b91506118fc60208401611596565b90509250929050565b6000806040838503121561191857600080fd5b50508035926020909101359150565b600181811c9082168061193b57607f821691505b60208210810361195b57634e487b7160e01b600052602260045260246000fd5b50919050565b6020808252602e908201527f4552433732313a2063616c6c6572206973206e6f7420746f6b656e206f776e6560408201526d1c881b9bdc88185c1c1c9bdd995960921b606082015260800190565b601f82111561057b57600081815260208120601f850160051c810160208610156119d65750805b601f850160051c820191505b818110156119f5578281556001016119e2565b505050505050565b815167ffffffffffffffff811115611a1757611a17611618565b611a2b81611a258454611927565b846119af565b602080601f831160018114611a605760008415611a485750858301515b600019600386901b1c1916600185901b1785556119f5565b600085815260208120601f198616915b82811015611a8f57888601518255948401946001909101908401611a70565b5085821015611aad5787850151600019600388901b60f8161c191681555b5050505050600190811b01905550565b60008351611acf81846020880161151a565b835190830190611ae381836020880161151a565b01949350505050565b634e487b7160e01b600052601160045260246000fd5b818103818111156103a7576103a7611aec565b808201808211156103a7576103a7611aec565b60208082526032908201527f4552433732313a207472616e7366657220746f206e6f6e20455243373231526560408201527131b2b4bb32b91034b6b83632b6b2b73a32b960711b606082015260800190565b600060018201611b8c57611b8c611aec565b5060010190565b634e487b7160e01b600052601260045260246000fd5b600082611bb857611bb8611b93565b500490565b600082611bcc57611bcc611b93565b500690565b634e487b7160e01b600052603260045260246000fd5b6001600160a01b0385811682528416602082015260408101839052608060608201819052600090611c1a9083018461153e565b9695505050505050565b600060208284031215611c3657600080fd5b8151610989816114e756fea2646970667358221220583ebbd8b02b08de8f366fe94b7c3338abeae8524ed4688b6ee1fe0d712f221264736f6c63430008110033",
    "sourcePath": "/home/ubuntu/code/capstone/capstone_project/contracts/PropertyToken.sol",
    "compiler": {
        "name": "solc",
        "version": "0.8.17+commit.8df45f5f"
    },
    "functionHashes": {
        "_propertylist(uint256)": "cb96fb48",
        "approve(address,uint256)": "095ea7b3",
        "balanceOf(address)": "70a08231",
        "bidProperty(uint256,uint256)": "fd508728",
        "getApproved(uint256)": "081812fc",
        "get_property_location(uint256)": "78a8353e",
        "isApprovedForAll(address,address)": "e985e9c5",
        "name()": "06fdde03",
        "ownerOf(uint256)": "6352211e",
        "registerProperty(string,string,string,string,string,uint256)": "596b8357",
        "safeTransferFrom(address,address,uint256)": "42842e0e",
        "safeTransferFrom(address,address,uint256,bytes)": "b88d4fde",
        "setApprovalForAll(address,bool)": "a22cb465",
        "supportsInterface(bytes4)": "01ffc9a7",
        "symbol()": "95d89b41",
        "tokenURI(uint256)": "c87b56dd",
        "transferFrom(address,address,uint256)": "23b872dd"
    },
    "gasEstimates": {
        "creation": {
            "codeDepositCost": "1457400",
            "executionCost": "infinite",
            "totalCost": "infinite"
        },
        "external": {
            "_propertylist(uint256)": "infinite",
            "approve(address,uint256)": "infinite",
            "balanceOf(address)": "2612",
            "bidProperty(uint256,uint256)": "infinite",
            "getApproved(uint256)": "4792",
            "get_property_location(uint256)": "infinite",
            "isApprovedForAll(address,address)": "infinite",
            "name()": "infinite",
            "ownerOf(uint256)": "2627",
            "registerProperty(string,string,string,string,string,uint256)": "infinite",
            "safeTransferFrom(address,address,uint256)": "infinite",
            "safeTransferFrom(address,address,uint256,bytes)": "infinite",
            "setApprovalForAll(address,bool)": "26772",
            "supportsInterface(bytes4)": "534",
            "symbol()": "infinite",
            "tokenURI(uint256)": "infinite",
            "transferFrom(address,address,uint256)": "infinite"
        }
    }
}