{
    "contractName": "PropertyContract",
    "abi": [
        {
            "inputs": [
                {
                    "internalType": "string",
                    "name": "_name",
                    "type": "string"
                },
                {
                    "internalType": "string",
                    "name": "_symbol",
                    "type": "string"
                }
            ],
            "stateMutability": "nonpayable",
            "type": "constructor"
        },
        {
            "anonymous": false,
            "inputs": [
                {
                    "indexed": true,
                    "internalType": "address",
                    "name": "owner",
                    "type": "address"
                },
                {
                    "indexed": true,
                    "internalType": "address",
                    "name": "approved",
                    "type": "address"
                },
                {
                    "indexed": true,
                    "internalType": "uint256",
                    "name": "tokenId",
                    "type": "uint256"
                }
            ],
            "name": "Approval",
            "type": "event"
        },
        {
            "anonymous": false,
            "inputs": [
                {
                    "indexed": true,
                    "internalType": "address",
                    "name": "owner",
                    "type": "address"
                },
                {
                    "indexed": true,
                    "internalType": "address",
                    "name": "operator",
                    "type": "address"
                },
                {
                    "indexed": false,
                    "internalType": "bool",
                    "name": "approved",
                    "type": "bool"
                }
            ],
            "name": "ApprovalForAll",
            "type": "event"
        },
        {
            "anonymous": false,
            "inputs": [
                {
                    "indexed": false,
                    "internalType": "address",
                    "name": "owner",
                    "type": "address"
                }
            ],
            "name": "ContractOwnerShipTransferred",
            "type": "event"
        },
        {
            "anonymous": false,
            "inputs": [
                {
                    "indexed": true,
                    "internalType": "address",
                    "name": "from",
                    "type": "address"
                },
                {
                    "indexed": true,
                    "internalType": "address",
                    "name": "to",
                    "type": "address"
                },
                {
                    "indexed": true,
                    "internalType": "uint256",
                    "name": "tokenId",
                    "type": "uint256"
                }
            ],
            "name": "Transfer",
            "type": "event"
        },
        {
            "inputs": [
                {
                    "internalType": "address",
                    "name": "to",
                    "type": "address"
                },
                {
                    "internalType": "uint256",
                    "name": "tokenId",
                    "type": "uint256"
                }
            ],
            "name": "approve",
            "outputs": [],
            "stateMutability": "nonpayable",
            "type": "function"
        },
        {
            "inputs": [
                {
                    "internalType": "address",
                    "name": "owner",
                    "type": "address"
                }
            ],
            "name": "balanceOf",
            "outputs": [
                {
                    "internalType": "uint256",
                    "name": "",
                    "type": "uint256"
                }
            ],
            "stateMutability": "view",
            "type": "function"
        },
        {
            "inputs": [
                {
                    "internalType": "uint256",
                    "name": "bidPrice",
                    "type": "uint256"
                }
            ],
            "name": "bidProperty",
            "outputs": [],
            "stateMutability": "nonpayable",
            "type": "function"
        },
        {
            "inputs": [
                {
                    "internalType": "uint256",
                    "name": "tokenId",
                    "type": "uint256"
                }
            ],
            "name": "getApproved",
            "outputs": [
                {
                    "internalType": "address",
                    "name": "",
                    "type": "address"
                }
            ],
            "stateMutability": "view",
            "type": "function"
        },
        {
            "inputs": [],
            "name": "getPropertyDetail",
            "outputs": [],
            "stateMutability": "nonpayable",
            "type": "function"
        },
        {
            "inputs": [
                {
                    "internalType": "address",
                    "name": "owner",
                    "type": "address"
                },
                {
                    "internalType": "address",
                    "name": "operator",
                    "type": "address"
                }
            ],
            "name": "isApprovedForAll",
            "outputs": [
                {
                    "internalType": "bool",
                    "name": "",
                    "type": "bool"
                }
            ],
            "stateMutability": "view",
            "type": "function"
        },
        {
            "inputs": [],
            "name": "name",
            "outputs": [
                {
                    "internalType": "string",
                    "name": "",
                    "type": "string"
                }
            ],
            "stateMutability": "view",
            "type": "function"
        },
        {
            "inputs": [
                {
                    "internalType": "uint256",
                    "name": "tokenId",
                    "type": "uint256"
                }
            ],
            "name": "ownerOf",
            "outputs": [
                {
                    "internalType": "address",
                    "name": "",
                    "type": "address"
                }
            ],
            "stateMutability": "view",
            "type": "function"
        },
        {
            "inputs": [
                {
                    "internalType": "uint256",
                    "name": "_tokenId",
                    "type": "uint256"
                },
                {
                    "internalType": "string",
                    "name": "_uri",
                    "type": "string"
                }
            ],
            "name": "registerContract",
            "outputs": [],
            "stateMutability": "nonpayable",
            "type": "function"
        },
        {
            "inputs": [
                {
                    "internalType": "string",
                    "name": "_location",
                    "type": "string"
                },
                {
                    "internalType": "string",
                    "name": "_unit_block",
                    "type": "string"
                },
                {
                    "internalType": "string",
                    "name": "_unit_floor",
                    "type": "string"
                },
                {
                    "internalType": "string",
                    "name": "_unit_flat",
                    "type": "string"
                },
                {
                    "internalType": "string",
                    "name": "_prop_id",
                    "type": "string"
                }
            ],
            "name": "registerProperty",
            "outputs": [],
            "stateMutability": "nonpayable",
            "type": "function"
        },
        {
            "inputs": [
                {
                    "internalType": "address",
                    "name": "from",
                    "type": "address"
                },
                {
                    "internalType": "address",
                    "name": "to",
                    "type": "address"
                },
                {
                    "internalType": "uint256",
                    "name": "tokenId",
                    "type": "uint256"
                }
            ],
            "name": "safeTransferFrom",
            "outputs": [],
            "stateMutability": "nonpayable",
            "type": "function"
        },
        {
            "inputs": [
                {
                    "internalType": "address",
                    "name": "from",
                    "type": "address"
                },
                {
                    "internalType": "address",
                    "name": "to",
                    "type": "address"
                },
                {
                    "internalType": "uint256",
                    "name": "tokenId",
                    "type": "uint256"
                },
                {
                    "internalType": "bytes",
                    "name": "data",
                    "type": "bytes"
                }
            ],
            "name": "safeTransferFrom",
            "outputs": [],
            "stateMutability": "nonpayable",
            "type": "function"
        },
        {
            "inputs": [
                {
                    "internalType": "address",
                    "name": "operator",
                    "type": "address"
                },
                {
                    "internalType": "bool",
                    "name": "approved",
                    "type": "bool"
                }
            ],
            "name": "setApprovalForAll",
            "outputs": [],
            "stateMutability": "nonpayable",
            "type": "function"
        },
        {
            "inputs": [
                {
                    "internalType": "bytes4",
                    "name": "interfaceId",
                    "type": "bytes4"
                }
            ],
            "name": "supportsInterface",
            "outputs": [
                {
                    "internalType": "bool",
                    "name": "",
                    "type": "bool"
                }
            ],
            "stateMutability": "view",
            "type": "function"
        },
        {
            "inputs": [],
            "name": "symbol",
            "outputs": [
                {
                    "internalType": "string",
                    "name": "",
                    "type": "string"
                }
            ],
            "stateMutability": "view",
            "type": "function"
        },
        {
            "inputs": [
                {
                    "internalType": "uint256",
                    "name": "tokenId",
                    "type": "uint256"
                }
            ],
            "name": "tokenURI",
            "outputs": [
                {
                    "internalType": "string",
                    "name": "",
                    "type": "string"
                }
            ],
            "stateMutability": "view",
            "type": "function"
        },
        {
            "inputs": [
                {
                    "internalType": "address",
                    "name": "from",
                    "type": "address"
                },
                {
                    "internalType": "address",
                    "name": "to",
                    "type": "address"
                },
                {
                    "internalType": "uint256",
                    "name": "tokenId",
                    "type": "uint256"
                }
            ],
            "name": "transferFrom",
            "outputs": [],
            "stateMutability": "nonpayable",
            "type": "function"
        }
    ],
    "bytecode": "60806040523480156200001157600080fd5b506040516200177a3803806200177a83398101604081905262000034916200016b565b8181600062000044838262000264565b50600162000053828262000264565b5050600680546001600160a01b031916339081179091556040519081527fedc72216363839831f76919254ddbbadce2234833dfa8fb47dcdbe73035b8a60915060200160405180910390a1505062000330565b634e487b7160e01b600052604160045260246000fd5b600082601f830112620000ce57600080fd5b81516001600160401b0380821115620000eb57620000eb620000a6565b604051601f8301601f19908116603f01168101908282118183101715620001165762000116620000a6565b816040528381526020925086838588010111156200013357600080fd5b600091505b8382101562000157578582018301518183018401529082019062000138565b600093810190920192909252949350505050565b600080604083850312156200017f57600080fd5b82516001600160401b03808211156200019757600080fd5b620001a586838701620000bc565b93506020850151915080821115620001bc57600080fd5b50620001cb85828601620000bc565b9150509250929050565b600181811c90821680620001ea57607f821691505b6020821081036200020b57634e487b7160e01b600052602260045260246000fd5b50919050565b601f8211156200025f57600081815260208120601f850160051c810160208610156200023a5750805b601f850160051c820191505b818110156200025b5782815560010162000246565b5050505b505050565b81516001600160401b03811115620002805762000280620000a6565b6200029881620002918454620001d5565b8462000211565b602080601f831160018114620002d05760008415620002b75750858301515b600019600386901b1c1916600185901b1785556200025b565b600085815260208120601f198616915b828110156200030157888601518255948401946001909101908401620002e0565b5085821015620003205787850151600019600388901b60f8161c191681555b5050505050600190811b01905550565b61143a80620003406000396000f3fe608060405234801561001057600080fd5b506004361061010b5760003560e01c80637ce9e707116100a2578063b88d4fde11610071578063b88d4fde14610226578063c87b56dd14610239578063ccd6e8e51461018b578063e88d27eb1461024c578063e985e9c51461028357600080fd5b80637ce9e707146101e757806395d89b41146101f8578063a22cb46514610200578063b0a92c8b1461021357600080fd5b806323b872dd116100de57806323b872dd1461018d57806342842e0e146101a05780636352211e146101b357806370a08231146101c657600080fd5b806301ffc9a71461011057806306fdde0314610138578063081812fc1461014d578063095ea7b314610178575b600080fd5b61012361011e366004610e12565b610296565b60405190151581526020015b60405180910390f35b6101406102e8565b60405161012f9190610e7f565b61016061015b366004610e92565b61037a565b6040516001600160a01b03909116815260200161012f565b61018b610186366004610ec7565b6103a1565b005b61018b61019b366004610ef1565b6104bb565b61018b6101ae366004610ef1565b6104ec565b6101606101c1366004610e92565b610507565b6101d96101d4366004610f2d565b610567565b60405190815260200161012f565b61018b6101f5366004610e92565b50565b6101406105ed565b61018b61020e366004610f48565b6105fc565b61018b610221366004611030565b61060b565b61018b610234366004611077565b610615565b610140610247366004610e92565b61064d565b61018b61025a3660046110f3565b6040805160a0810182529586526020860194909452928401919091526060830152608090910152565b6101236102913660046111c5565b6106c1565b60006001600160e01b031982166380ac58cd60e01b14806102c757506001600160e01b03198216635b5e139f60e01b145b806102e257506301ffc9a760e01b6001600160e01b03198316145b92915050565b6060600080546102f7906111f8565b80601f0160208091040260200160405190810160405280929190818152602001828054610323906111f8565b80156103705780601f1061034557610100808354040283529160200191610370565b820191906000526020600020905b81548152906001019060200180831161035357829003601f168201915b5050505050905090565b6000610385826106ef565b506000908152600460205260409020546001600160a01b031690565b60006103ac82610507565b9050806001600160a01b0316836001600160a01b03160361041e5760405162461bcd60e51b815260206004820152602160248201527f4552433732313a20617070726f76616c20746f2063757272656e74206f776e656044820152603960f91b60648201526084015b60405180910390fd5b336001600160a01b038216148061043a575061043a81336106c1565b6104ac5760405162461bcd60e51b815260206004820152603e60248201527f4552433732313a20617070726f76652063616c6c6572206973206e6f7420746f60448201527f6b656e206f776e6572206e6f7220617070726f76656420666f7220616c6c00006064820152608401610415565b6104b6838361074e565b505050565b6104c533826107bc565b6104e15760405162461bcd60e51b815260040161041590611232565b6104b683838361081b565b6104b683838360405180602001604052806000815250610615565b6000818152600260205260408120546001600160a01b0316806102e25760405162461bcd60e51b8152602060048201526018602482015277115490cdcc8c4e881a5b9d985b1a59081d1bdad95b88125160421b6044820152606401610415565b60006001600160a01b0382166105d15760405162461bcd60e51b815260206004820152602960248201527f4552433732313a2061646472657373207a65726f206973206e6f7420612076616044820152683634b21037bbb732b960b91b6064820152608401610415565b506001600160a01b031660009081526003602052604090205490565b6060600180546102f7906111f8565b6106073383836109b7565b5050565b6106073383610a85565b61061f33836107bc565b61063b5760405162461bcd60e51b815260040161041590611232565b61064784848484610bc7565b50505050565b6060610658826106ef565b600061066f60408051602081019091526000815290565b9050600081511161068f57604051806020016040528060008152506106ba565b8061069984610bfa565b6040516020016106aa929190611280565b6040516020818303038152906040525b9392505050565b6001600160a01b03918216600090815260056020908152604080832093909416825291909152205460ff1690565b6000818152600260205260409020546001600160a01b03166101f55760405162461bcd60e51b8152602060048201526018602482015277115490cdcc8c4e881a5b9d985b1a59081d1bdad95b88125160421b6044820152606401610415565b600081815260046020526040902080546001600160a01b0319166001600160a01b038416908117909155819061078382610507565b6001600160a01b03167f8c5be1e5ebec7d5bd14f71427d1e84f3dd0314c0f7b2291e5b200ac8c7c3b92560405160405180910390a45050565b6000806107c883610507565b9050806001600160a01b0316846001600160a01b031614806107ef57506107ef81856106c1565b806108135750836001600160a01b03166108088461037a565b6001600160a01b0316145b949350505050565b826001600160a01b031661082e82610507565b6001600160a01b0316146108925760405162461bcd60e51b815260206004820152602560248201527f4552433732313a207472616e736665722066726f6d20696e636f72726563742060448201526437bbb732b960d91b6064820152608401610415565b6001600160a01b0382166108f45760405162461bcd60e51b8152602060048201526024808201527f4552433732313a207472616e7366657220746f20746865207a65726f206164646044820152637265737360e01b6064820152608401610415565b6108ff60008261074e565b6001600160a01b03831660009081526003602052604081208054600192906109289084906112c5565b90915550506001600160a01b03821660009081526003602052604081208054600192906109569084906112d8565b909155505060008181526002602052604080822080546001600160a01b0319166001600160a01b0386811691821790925591518493918716917fddf252ad1be2c89b69c2b068fc378daa952ba7f163c4a11628f55a4df523b3ef91a4505050565b816001600160a01b0316836001600160a01b031603610a185760405162461bcd60e51b815260206004820152601960248201527f4552433732313a20617070726f766520746f2063616c6c6572000000000000006044820152606401610415565b6001600160a01b03838116600081815260056020908152604080832094871680845294825291829020805460ff191686151590811790915591519182527f17307eab39ab6107e8899845ad3d59bd9653f200f220920489ca2b5937696c31910160405180910390a3505050565b6001600160a01b038216610adb5760405162461bcd60e51b815260206004820181905260248201527f4552433732313a206d696e7420746f20746865207a65726f20616464726573736044820152606401610415565b6000818152600260205260409020546001600160a01b031615610b405760405162461bcd60e51b815260206004820152601c60248201527f4552433732313a20746f6b656e20616c7265616479206d696e746564000000006044820152606401610415565b6001600160a01b0382166000908152600360205260408120805460019290610b699084906112d8565b909155505060008181526002602052604080822080546001600160a01b0319166001600160a01b03861690811790915590518392907fddf252ad1be2c89b69c2b068fc378daa952ba7f163c4a11628f55a4df523b3ef908290a45050565b610bd284848461081b565b610bde84848484610cfb565b6106475760405162461bcd60e51b8152600401610415906112eb565b606081600003610c215750506040805180820190915260018152600360fc1b602082015290565b8160005b8115610c4b5780610c358161133d565b9150610c449050600a8361136c565b9150610c25565b60008167ffffffffffffffff811115610c6657610c66610f84565b6040519080825280601f01601f191660200182016040528015610c90576020820181803683370190505b5090505b841561081357610ca56001836112c5565b9150610cb2600a86611380565b610cbd9060306112d8565b60f81b818381518110610cd257610cd2611394565b60200101906001600160f81b031916908160001a905350610cf4600a8661136c565b9450610c94565b60006001600160a01b0384163b15610df157604051630a85bd0160e11b81526001600160a01b0385169063150b7a0290610d3f9033908990889088906004016113aa565b6020604051808303816000875af1925050508015610d7a575060408051601f3d908101601f19168201909252610d77918101906113e7565b60015b610dd7573d808015610da8576040519150601f19603f3d011682016040523d82523d6000602084013e610dad565b606091505b508051600003610dcf5760405162461bcd60e51b8152600401610415906112eb565b805181602001fd5b6001600160e01b031916630a85bd0160e11b149050610813565b506001949350505050565b6001600160e01b0319811681146101f557600080fd5b600060208284031215610e2457600080fd5b81356106ba81610dfc565b60005b83811015610e4a578181015183820152602001610e32565b50506000910152565b60008151808452610e6b816020860160208601610e2f565b601f01601f19169290920160200192915050565b6020815260006106ba6020830184610e53565b600060208284031215610ea457600080fd5b5035919050565b80356001600160a01b0381168114610ec257600080fd5b919050565b60008060408385031215610eda57600080fd5b610ee383610eab565b946020939093013593505050565b600080600060608486031215610f0657600080fd5b610f0f84610eab565b9250610f1d60208501610eab565b9150604084013590509250925092565b600060208284031215610f3f57600080fd5b6106ba82610eab565b60008060408385031215610f5b57600080fd5b610f6483610eab565b915060208301358015158114610f7957600080fd5b809150509250929050565b634e487b7160e01b600052604160045260246000fd5b600067ffffffffffffffff80841115610fb557610fb5610f84565b604051601f8501601f19908116603f01168101908282118183101715610fdd57610fdd610f84565b81604052809350858152868686011115610ff657600080fd5b858560208301376000602087830101525050509392505050565b600082601f83011261102157600080fd5b6106ba83833560208501610f9a565b6000806040838503121561104357600080fd5b82359150602083013567ffffffffffffffff81111561106157600080fd5b61106d85828601611010565b9150509250929050565b6000806000806080858703121561108d57600080fd5b61109685610eab565b93506110a460208601610eab565b925060408501359150606085013567ffffffffffffffff8111156110c757600080fd5b8501601f810187136110d857600080fd5b6110e787823560208401610f9a565b91505092959194509250565b600080600080600060a0868803121561110b57600080fd5b853567ffffffffffffffff8082111561112357600080fd5b61112f89838a01611010565b9650602088013591508082111561114557600080fd5b61115189838a01611010565b9550604088013591508082111561116757600080fd5b61117389838a01611010565b9450606088013591508082111561118957600080fd5b61119589838a01611010565b935060808801359150808211156111ab57600080fd5b506111b888828901611010565b9150509295509295909350565b600080604083850312156111d857600080fd5b6111e183610eab565b91506111ef60208401610eab565b90509250929050565b600181811c9082168061120c57607f821691505b60208210810361122c57634e487b7160e01b600052602260045260246000fd5b50919050565b6020808252602e908201527f4552433732313a2063616c6c6572206973206e6f7420746f6b656e206f776e6560408201526d1c881b9bdc88185c1c1c9bdd995960921b606082015260800190565b60008351611292818460208801610e2f565b8351908301906112a6818360208801610e2f565b01949350505050565b634e487b7160e01b600052601160045260246000fd5b818103818111156102e2576102e26112af565b808201808211156102e2576102e26112af565b60208082526032908201527f4552433732313a207472616e7366657220746f206e6f6e20455243373231526560408201527131b2b4bb32b91034b6b83632b6b2b73a32b960711b606082015260800190565b60006001820161134f5761134f6112af565b5060010190565b634e487b7160e01b600052601260045260246000fd5b60008261137b5761137b611356565b500490565b60008261138f5761138f611356565b500690565b634e487b7160e01b600052603260045260246000fd5b6001600160a01b03858116825284166020820152604081018390526080606082018190526000906113dd90830184610e53565b9695505050505050565b6000602082840312156113f957600080fd5b81516106ba81610dfc56fea2646970667358221220004ef4f2731c2f1adfec845b0512537ab0329160c2e708ae2ac13f9dbdd58e1364736f6c63430008110033",
    "sourcePath": "/home/ubuntu/code/capstone/capstone_project/contracts/PropertyToken.sol",
    "compiler": {
        "name": "solc",
        "version": "0.8.17+commit.8df45f5f"
    },
    "functionHashes": {
        "approve(address,uint256)": "095ea7b3",
        "balanceOf(address)": "70a08231",
        "bidProperty(uint256)": "7ce9e707",
        "getApproved(uint256)": "081812fc",
        "getPropertyDetail()": "ccd6e8e5",
        "isApprovedForAll(address,address)": "e985e9c5",
        "name()": "06fdde03",
        "ownerOf(uint256)": "6352211e",
        "registerContract(uint256,string)": "b0a92c8b",
        "registerProperty(string,string,string,string,string)": "e88d27eb",
        "safeTransferFrom(address,address,uint256)": "42842e0e",
        "safeTransferFrom(address,address,uint256,bytes)": "b88d4fde",
        "setApprovalForAll(address,bool)": "a22cb465",
        "supportsInterface(bytes4)": "01ffc9a7",
        "symbol()": "95d89b41",
        "tokenURI(uint256)": "c87b56dd",
        "transferFrom(address,address,uint256)": "23b872dd"
    },
    "gasEstimates": {
        "creation": {
            "codeDepositCost": "1035600",
            "executionCost": "infinite",
            "totalCost": "infinite"
        },
        "external": {
            "approve(address,uint256)": "infinite",
            "balanceOf(address)": "2678",
            "bidProperty(uint256)": "234",
            "getApproved(uint256)": "4792",
            "getPropertyDetail()": "186",
            "isApprovedForAll(address,address)": "infinite",
            "name()": "infinite",
            "ownerOf(uint256)": "2605",
            "registerContract(uint256,string)": "infinite",
            "registerProperty(string,string,string,string,string)": "infinite",
            "safeTransferFrom(address,address,uint256)": "infinite",
            "safeTransferFrom(address,address,uint256,bytes)": "infinite",
            "setApprovalForAll(address,bool)": "26750",
            "supportsInterface(bytes4)": "534",
            "symbol()": "infinite",
            "tokenURI(uint256)": "infinite",
            "transferFrom(address,address,uint256)": "infinite"
        }
    }
}