{
    "contractName": "PropertyContract",
    "abi": [
        {
            "inputs": [],
            "stateMutability": "nonpayable",
            "type": "constructor"
        },
        {
            "anonymous": false,
            "inputs": [
                {
                    "indexed": true,
                    "internalType": "address",
                    "name": "owner",
                    "type": "address"
                },
                {
                    "indexed": true,
                    "internalType": "address",
                    "name": "approved",
                    "type": "address"
                },
                {
                    "indexed": true,
                    "internalType": "uint256",
                    "name": "tokenId",
                    "type": "uint256"
                }
            ],
            "name": "Approval",
            "type": "event"
        },
        {
            "anonymous": false,
            "inputs": [
                {
                    "indexed": true,
                    "internalType": "address",
                    "name": "owner",
                    "type": "address"
                },
                {
                    "indexed": true,
                    "internalType": "address",
                    "name": "operator",
                    "type": "address"
                },
                {
                    "indexed": false,
                    "internalType": "bool",
                    "name": "approved",
                    "type": "bool"
                }
            ],
            "name": "ApprovalForAll",
            "type": "event"
        },
        {
            "anonymous": false,
            "inputs": [
                {
                    "indexed": false,
                    "internalType": "address",
                    "name": "owner",
                    "type": "address"
                }
            ],
            "name": "ContractOwnerShipTransferred",
            "type": "event"
        },
        {
            "anonymous": false,
            "inputs": [
                {
                    "indexed": true,
                    "internalType": "address",
                    "name": "from",
                    "type": "address"
                },
                {
                    "indexed": true,
                    "internalType": "address",
                    "name": "to",
                    "type": "address"
                },
                {
                    "indexed": true,
                    "internalType": "uint256",
                    "name": "tokenId",
                    "type": "uint256"
                }
            ],
            "name": "Transfer",
            "type": "event"
        },
        {
            "inputs": [
                {
                    "internalType": "uint256",
                    "name": "",
                    "type": "uint256"
                }
            ],
            "name": "_propertylist",
            "outputs": [
                {
                    "internalType": "string",
                    "name": "location",
                    "type": "string"
                },
                {
                    "internalType": "string",
                    "name": "unit_block",
                    "type": "string"
                },
                {
                    "internalType": "string",
                    "name": "unit_floor",
                    "type": "string"
                },
                {
                    "internalType": "string",
                    "name": "unit_flat",
                    "type": "string"
                },
                {
                    "internalType": "string",
                    "name": "prop_id",
                    "type": "string"
                }
            ],
            "stateMutability": "view",
            "type": "function"
        },
        {
            "inputs": [
                {
                    "internalType": "string",
                    "name": "_location",
                    "type": "string"
                },
                {
                    "internalType": "string",
                    "name": "_unit_block",
                    "type": "string"
                },
                {
                    "internalType": "string",
                    "name": "_unit_floor",
                    "type": "string"
                },
                {
                    "internalType": "string",
                    "name": "_unit_flat",
                    "type": "string"
                },
                {
                    "internalType": "string",
                    "name": "_prop_id",
                    "type": "string"
                },
                {
                    "internalType": "uint256",
                    "name": "_target_price",
                    "type": "uint256"
                }
            ],
            "name": "_registerProperty",
            "outputs": [
                {
                    "internalType": "uint256",
                    "name": "",
                    "type": "uint256"
                }
            ],
            "stateMutability": "nonpayable",
            "type": "function"
        },
        {
            "inputs": [
                {
                    "internalType": "address",
                    "name": "to",
                    "type": "address"
                },
                {
                    "internalType": "uint256",
                    "name": "tokenId",
                    "type": "uint256"
                }
            ],
            "name": "approve",
            "outputs": [],
            "stateMutability": "nonpayable",
            "type": "function"
        },
        {
            "inputs": [
                {
                    "internalType": "address",
                    "name": "owner",
                    "type": "address"
                }
            ],
            "name": "balanceOf",
            "outputs": [
                {
                    "internalType": "uint256",
                    "name": "",
                    "type": "uint256"
                }
            ],
            "stateMutability": "view",
            "type": "function"
        },
        {
            "inputs": [
                {
                    "internalType": "uint256",
                    "name": "tokenId",
                    "type": "uint256"
                },
                {
                    "internalType": "uint256",
                    "name": "bidPrice",
                    "type": "uint256"
                }
            ],
            "name": "bidProperty",
            "outputs": [],
            "stateMutability": "payable",
            "type": "function"
        },
        {
            "inputs": [
                {
                    "internalType": "uint256",
                    "name": "tokenId",
                    "type": "uint256"
                }
            ],
            "name": "getApproved",
            "outputs": [
                {
                    "internalType": "address",
                    "name": "",
                    "type": "address"
                }
            ],
            "stateMutability": "view",
            "type": "function"
        },
        {
            "inputs": [
                {
                    "internalType": "uint256",
                    "name": "tokenId",
                    "type": "uint256"
                }
            ],
            "name": "get_property_location",
            "outputs": [
                {
                    "internalType": "string",
                    "name": "",
                    "type": "string"
                }
            ],
            "stateMutability": "view",
            "type": "function"
        },
        {
            "inputs": [
                {
                    "internalType": "address",
                    "name": "owner",
                    "type": "address"
                },
                {
                    "internalType": "address",
                    "name": "operator",
                    "type": "address"
                }
            ],
            "name": "isApprovedForAll",
            "outputs": [
                {
                    "internalType": "bool",
                    "name": "",
                    "type": "bool"
                }
            ],
            "stateMutability": "view",
            "type": "function"
        },
        {
            "inputs": [],
            "name": "name",
            "outputs": [
                {
                    "internalType": "string",
                    "name": "",
                    "type": "string"
                }
            ],
            "stateMutability": "view",
            "type": "function"
        },
        {
            "inputs": [
                {
                    "internalType": "uint256",
                    "name": "tokenId",
                    "type": "uint256"
                }
            ],
            "name": "ownerOf",
            "outputs": [
                {
                    "internalType": "address",
                    "name": "",
                    "type": "address"
                }
            ],
            "stateMutability": "view",
            "type": "function"
        },
        {
            "inputs": [
                {
                    "internalType": "address",
                    "name": "from",
                    "type": "address"
                },
                {
                    "internalType": "address",
                    "name": "to",
                    "type": "address"
                },
                {
                    "internalType": "uint256",
                    "name": "tokenId",
                    "type": "uint256"
                }
            ],
            "name": "safeTransferFrom",
            "outputs": [],
            "stateMutability": "nonpayable",
            "type": "function"
        },
        {
            "inputs": [
                {
                    "internalType": "address",
                    "name": "from",
                    "type": "address"
                },
                {
                    "internalType": "address",
                    "name": "to",
                    "type": "address"
                },
                {
                    "internalType": "uint256",
                    "name": "tokenId",
                    "type": "uint256"
                },
                {
                    "internalType": "bytes",
                    "name": "data",
                    "type": "bytes"
                }
            ],
            "name": "safeTransferFrom",
            "outputs": [],
            "stateMutability": "nonpayable",
            "type": "function"
        },
        {
            "inputs": [
                {
                    "internalType": "address",
                    "name": "operator",
                    "type": "address"
                },
                {
                    "internalType": "bool",
                    "name": "approved",
                    "type": "bool"
                }
            ],
            "name": "setApprovalForAll",
            "outputs": [],
            "stateMutability": "nonpayable",
            "type": "function"
        },
        {
            "inputs": [
                {
                    "internalType": "bytes4",
                    "name": "interfaceId",
                    "type": "bytes4"
                }
            ],
            "name": "supportsInterface",
            "outputs": [
                {
                    "internalType": "bool",
                    "name": "",
                    "type": "bool"
                }
            ],
            "stateMutability": "view",
            "type": "function"
        },
        {
            "inputs": [],
            "name": "symbol",
            "outputs": [
                {
                    "internalType": "string",
                    "name": "",
                    "type": "string"
                }
            ],
            "stateMutability": "view",
            "type": "function"
        },
        {
            "inputs": [
                {
                    "internalType": "uint256",
                    "name": "tokenId",
                    "type": "uint256"
                }
            ],
            "name": "tokenURI",
            "outputs": [
                {
                    "internalType": "string",
                    "name": "",
                    "type": "string"
                }
            ],
            "stateMutability": "view",
            "type": "function"
        },
        {
            "inputs": [
                {
                    "internalType": "address",
                    "name": "from",
                    "type": "address"
                },
                {
                    "internalType": "address",
                    "name": "to",
                    "type": "address"
                },
                {
                    "internalType": "uint256",
                    "name": "tokenId",
                    "type": "uint256"
                }
            ],
            "name": "transferFrom",
            "outputs": [],
            "stateMutability": "nonpayable",
            "type": "function"
        }
    ],
    "bytecode": "60806040523480156200001157600080fd5b506040518060400160405280600e81526020016d50726f7065727479546f6b656e7360901b81525060405180604001604052806002815260200161141560f21b81525081600090816200006591906200016a565b5060016200007482826200016a565b5050600b80546001600160a01b031916339081179091556040519081527fedc72216363839831f76919254ddbbadce2234833dfa8fb47dcdbe73035b8a60915060200160405180910390a162000236565b634e487b7160e01b600052604160045260246000fd5b600181811c90821680620000f057607f821691505b6020821081036200011157634e487b7160e01b600052602260045260246000fd5b50919050565b601f8211156200016557600081815260208120601f850160051c81016020861015620001405750805b601f850160051c820191505b8181101562000161578281556001016200014c565b5050505b505050565b81516001600160401b03811115620001865762000186620000c5565b6200019e81620001978454620000db565b8462000117565b602080601f831160018114620001d65760008415620001bd5750858301515b600019600386901b1c1916600185901b17855562000161565b600085815260208120601f198616915b828110156200020757888601518255948401946001909101908401620001e6565b5085821015620002265787850151600019600388901b60f8161c191681555b5050505050600190811b01905550565b611beb80620002466000396000f3fe6080604052600436106100fe5760003560e01c806378a8353e11610095578063b88d4fde11610064578063b88d4fde146102b7578063c87b56dd146102d7578063cb96fb48146102f7578063e985e9c514610328578063fd5087281461034857600080fd5b806378a8353e1461024257806395d89b41146102625780639df9db4f14610277578063a22cb4651461029757600080fd5b806323b872dd116100d157806323b872dd146101b457806342842e0e146101d45780636352211e146101f457806370a082311461021457600080fd5b806301ffc9a71461010357806306fdde0314610138578063081812fc1461015a578063095ea7b314610192575b600080fd5b34801561010f57600080fd5b5061012361011e366004611471565b61035b565b60405190151581526020015b60405180910390f35b34801561014457600080fd5b5061014d6103ad565b60405161012f91906114de565b34801561016657600080fd5b5061017a6101753660046114f1565b61043f565b6040516001600160a01b03909116815260200161012f565b34801561019e57600080fd5b506101b26101ad366004611526565b610466565b005b3480156101c057600080fd5b506101b26101cf366004611550565b610580565b3480156101e057600080fd5b506101b26101ef366004611550565b6105b1565b34801561020057600080fd5b5061017a61020f3660046114f1565b6105cc565b34801561022057600080fd5b5061023461022f36600461158c565b61062c565b60405190815260200161012f565b34801561024e57600080fd5b5061014d61025d3660046114f1565b6106b2565b34801561026e57600080fd5b5061014d610756565b34801561028357600080fd5b50610234610292366004611653565b610765565b3480156102a357600080fd5b506101b26102b236600461172d565b610879565b3480156102c357600080fd5b506101b26102d2366004611769565b610888565b3480156102e357600080fd5b5061014d6102f23660046114f1565b6108c0565b34801561030357600080fd5b506103176103123660046114f1565b610934565b60405161012f9594939291906117e5565b34801561033457600080fd5b50610123610343366004611846565b610c0a565b6101b2610356366004611879565b610c38565b60006001600160e01b031982166380ac58cd60e01b148061038c57506001600160e01b03198216635b5e139f60e01b145b806103a757506301ffc9a760e01b6001600160e01b03198316145b92915050565b6060600080546103bc9061189b565b80601f01602080910402602001604051908101604052809291908181526020018280546103e89061189b565b80156104355780601f1061040a57610100808354040283529160200191610435565b820191906000526020600020905b81548152906001019060200180831161041857829003601f168201915b5050505050905090565b600061044a82610d4b565b506000908152600460205260409020546001600160a01b031690565b6000610471826105cc565b9050806001600160a01b0316836001600160a01b0316036104e35760405162461bcd60e51b815260206004820152602160248201527f4552433732313a20617070726f76616c20746f2063757272656e74206f776e656044820152603960f91b60648201526084015b60405180910390fd5b336001600160a01b03821614806104ff57506104ff8133610c0a565b6105715760405162461bcd60e51b815260206004820152603e60248201527f4552433732313a20617070726f76652063616c6c6572206973206e6f7420746f60448201527f6b656e206f776e6572206e6f7220617070726f76656420666f7220616c6c000060648201526084016104da565b61057b8383610dad565b505050565b61058a3382610e1b565b6105a65760405162461bcd60e51b81526004016104da906118d5565b61057b838383610e7a565b61057b83838360405180602001604052806000815250610888565b6000818152600260205260408120546001600160a01b0316806103a75760405162461bcd60e51b8152602060048201526018602482015277115490cdcc8c4e881a5b9d985b1a59081d1bdad95b88125160421b60448201526064016104da565b60006001600160a01b0382166106965760405162461bcd60e51b815260206004820152602960248201527f4552433732313a2061646472657373207a65726f206973206e6f7420612076616044820152683634b21037bbb732b960b91b60648201526084016104da565b506001600160a01b031660009081526003602052604090205490565b6000818152600860205260408120805460609291906106d09061189b565b80601f01602080910402602001604051908101604052809291908181526020018280546106fc9061189b565b80156107495780601f1061071e57610100808354040283529160200191610749565b820191906000526020600020905b81548152906001019060200180831161072c57829003601f168201915b5093979650505050505050565b6060600180546103bc9061189b565b6000806040518060a00160405280898152602001888152602001878152602001868152602001858152509050600061079c60065490565b60008181526008602052604090208351919250839181906107bd9082611971565b50602082015160018201906107d29082611971565b50604082015160028201906107e79082611971565b50606082015160038201906107fc9082611971565b50608082015160048201906108119082611971565b505050600081815260076020908152604080832080546001600160a01b0319163390811790915560098352818420889055600a909252909120805460ff1916600117905561085f9082611016565b61086d600680546001019055565b98975050505050505050565b610884338383611158565b5050565b6108923383610e1b565b6108ae5760405162461bcd60e51b81526004016104da906118d5565b6108ba84848484611226565b50505050565b60606108cb82610d4b565b60006108e260408051602081019091526000815290565b90506000815111610902576040518060200160405280600081525061092d565b8061090c84611259565b60405160200161091d929190611a31565b6040516020818303038152906040525b9392505050565b60086020526000908152604090208054819061094f9061189b565b80601f016020809104026020016040519081016040528092919081815260200182805461097b9061189b565b80156109c85780601f1061099d576101008083540402835291602001916109c8565b820191906000526020600020905b8154815290600101906020018083116109ab57829003601f168201915b5050505050908060010180546109dd9061189b565b80601f0160208091040260200160405190810160405280929190818152602001828054610a099061189b565b8015610a565780601f10610a2b57610100808354040283529160200191610a56565b820191906000526020600020905b815481529060010190602001808311610a3957829003601f168201915b505050505090806002018054610a6b9061189b565b80601f0160208091040260200160405190810160405280929190818152602001828054610a979061189b565b8015610ae45780601f10610ab957610100808354040283529160200191610ae4565b820191906000526020600020905b815481529060010190602001808311610ac757829003601f168201915b505050505090806003018054610af99061189b565b80601f0160208091040260200160405190810160405280929190818152602001828054610b259061189b565b8015610b725780601f10610b4757610100808354040283529160200191610b72565b820191906000526020600020905b815481529060010190602001808311610b5557829003601f168201915b505050505090806004018054610b879061189b565b80601f0160208091040260200160405190810160405280929190818152602001828054610bb39061189b565b8015610c005780601f10610bd557610100808354040283529160200191610c00565b820191906000526020600020905b815481529060010190602001808311610be357829003601f168201915b5050505050905085565b6001600160a01b03918216600090815260056020908152604080832093909416825291909152205460ff1690565b6000828152600760205260409020546001600160a01b03163303610c9e5760405162461bcd60e51b815260206004820152601d60248201527f4f776e65722063616e6e6f7420627579207468652070726f706572747900000060448201526064016104da565b600082815260096020526040902054811015610d195760405162461bcd60e51b815260206004820152603460248201527f596f7520626964207072696365206973206c6f776572207468616e20746865206044820152737461726765742073656c6c696e6720707269636560601b60648201526084016104da565b6000610d24836105cc565b9050610d31813385610e7a565b50506000908152600a60205260409020805460ff19169055565b6000818152600260205260409020546001600160a01b0316610daa5760405162461bcd60e51b8152602060048201526018602482015277115490cdcc8c4e881a5b9d985b1a59081d1bdad95b88125160421b60448201526064016104da565b50565b600081815260046020526040902080546001600160a01b0319166001600160a01b0384169081179091558190610de2826105cc565b6001600160a01b03167f8c5be1e5ebec7d5bd14f71427d1e84f3dd0314c0f7b2291e5b200ac8c7c3b92560405160405180910390a45050565b600080610e27836105cc565b9050806001600160a01b0316846001600160a01b03161480610e4e5750610e4e8185610c0a565b80610e725750836001600160a01b0316610e678461043f565b6001600160a01b0316145b949350505050565b826001600160a01b0316610e8d826105cc565b6001600160a01b031614610ef15760405162461bcd60e51b815260206004820152602560248201527f4552433732313a207472616e736665722066726f6d20696e636f72726563742060448201526437bbb732b960d91b60648201526084016104da565b6001600160a01b038216610f535760405162461bcd60e51b8152602060048201526024808201527f4552433732313a207472616e7366657220746f20746865207a65726f206164646044820152637265737360e01b60648201526084016104da565b610f5e600082610dad565b6001600160a01b0383166000908152600360205260408120805460019290610f87908490611a76565b90915550506001600160a01b0382166000908152600360205260408120805460019290610fb5908490611a89565b909155505060008181526002602052604080822080546001600160a01b0319166001600160a01b0386811691821790925591518493918716917fddf252ad1be2c89b69c2b068fc378daa952ba7f163c4a11628f55a4df523b3ef91a4505050565b6001600160a01b03821661106c5760405162461bcd60e51b815260206004820181905260248201527f4552433732313a206d696e7420746f20746865207a65726f206164647265737360448201526064016104da565b6000818152600260205260409020546001600160a01b0316156110d15760405162461bcd60e51b815260206004820152601c60248201527f4552433732313a20746f6b656e20616c7265616479206d696e7465640000000060448201526064016104da565b6001600160a01b03821660009081526003602052604081208054600192906110fa908490611a89565b909155505060008181526002602052604080822080546001600160a01b0319166001600160a01b03861690811790915590518392907fddf252ad1be2c89b69c2b068fc378daa952ba7f163c4a11628f55a4df523b3ef908290a45050565b816001600160a01b0316836001600160a01b0316036111b95760405162461bcd60e51b815260206004820152601960248201527f4552433732313a20617070726f766520746f2063616c6c65720000000000000060448201526064016104da565b6001600160a01b03838116600081815260056020908152604080832094871680845294825291829020805460ff191686151590811790915591519182527f17307eab39ab6107e8899845ad3d59bd9653f200f220920489ca2b5937696c31910160405180910390a3505050565b611231848484610e7a565b61123d8484848461135a565b6108ba5760405162461bcd60e51b81526004016104da90611a9c565b6060816000036112805750506040805180820190915260018152600360fc1b602082015290565b8160005b81156112aa578061129481611aee565b91506112a39050600a83611b1d565b9150611284565b60008167ffffffffffffffff8111156112c5576112c56115a7565b6040519080825280601f01601f1916602001820160405280156112ef576020820181803683370190505b5090505b8415610e7257611304600183611a76565b9150611311600a86611b31565b61131c906030611a89565b60f81b81838151811061133157611331611b45565b60200101906001600160f81b031916908160001a905350611353600a86611b1d565b94506112f3565b60006001600160a01b0384163b1561145057604051630a85bd0160e11b81526001600160a01b0385169063150b7a029061139e903390899088908890600401611b5b565b6020604051808303816000875af19250505080156113d9575060408051601f3d908101601f191682019092526113d691810190611b98565b60015b611436573d808015611407576040519150601f19603f3d011682016040523d82523d6000602084013e61140c565b606091505b50805160000361142e5760405162461bcd60e51b81526004016104da90611a9c565b805181602001fd5b6001600160e01b031916630a85bd0160e11b149050610e72565b506001949350505050565b6001600160e01b031981168114610daa57600080fd5b60006020828403121561148357600080fd5b813561092d8161145b565b60005b838110156114a9578181015183820152602001611491565b50506000910152565b600081518084526114ca81602086016020860161148e565b601f01601f19169290920160200192915050565b60208152600061092d60208301846114b2565b60006020828403121561150357600080fd5b5035919050565b80356001600160a01b038116811461152157600080fd5b919050565b6000806040838503121561153957600080fd5b6115428361150a565b946020939093013593505050565b60008060006060848603121561156557600080fd5b61156e8461150a565b925061157c6020850161150a565b9150604084013590509250925092565b60006020828403121561159e57600080fd5b61092d8261150a565b634e487b7160e01b600052604160045260246000fd5b600067ffffffffffffffff808411156115d8576115d86115a7565b604051601f8501601f19908116603f01168101908282118183101715611600576116006115a7565b8160405280935085815286868601111561161957600080fd5b858560208301376000602087830101525050509392505050565b600082601f83011261164457600080fd5b61092d838335602085016115bd565b60008060008060008060c0878903121561166c57600080fd5b863567ffffffffffffffff8082111561168457600080fd5b6116908a838b01611633565b975060208901359150808211156116a657600080fd5b6116b28a838b01611633565b965060408901359150808211156116c857600080fd5b6116d48a838b01611633565b955060608901359150808211156116ea57600080fd5b6116f68a838b01611633565b9450608089013591508082111561170c57600080fd5b5061171989828a01611633565b92505060a087013590509295509295509295565b6000806040838503121561174057600080fd5b6117498361150a565b91506020830135801515811461175e57600080fd5b809150509250929050565b6000806000806080858703121561177f57600080fd5b6117888561150a565b93506117966020860161150a565b925060408501359150606085013567ffffffffffffffff8111156117b957600080fd5b8501601f810187136117ca57600080fd5b6117d9878235602084016115bd565b91505092959194509250565b60a0815260006117f860a08301886114b2565b828103602084015261180a81886114b2565b9050828103604084015261181e81876114b2565b9050828103606084015261183281866114b2565b9050828103608084015261086d81856114b2565b6000806040838503121561185957600080fd5b6118628361150a565b91506118706020840161150a565b90509250929050565b6000806040838503121561188c57600080fd5b50508035926020909101359150565b600181811c908216806118af57607f821691505b6020821081036118cf57634e487b7160e01b600052602260045260246000fd5b50919050565b6020808252602e908201527f4552433732313a2063616c6c6572206973206e6f7420746f6b656e206f776e6560408201526d1c881b9bdc88185c1c1c9bdd995960921b606082015260800190565b601f82111561057b57600081815260208120601f850160051c8101602086101561194a5750805b601f850160051c820191505b8181101561196957828155600101611956565b505050505050565b815167ffffffffffffffff81111561198b5761198b6115a7565b61199f81611999845461189b565b84611923565b602080601f8311600181146119d457600084156119bc5750858301515b600019600386901b1c1916600185901b178555611969565b600085815260208120601f198616915b82811015611a03578886015182559484019460019091019084016119e4565b5085821015611a215787850151600019600388901b60f8161c191681555b5050505050600190811b01905550565b60008351611a4381846020880161148e565b835190830190611a5781836020880161148e565b01949350505050565b634e487b7160e01b600052601160045260246000fd5b818103818111156103a7576103a7611a60565b808201808211156103a7576103a7611a60565b60208082526032908201527f4552433732313a207472616e7366657220746f206e6f6e20455243373231526560408201527131b2b4bb32b91034b6b83632b6b2b73a32b960711b606082015260800190565b600060018201611b0057611b00611a60565b5060010190565b634e487b7160e01b600052601260045260246000fd5b600082611b2c57611b2c611b07565b500490565b600082611b4057611b40611b07565b500690565b634e487b7160e01b600052603260045260246000fd5b6001600160a01b0385811682528416602082015260408101839052608060608201819052600090611b8e908301846114b2565b9695505050505050565b600060208284031215611baa57600080fd5b815161092d8161145b56fea264697066735822122087c3d7bf80fcd4d60fca3e8587e5036494e87cf10d3b2d72b2c509f4a3f28b0764736f6c63430008110033",
    "sourcePath": "/home/ubuntu/code/capstone/capstone_project/contracts/PropertyToken.sol",
    "compiler": {
        "name": "solc",
        "version": "0.8.17+commit.8df45f5f"
    },
    "functionHashes": {
        "_propertylist(uint256)": "cb96fb48",
        "_registerProperty(string,string,string,string,string,uint256)": "9df9db4f",
        "approve(address,uint256)": "095ea7b3",
        "balanceOf(address)": "70a08231",
        "bidProperty(uint256,uint256)": "fd508728",
        "getApproved(uint256)": "081812fc",
        "get_property_location(uint256)": "78a8353e",
        "isApprovedForAll(address,address)": "e985e9c5",
        "name()": "06fdde03",
        "ownerOf(uint256)": "6352211e",
        "safeTransferFrom(address,address,uint256)": "42842e0e",
        "safeTransferFrom(address,address,uint256,bytes)": "b88d4fde",
        "setApprovalForAll(address,bool)": "a22cb465",
        "supportsInterface(bytes4)": "01ffc9a7",
        "symbol()": "95d89b41",
        "tokenURI(uint256)": "c87b56dd",
        "transferFrom(address,address,uint256)": "23b872dd"
    },
    "gasEstimates": {
        "creation": {
            "codeDepositCost": "1429400",
            "executionCost": "infinite",
            "totalCost": "infinite"
        },
        "external": {
            "_propertylist(uint256)": "infinite",
            "_registerProperty(string,string,string,string,string,uint256)": "infinite",
            "approve(address,uint256)": "infinite",
            "balanceOf(address)": "2678",
            "bidProperty(uint256,uint256)": "infinite",
            "getApproved(uint256)": "4792",
            "get_property_location(uint256)": "infinite",
            "isApprovedForAll(address,address)": "infinite",
            "name()": "infinite",
            "ownerOf(uint256)": "2605",
            "safeTransferFrom(address,address,uint256)": "infinite",
            "safeTransferFrom(address,address,uint256,bytes)": "infinite",
            "setApprovalForAll(address,bool)": "26772",
            "supportsInterface(bytes4)": "534",
            "symbol()": "infinite",
            "tokenURI(uint256)": "infinite",
            "transferFrom(address,address,uint256)": "infinite"
        }
    }
}