{
    "contractName": "PropertyContract",
    "abi": [
        {
            "inputs": [],
            "stateMutability": "nonpayable",
            "type": "constructor"
        },
        {
            "anonymous": false,
            "inputs": [
                {
                    "indexed": true,
                    "internalType": "address",
                    "name": "owner",
                    "type": "address"
                },
                {
                    "indexed": true,
                    "internalType": "address",
                    "name": "approved",
                    "type": "address"
                },
                {
                    "indexed": true,
                    "internalType": "uint256",
                    "name": "tokenId",
                    "type": "uint256"
                }
            ],
            "name": "Approval",
            "type": "event"
        },
        {
            "anonymous": false,
            "inputs": [
                {
                    "indexed": true,
                    "internalType": "address",
                    "name": "owner",
                    "type": "address"
                },
                {
                    "indexed": true,
                    "internalType": "address",
                    "name": "operator",
                    "type": "address"
                },
                {
                    "indexed": false,
                    "internalType": "bool",
                    "name": "approved",
                    "type": "bool"
                }
            ],
            "name": "ApprovalForAll",
            "type": "event"
        },
        {
            "anonymous": false,
            "inputs": [
                {
                    "indexed": false,
                    "internalType": "address",
                    "name": "owner",
                    "type": "address"
                }
            ],
            "name": "ContractOwnerShipTransferred",
            "type": "event"
        },
        {
            "anonymous": false,
            "inputs": [
                {
                    "indexed": true,
                    "internalType": "address",
                    "name": "from",
                    "type": "address"
                },
                {
                    "indexed": true,
                    "internalType": "address",
                    "name": "to",
                    "type": "address"
                },
                {
                    "indexed": true,
                    "internalType": "uint256",
                    "name": "tokenId",
                    "type": "uint256"
                }
            ],
            "name": "Transfer",
            "type": "event"
        },
        {
            "inputs": [
                {
                    "internalType": "uint256",
                    "name": "",
                    "type": "uint256"
                }
            ],
            "name": "_propertylist",
            "outputs": [
                {
                    "internalType": "string",
                    "name": "location",
                    "type": "string"
                },
                {
                    "internalType": "string",
                    "name": "unit_block",
                    "type": "string"
                },
                {
                    "internalType": "string",
                    "name": "unit_floor",
                    "type": "string"
                },
                {
                    "internalType": "string",
                    "name": "unit_flat",
                    "type": "string"
                },
                {
                    "internalType": "string",
                    "name": "prop_id",
                    "type": "string"
                }
            ],
            "stateMutability": "view",
            "type": "function"
        },
        {
            "inputs": [
                {
                    "internalType": "address",
                    "name": "to",
                    "type": "address"
                },
                {
                    "internalType": "uint256",
                    "name": "tokenId",
                    "type": "uint256"
                }
            ],
            "name": "approve",
            "outputs": [],
            "stateMutability": "nonpayable",
            "type": "function"
        },
        {
            "inputs": [
                {
                    "internalType": "address",
                    "name": "owner",
                    "type": "address"
                }
            ],
            "name": "balanceOf",
            "outputs": [
                {
                    "internalType": "uint256",
                    "name": "",
                    "type": "uint256"
                }
            ],
            "stateMutability": "view",
            "type": "function"
        },
        {
            "inputs": [
                {
                    "internalType": "uint256",
                    "name": "tokenId",
                    "type": "uint256"
                },
                {
                    "internalType": "uint256",
                    "name": "bidPrice",
                    "type": "uint256"
                }
            ],
            "name": "bidProperty",
            "outputs": [],
            "stateMutability": "payable",
            "type": "function"
        },
        {
            "inputs": [
                {
                    "internalType": "uint256",
                    "name": "tokenId",
                    "type": "uint256"
                }
            ],
            "name": "getApproved",
            "outputs": [
                {
                    "internalType": "address",
                    "name": "",
                    "type": "address"
                }
            ],
            "stateMutability": "view",
            "type": "function"
        },
        {
            "inputs": [
                {
                    "internalType": "uint256",
                    "name": "tokenId",
                    "type": "uint256"
                }
            ],
            "name": "get_property_location",
            "outputs": [
                {
                    "internalType": "string",
                    "name": "",
                    "type": "string"
                }
            ],
            "stateMutability": "view",
            "type": "function"
        },
        {
            "inputs": [
                {
                    "internalType": "address",
                    "name": "owner",
                    "type": "address"
                },
                {
                    "internalType": "address",
                    "name": "operator",
                    "type": "address"
                }
            ],
            "name": "isApprovedForAll",
            "outputs": [
                {
                    "internalType": "bool",
                    "name": "",
                    "type": "bool"
                }
            ],
            "stateMutability": "view",
            "type": "function"
        },
        {
            "inputs": [],
            "name": "name",
            "outputs": [
                {
                    "internalType": "string",
                    "name": "",
                    "type": "string"
                }
            ],
            "stateMutability": "view",
            "type": "function"
        },
        {
            "inputs": [
                {
                    "internalType": "uint256",
                    "name": "tokenId",
                    "type": "uint256"
                }
            ],
            "name": "ownerOf",
            "outputs": [
                {
                    "internalType": "address",
                    "name": "",
                    "type": "address"
                }
            ],
            "stateMutability": "view",
            "type": "function"
        },
        {
            "inputs": [
                {
                    "internalType": "string",
                    "name": "_location",
                    "type": "string"
                },
                {
                    "internalType": "string",
                    "name": "_unit_block",
                    "type": "string"
                },
                {
                    "internalType": "string",
                    "name": "_unit_floor",
                    "type": "string"
                },
                {
                    "internalType": "string",
                    "name": "_unit_flat",
                    "type": "string"
                },
                {
                    "internalType": "string",
                    "name": "_prop_id",
                    "type": "string"
                },
                {
                    "internalType": "uint256",
                    "name": "_target_price",
                    "type": "uint256"
                }
            ],
            "name": "registerProperty",
            "outputs": [
                {
                    "internalType": "uint256",
                    "name": "",
                    "type": "uint256"
                }
            ],
            "stateMutability": "nonpayable",
            "type": "function"
        },
        {
            "inputs": [
                {
                    "internalType": "address",
                    "name": "from",
                    "type": "address"
                },
                {
                    "internalType": "address",
                    "name": "to",
                    "type": "address"
                },
                {
                    "internalType": "uint256",
                    "name": "tokenId",
                    "type": "uint256"
                }
            ],
            "name": "safeTransferFrom",
            "outputs": [],
            "stateMutability": "nonpayable",
            "type": "function"
        },
        {
            "inputs": [
                {
                    "internalType": "address",
                    "name": "from",
                    "type": "address"
                },
                {
                    "internalType": "address",
                    "name": "to",
                    "type": "address"
                },
                {
                    "internalType": "uint256",
                    "name": "tokenId",
                    "type": "uint256"
                },
                {
                    "internalType": "bytes",
                    "name": "data",
                    "type": "bytes"
                }
            ],
            "name": "safeTransferFrom",
            "outputs": [],
            "stateMutability": "nonpayable",
            "type": "function"
        },
        {
            "inputs": [
                {
                    "internalType": "address",
                    "name": "operator",
                    "type": "address"
                },
                {
                    "internalType": "bool",
                    "name": "approved",
                    "type": "bool"
                }
            ],
            "name": "setApprovalForAll",
            "outputs": [],
            "stateMutability": "nonpayable",
            "type": "function"
        },
        {
            "inputs": [
                {
                    "internalType": "uint256",
                    "name": "tokenId",
                    "type": "uint256"
                }
            ],
            "name": "set_for_sale",
            "outputs": [],
            "stateMutability": "nonpayable",
            "type": "function"
        },
        {
            "inputs": [
                {
                    "internalType": "bytes4",
                    "name": "interfaceId",
                    "type": "bytes4"
                }
            ],
            "name": "supportsInterface",
            "outputs": [
                {
                    "internalType": "bool",
                    "name": "",
                    "type": "bool"
                }
            ],
            "stateMutability": "view",
            "type": "function"
        },
        {
            "inputs": [],
            "name": "symbol",
            "outputs": [
                {
                    "internalType": "string",
                    "name": "",
                    "type": "string"
                }
            ],
            "stateMutability": "view",
            "type": "function"
        },
        {
            "inputs": [
                {
                    "internalType": "uint256",
                    "name": "tokenId",
                    "type": "uint256"
                }
            ],
            "name": "tokenURI",
            "outputs": [
                {
                    "internalType": "string",
                    "name": "",
                    "type": "string"
                }
            ],
            "stateMutability": "view",
            "type": "function"
        },
        {
            "inputs": [
                {
                    "internalType": "address",
                    "name": "from",
                    "type": "address"
                },
                {
                    "internalType": "address",
                    "name": "to",
                    "type": "address"
                },
                {
                    "internalType": "uint256",
                    "name": "tokenId",
                    "type": "uint256"
                }
            ],
            "name": "transferFrom",
            "outputs": [],
            "stateMutability": "nonpayable",
            "type": "function"
        }
    ],
    "bytecode": "60806040523480156200001157600080fd5b506040518060400160405280600e81526020016d50726f7065727479546f6b656e7360901b81525060405180604001604052806002815260200161141560f21b8152508160009081620000659190620001d1565b506001620000748282620001d1565b5050600e80546001600160a01b03191633178155604080518082019091529081526d50726f7065727479546f6b656e7360901b6020820152600c9150620000bc9082620001d1565b50604080518082019091526002815261141560f21b6020820152600d90620000e59082620001d1565b50600e546040516001600160a01b0390911681527fedc72216363839831f76919254ddbbadce2234833dfa8fb47dcdbe73035b8a609060200160405180910390a16200029d565b634e487b7160e01b600052604160045260246000fd5b600181811c908216806200015757607f821691505b6020821081036200017857634e487b7160e01b600052602260045260246000fd5b50919050565b601f821115620001cc57600081815260208120601f850160051c81016020861015620001a75750805b601f850160051c820191505b81811015620001c857828155600101620001b3565b5050505b505050565b81516001600160401b03811115620001ed57620001ed6200012c565b6200020581620001fe845462000142565b846200017e565b602080601f8311600181146200023d5760008415620002245750858301515b600019600386901b1c1916600185901b178555620001c8565b600085815260208120601f198616915b828110156200026e578886015182559484019460019091019084016200024d565b50858210156200028d5787850151600019600388901b60f8161c191681555b5050505050600190811b01905550565b611e3680620002ad6000396000f3fe6080604052600436106101095760003560e01c806378a8353e11610095578063bdd3fea011610064578063bdd3fea0146102e2578063c87b56dd14610318578063cb96fb4814610338578063e985e9c514610369578063fd5087281461038957600080fd5b806378a8353e1461026d57806395d89b411461028d578063a22cb465146102a2578063b88d4fde146102c257600080fd5b806323b872dd116100dc57806323b872dd146101bf57806342842e0e146101df578063596b8357146101ff5780636352211e1461022d57806370a082311461024d57600080fd5b806301ffc9a71461010e57806306fdde0314610143578063081812fc14610165578063095ea7b31461019d575b600080fd5b34801561011a57600080fd5b5061012e6101293660046116e5565b61039c565b60405190151581526020015b60405180910390f35b34801561014f57600080fd5b506101586103ee565b60405161013a9190611752565b34801561017157600080fd5b50610185610180366004611765565b610480565b6040516001600160a01b03909116815260200161013a565b3480156101a957600080fd5b506101bd6101b836600461179a565b6104a7565b005b3480156101cb57600080fd5b506101bd6101da3660046117c4565b6105c1565b3480156101eb57600080fd5b506101bd6101fa3660046117c4565b6105f2565b34801561020b57600080fd5b5061021f61021a3660046118ac565b61060d565b60405190815260200161013a565b34801561023957600080fd5b50610185610248366004611765565b61077d565b34801561025957600080fd5b5061021f610268366004611986565b6107dd565b34801561027957600080fd5b50610158610288366004611765565b610863565b34801561029957600080fd5b50610158610907565b3480156102ae57600080fd5b506101bd6102bd3660046119a1565b610916565b3480156102ce57600080fd5b506101bd6102dd3660046119dd565b610925565b3480156102ee57600080fd5b506101bd6102fd366004611765565b6000908152600a60205260409020805460ff19166001179055565b34801561032457600080fd5b50610158610333366004611765565b61095d565b34801561034457600080fd5b50610358610353366004611765565b6109d1565b60405161013a959493929190611a59565b34801561037557600080fd5b5061012e610384366004611aba565b610ca7565b6101bd610397366004611aed565b610cd5565b60006001600160e01b031982166380ac58cd60e01b14806103cd57506001600160e01b03198216635b5e139f60e01b145b806103e857506301ffc9a760e01b6001600160e01b03198316145b92915050565b6060600080546103fd90611b0f565b80601f016020809104026020016040519081016040528092919081815260200182805461042990611b0f565b80156104765780601f1061044b57610100808354040283529160200191610476565b820191906000526020600020905b81548152906001019060200180831161045957829003601f168201915b5050505050905090565b600061048b82610ea1565b506000908152600460205260409020546001600160a01b031690565b60006104b28261077d565b9050806001600160a01b0316836001600160a01b0316036105245760405162461bcd60e51b815260206004820152602160248201527f4552433732313a20617070726f76616c20746f2063757272656e74206f776e656044820152603960f91b60648201526084015b60405180910390fd5b336001600160a01b038216148061054057506105408133610ca7565b6105b25760405162461bcd60e51b815260206004820152603d60248201527f4552433732313a20617070726f76652063616c6c6572206973206e6f7420746f60448201527f6b656e206f776e6572206f7220617070726f76656420666f7220616c6c000000606482015260840161051b565b6105bc8383610f03565b505050565b6105cb3382610f71565b6105e75760405162461bcd60e51b815260040161051b90611b49565b6105bc838383610fd0565b6105bc83838360405180602001604052806000815250610925565b600e546000906001600160a01b0316331461066a5760405162461bcd60e51b815260206004820181905260248201527f4f6e6c79206f776e65722063616e2072656769737465722070726f7065727479604482015260640161051b565b60006040518060a0016040528089815260200188815260200187815260200186815260200185815250905060006106a060065490565b60008181526008602052604090208351919250839181906106c19082611be4565b50602082015160018201906106d69082611be4565b50604082015160028201906106eb9082611be4565b50606082015160038201906107009082611be4565b50608082015160048201906107159082611be4565b505050600081815260076020908152604080832080546001600160a01b0319163390811790915560098352818420889055600a909252909120805460ff191660011790556107639082611141565b610771600680546001019055565b98975050505050505050565b6000818152600260205260408120546001600160a01b0316806103e85760405162461bcd60e51b8152602060048201526018602482015277115490cdcc8c4e881a5b9d985b1a59081d1bdad95b88125160421b604482015260640161051b565b60006001600160a01b0382166108475760405162461bcd60e51b815260206004820152602960248201527f4552433732313a2061646472657373207a65726f206973206e6f7420612076616044820152683634b21037bbb732b960b91b606482015260840161051b565b506001600160a01b031660009081526003602052604090205490565b60008181526008602052604081208054606092919061088190611b0f565b80601f01602080910402602001604051908101604052809291908181526020018280546108ad90611b0f565b80156108fa5780601f106108cf576101008083540402835291602001916108fa565b820191906000526020600020905b8154815290600101906020018083116108dd57829003601f168201915b5093979650505050505050565b6060600180546103fd90611b0f565b6109213383836112da565b5050565b61092f3383610f71565b61094b5760405162461bcd60e51b815260040161051b90611b49565b610957848484846113a8565b50505050565b606061096882610ea1565b600061097f60408051602081019091526000815290565b9050600081511161099f57604051806020016040528060008152506109ca565b806109a9846113db565b6040516020016109ba929190611ca4565b6040516020818303038152906040525b9392505050565b6008602052600090815260409020805481906109ec90611b0f565b80601f0160208091040260200160405190810160405280929190818152602001828054610a1890611b0f565b8015610a655780601f10610a3a57610100808354040283529160200191610a65565b820191906000526020600020905b815481529060010190602001808311610a4857829003601f168201915b505050505090806001018054610a7a90611b0f565b80601f0160208091040260200160405190810160405280929190818152602001828054610aa690611b0f565b8015610af35780601f10610ac857610100808354040283529160200191610af3565b820191906000526020600020905b815481529060010190602001808311610ad657829003601f168201915b505050505090806002018054610b0890611b0f565b80601f0160208091040260200160405190810160405280929190818152602001828054610b3490611b0f565b8015610b815780601f10610b5657610100808354040283529160200191610b81565b820191906000526020600020905b815481529060010190602001808311610b6457829003601f168201915b505050505090806003018054610b9690611b0f565b80601f0160208091040260200160405190810160405280929190818152602001828054610bc290611b0f565b8015610c0f5780601f10610be457610100808354040283529160200191610c0f565b820191906000526020600020905b815481529060010190602001808311610bf257829003601f168201915b505050505090806004018054610c2490611b0f565b80601f0160208091040260200160405190810160405280929190818152602001828054610c5090611b0f565b8015610c9d5780601f10610c7257610100808354040283529160200191610c9d565b820191906000526020600020905b815481529060010190602001808311610c8057829003601f168201915b5050505050905085565b6001600160a01b03918216600090815260056020908152604080832093909416825291909152205460ff1690565b6000828152600760205260409020546001600160a01b03163303610d3b5760405162461bcd60e51b815260206004820152601d60248201527f4f776e65722063616e6e6f7420627579207468652070726f7065727479000000604482015260640161051b565b600082815260096020526040902054811015610db65760405162461bcd60e51b815260206004820152603460248201527f596f7520626964207072696365206973206c6f776572207468616e20746865206044820152737461726765742073656c6c696e6720707269636560601b606482015260840161051b565b6000828152600a602052604090205460ff161515600114610e255760405162461bcd60e51b815260206004820152602360248201527f50726f7065727479206e6f7420666f722073616c6520617420746865206d6f6d604482015262195b9d60ea1b606482015260840161051b565b6000610e308361077d565b9050610e3d813385610fd0565b6000838152600a60209081526040808320805460ff19169055600790915280822080546001600160a01b03191633179055516001600160a01b038316913480156108fc02929091818181858888f19350505050158015610957573d6000803e3d6000fd5b6000818152600260205260409020546001600160a01b0316610f005760405162461bcd60e51b8152602060048201526018602482015277115490cdcc8c4e881a5b9d985b1a59081d1bdad95b88125160421b604482015260640161051b565b50565b600081815260046020526040902080546001600160a01b0319166001600160a01b0384169081179091558190610f388261077d565b6001600160a01b03167f8c5be1e5ebec7d5bd14f71427d1e84f3dd0314c0f7b2291e5b200ac8c7c3b92560405160405180910390a45050565b600080610f7d8361077d565b9050806001600160a01b0316846001600160a01b03161480610fa45750610fa48185610ca7565b80610fc85750836001600160a01b0316610fbd84610480565b6001600160a01b0316145b949350505050565b826001600160a01b0316610fe38261077d565b6001600160a01b0316146110095760405162461bcd60e51b815260040161051b90611cd3565b6001600160a01b03821661106b5760405162461bcd60e51b8152602060048201526024808201527f4552433732313a207472616e7366657220746f20746865207a65726f206164646044820152637265737360e01b606482015260840161051b565b611078838383600161146e565b826001600160a01b031661108b8261077d565b6001600160a01b0316146110b15760405162461bcd60e51b815260040161051b90611cd3565b600081815260046020908152604080832080546001600160a01b03199081169091556001600160a01b0387811680865260038552838620805460001901905590871680865283862080546001019055868652600290945282852080549092168417909155905184937fddf252ad1be2c89b69c2b068fc378daa952ba7f163c4a11628f55a4df523b3ef91a4505050565b6001600160a01b0382166111975760405162461bcd60e51b815260206004820181905260248201527f4552433732313a206d696e7420746f20746865207a65726f2061646472657373604482015260640161051b565b6000818152600260205260409020546001600160a01b0316156111fc5760405162461bcd60e51b815260206004820152601c60248201527f4552433732313a20746f6b656e20616c7265616479206d696e74656400000000604482015260640161051b565b61120a60008383600161146e565b6000818152600260205260409020546001600160a01b03161561126f5760405162461bcd60e51b815260206004820152601c60248201527f4552433732313a20746f6b656e20616c7265616479206d696e74656400000000604482015260640161051b565b6001600160a01b038216600081815260036020908152604080832080546001019055848352600290915280822080546001600160a01b0319168417905551839291907fddf252ad1be2c89b69c2b068fc378daa952ba7f163c4a11628f55a4df523b3ef908290a45050565b816001600160a01b0316836001600160a01b03160361133b5760405162461bcd60e51b815260206004820152601960248201527f4552433732313a20617070726f766520746f2063616c6c657200000000000000604482015260640161051b565b6001600160a01b03838116600081815260056020908152604080832094871680845294825291829020805460ff191686151590811790915591519182527f17307eab39ab6107e8899845ad3d59bd9653f200f220920489ca2b5937696c31910160405180910390a3505050565b6113b3848484610fd0565b6113bf848484846114f6565b6109575760405162461bcd60e51b815260040161051b90611d18565b606060006113e8836115f7565b600101905060008167ffffffffffffffff81111561140857611408611800565b6040519080825280601f01601f191660200182016040528015611432576020820181803683370190505b5090508181016020015b600019016f181899199a1a9b1b9c1cb0b131b232b360811b600a86061a8153600a850494508461143c57509392505050565b6001811115610957576001600160a01b038416156114b4576001600160a01b038416600090815260036020526040812080548392906114ae908490611d80565b90915550505b6001600160a01b03831615610957576001600160a01b038316600090815260036020526040812080548392906114eb908490611d93565b909155505050505050565b60006001600160a01b0384163b156115ec57604051630a85bd0160e11b81526001600160a01b0385169063150b7a029061153a903390899088908890600401611da6565b6020604051808303816000875af1925050508015611575575060408051601f3d908101601f1916820190925261157291810190611de3565b60015b6115d2573d8080156115a3576040519150601f19603f3d011682016040523d82523d6000602084013e6115a8565b606091505b5080516000036115ca5760405162461bcd60e51b815260040161051b90611d18565b805181602001fd5b6001600160e01b031916630a85bd0160e11b149050610fc8565b506001949350505050565b60008072184f03e93ff9f4daa797ed6e38ed64bf6a1f0160401b83106116365772184f03e93ff9f4daa797ed6e38ed64bf6a1f0160401b830492506040015b6d04ee2d6d415b85acef81000000008310611662576d04ee2d6d415b85acef8100000000830492506020015b662386f26fc10000831061168057662386f26fc10000830492506010015b6305f5e1008310611698576305f5e100830492506008015b61271083106116ac57612710830492506004015b606483106116be576064830492506002015b600a83106103e85760010192915050565b6001600160e01b031981168114610f0057600080fd5b6000602082840312156116f757600080fd5b81356109ca816116cf565b60005b8381101561171d578181015183820152602001611705565b50506000910152565b6000815180845261173e816020860160208601611702565b601f01601f19169290920160200192915050565b6020815260006109ca6020830184611726565b60006020828403121561177757600080fd5b5035919050565b80356001600160a01b038116811461179557600080fd5b919050565b600080604083850312156117ad57600080fd5b6117b68361177e565b946020939093013593505050565b6000806000606084860312156117d957600080fd5b6117e28461177e565b92506117f06020850161177e565b9150604084013590509250925092565b634e487b7160e01b600052604160045260246000fd5b600067ffffffffffffffff8084111561183157611831611800565b604051601f8501601f19908116603f0116810190828211818310171561185957611859611800565b8160405280935085815286868601111561187257600080fd5b858560208301376000602087830101525050509392505050565b600082601f83011261189d57600080fd5b6109ca83833560208501611816565b60008060008060008060c087890312156118c557600080fd5b863567ffffffffffffffff808211156118dd57600080fd5b6118e98a838b0161188c565b975060208901359150808211156118ff57600080fd5b61190b8a838b0161188c565b9650604089013591508082111561192157600080fd5b61192d8a838b0161188c565b9550606089013591508082111561194357600080fd5b61194f8a838b0161188c565b9450608089013591508082111561196557600080fd5b5061197289828a0161188c565b92505060a087013590509295509295509295565b60006020828403121561199857600080fd5b6109ca8261177e565b600080604083850312156119b457600080fd5b6119bd8361177e565b9150602083013580151581146119d257600080fd5b809150509250929050565b600080600080608085870312156119f357600080fd5b6119fc8561177e565b9350611a0a6020860161177e565b925060408501359150606085013567ffffffffffffffff811115611a2d57600080fd5b8501601f81018713611a3e57600080fd5b611a4d87823560208401611816565b91505092959194509250565b60a081526000611a6c60a0830188611726565b8281036020840152611a7e8188611726565b90508281036040840152611a928187611726565b90508281036060840152611aa68186611726565b905082810360808401526107718185611726565b60008060408385031215611acd57600080fd5b611ad68361177e565b9150611ae46020840161177e565b90509250929050565b60008060408385031215611b0057600080fd5b50508035926020909101359150565b600181811c90821680611b2357607f821691505b602082108103611b4357634e487b7160e01b600052602260045260246000fd5b50919050565b6020808252602d908201527f4552433732313a2063616c6c6572206973206e6f7420746f6b656e206f776e6560408201526c1c881bdc88185c1c1c9bdd9959609a1b606082015260800190565b601f8211156105bc57600081815260208120601f850160051c81016020861015611bbd5750805b601f850160051c820191505b81811015611bdc57828155600101611bc9565b505050505050565b815167ffffffffffffffff811115611bfe57611bfe611800565b611c1281611c0c8454611b0f565b84611b96565b602080601f831160018114611c475760008415611c2f5750858301515b600019600386901b1c1916600185901b178555611bdc565b600085815260208120601f198616915b82811015611c7657888601518255948401946001909101908401611c57565b5085821015611c945787850151600019600388901b60f8161c191681555b5050505050600190811b01905550565b60008351611cb6818460208801611702565b835190830190611cca818360208801611702565b01949350505050565b60208082526025908201527f4552433732313a207472616e736665722066726f6d20696e636f72726563742060408201526437bbb732b960d91b606082015260800190565b60208082526032908201527f4552433732313a207472616e7366657220746f206e6f6e20455243373231526560408201527131b2b4bb32b91034b6b83632b6b2b73a32b960711b606082015260800190565b634e487b7160e01b600052601160045260246000fd5b818103818111156103e8576103e8611d6a565b808201808211156103e8576103e8611d6a565b6001600160a01b0385811682528416602082015260408101839052608060608201819052600090611dd990830184611726565b9695505050505050565b600060208284031215611df557600080fd5b81516109ca816116cf56fea26469706673582212207fca9771def7124705ced26be6f51ae81ff2e1a3bca8cd2c1c54f3940512a5b464736f6c63430008110033",
    "sourcePath": "/home/ubuntu/code/capstone/capstone_project/contracts/PropertyToken.sol",
    "compiler": {
        "name": "solc",
        "version": "0.8.17+commit.8df45f5f"
    },
    "functionHashes": {
        "_propertylist(uint256)": "cb96fb48",
        "approve(address,uint256)": "095ea7b3",
        "balanceOf(address)": "70a08231",
        "bidProperty(uint256,uint256)": "fd508728",
        "getApproved(uint256)": "081812fc",
        "get_property_location(uint256)": "78a8353e",
        "isApprovedForAll(address,address)": "e985e9c5",
        "name()": "06fdde03",
        "ownerOf(uint256)": "6352211e",
        "registerProperty(string,string,string,string,string,uint256)": "596b8357",
        "safeTransferFrom(address,address,uint256)": "42842e0e",
        "safeTransferFrom(address,address,uint256,bytes)": "b88d4fde",
        "setApprovalForAll(address,bool)": "a22cb465",
        "set_for_sale(uint256)": "bdd3fea0",
        "supportsInterface(bytes4)": "01ffc9a7",
        "symbol()": "95d89b41",
        "tokenURI(uint256)": "c87b56dd",
        "transferFrom(address,address,uint256)": "23b872dd"
    },
    "gasEstimates": {
        "creation": {
            "codeDepositCost": "1546800",
            "executionCost": "infinite",
            "totalCost": "infinite"
        },
        "external": {
            "_propertylist(uint256)": "infinite",
            "approve(address,uint256)": "infinite",
            "balanceOf(address)": "2700",
            "bidProperty(uint256,uint256)": "infinite",
            "getApproved(uint256)": "4792",
            "get_property_location(uint256)": "infinite",
            "isApprovedForAll(address,address)": "infinite",
            "name()": "infinite",
            "ownerOf(uint256)": "2627",
            "registerProperty(string,string,string,string,string,uint256)": "infinite",
            "safeTransferFrom(address,address,uint256)": "infinite",
            "safeTransferFrom(address,address,uint256,bytes)": "infinite",
            "setApprovalForAll(address,bool)": "26750",
            "set_for_sale(uint256)": "24521",
            "supportsInterface(bytes4)": "534",
            "symbol()": "infinite",
            "tokenURI(uint256)": "infinite",
            "transferFrom(address,address,uint256)": "infinite"
        }
    }
}