{
    "contractName": "PropertyContract",
    "abi": [
        {
            "inputs": [
                {
                    "internalType": "string",
                    "name": "name_",
                    "type": "string"
                },
                {
                    "internalType": "string",
                    "name": "symbol_",
                    "type": "string"
                }
            ],
            "stateMutability": "nonpayable",
            "type": "constructor"
        },
        {
            "anonymous": false,
            "inputs": [
                {
                    "indexed": true,
                    "internalType": "address",
                    "name": "owner",
                    "type": "address"
                },
                {
                    "indexed": true,
                    "internalType": "address",
                    "name": "approved",
                    "type": "address"
                },
                {
                    "indexed": true,
                    "internalType": "uint256",
                    "name": "tokenId",
                    "type": "uint256"
                }
            ],
            "name": "Approval",
            "type": "event"
        },
        {
            "anonymous": false,
            "inputs": [
                {
                    "indexed": true,
                    "internalType": "address",
                    "name": "owner",
                    "type": "address"
                },
                {
                    "indexed": true,
                    "internalType": "address",
                    "name": "operator",
                    "type": "address"
                },
                {
                    "indexed": false,
                    "internalType": "bool",
                    "name": "approved",
                    "type": "bool"
                }
            ],
            "name": "ApprovalForAll",
            "type": "event"
        },
        {
            "anonymous": false,
            "inputs": [
                {
                    "indexed": false,
                    "internalType": "address",
                    "name": "owner",
                    "type": "address"
                }
            ],
            "name": "ContractOwnerShipTransferred",
            "type": "event"
        },
        {
            "anonymous": false,
            "inputs": [
                {
                    "indexed": true,
                    "internalType": "address",
                    "name": "from",
                    "type": "address"
                },
                {
                    "indexed": true,
                    "internalType": "address",
                    "name": "to",
                    "type": "address"
                },
                {
                    "indexed": true,
                    "internalType": "uint256",
                    "name": "tokenId",
                    "type": "uint256"
                }
            ],
            "name": "Transfer",
            "type": "event"
        },
        {
            "inputs": [
                {
                    "internalType": "uint256",
                    "name": "",
                    "type": "uint256"
                }
            ],
            "name": "_propertylist",
            "outputs": [
                {
                    "internalType": "string",
                    "name": "location",
                    "type": "string"
                },
                {
                    "internalType": "string",
                    "name": "unit_block",
                    "type": "string"
                },
                {
                    "internalType": "string",
                    "name": "unit_floor",
                    "type": "string"
                },
                {
                    "internalType": "string",
                    "name": "unit_flat",
                    "type": "string"
                },
                {
                    "internalType": "string",
                    "name": "prop_id",
                    "type": "string"
                }
            ],
            "stateMutability": "view",
            "type": "function"
        },
        {
            "inputs": [
                {
                    "internalType": "uint256",
                    "name": "tokenId",
                    "type": "uint256"
                }
            ],
            "name": "_set_for_sale",
            "outputs": [],
            "stateMutability": "nonpayable",
            "type": "function"
        },
        {
            "inputs": [
                {
                    "internalType": "address",
                    "name": "to",
                    "type": "address"
                },
                {
                    "internalType": "uint256",
                    "name": "tokenId",
                    "type": "uint256"
                }
            ],
            "name": "approve",
            "outputs": [],
            "stateMutability": "nonpayable",
            "type": "function"
        },
        {
            "inputs": [
                {
                    "internalType": "address",
                    "name": "owner",
                    "type": "address"
                }
            ],
            "name": "balanceOf",
            "outputs": [
                {
                    "internalType": "uint256",
                    "name": "",
                    "type": "uint256"
                }
            ],
            "stateMutability": "view",
            "type": "function"
        },
        {
            "inputs": [
                {
                    "internalType": "uint256",
                    "name": "tokenId",
                    "type": "uint256"
                },
                {
                    "internalType": "uint256",
                    "name": "bidPrice",
                    "type": "uint256"
                }
            ],
            "name": "bidProperty",
            "outputs": [],
            "stateMutability": "payable",
            "type": "function"
        },
        {
            "inputs": [
                {
                    "internalType": "uint256",
                    "name": "tokenId",
                    "type": "uint256"
                }
            ],
            "name": "getApproved",
            "outputs": [
                {
                    "internalType": "address",
                    "name": "",
                    "type": "address"
                }
            ],
            "stateMutability": "view",
            "type": "function"
        },
        {
            "inputs": [
                {
                    "internalType": "uint256",
                    "name": "tokenId",
                    "type": "uint256"
                }
            ],
            "name": "get_property_location",
            "outputs": [
                {
                    "internalType": "string",
                    "name": "",
                    "type": "string"
                }
            ],
            "stateMutability": "view",
            "type": "function"
        },
        {
            "inputs": [
                {
                    "internalType": "address",
                    "name": "owner",
                    "type": "address"
                },
                {
                    "internalType": "address",
                    "name": "operator",
                    "type": "address"
                }
            ],
            "name": "isApprovedForAll",
            "outputs": [
                {
                    "internalType": "bool",
                    "name": "",
                    "type": "bool"
                }
            ],
            "stateMutability": "view",
            "type": "function"
        },
        {
            "inputs": [],
            "name": "name",
            "outputs": [
                {
                    "internalType": "string",
                    "name": "",
                    "type": "string"
                }
            ],
            "stateMutability": "view",
            "type": "function"
        },
        {
            "inputs": [
                {
                    "internalType": "uint256",
                    "name": "tokenId",
                    "type": "uint256"
                }
            ],
            "name": "ownerOf",
            "outputs": [
                {
                    "internalType": "address",
                    "name": "",
                    "type": "address"
                }
            ],
            "stateMutability": "view",
            "type": "function"
        },
        {
            "inputs": [
                {
                    "internalType": "string",
                    "name": "_location",
                    "type": "string"
                },
                {
                    "internalType": "string",
                    "name": "_unit_block",
                    "type": "string"
                },
                {
                    "internalType": "string",
                    "name": "_unit_floor",
                    "type": "string"
                },
                {
                    "internalType": "string",
                    "name": "_unit_flat",
                    "type": "string"
                },
                {
                    "internalType": "string",
                    "name": "_prop_id",
                    "type": "string"
                },
                {
                    "internalType": "uint256",
                    "name": "_target_price",
                    "type": "uint256"
                }
            ],
            "name": "registerProperty",
            "outputs": [
                {
                    "internalType": "uint256",
                    "name": "",
                    "type": "uint256"
                }
            ],
            "stateMutability": "nonpayable",
            "type": "function"
        },
        {
            "inputs": [
                {
                    "internalType": "address",
                    "name": "from",
                    "type": "address"
                },
                {
                    "internalType": "address",
                    "name": "to",
                    "type": "address"
                },
                {
                    "internalType": "uint256",
                    "name": "tokenId",
                    "type": "uint256"
                }
            ],
            "name": "safeTransferFrom",
            "outputs": [],
            "stateMutability": "nonpayable",
            "type": "function"
        },
        {
            "inputs": [
                {
                    "internalType": "address",
                    "name": "from",
                    "type": "address"
                },
                {
                    "internalType": "address",
                    "name": "to",
                    "type": "address"
                },
                {
                    "internalType": "uint256",
                    "name": "tokenId",
                    "type": "uint256"
                },
                {
                    "internalType": "bytes",
                    "name": "data",
                    "type": "bytes"
                }
            ],
            "name": "safeTransferFrom",
            "outputs": [],
            "stateMutability": "nonpayable",
            "type": "function"
        },
        {
            "inputs": [
                {
                    "internalType": "address",
                    "name": "operator",
                    "type": "address"
                },
                {
                    "internalType": "bool",
                    "name": "approved",
                    "type": "bool"
                }
            ],
            "name": "setApprovalForAll",
            "outputs": [],
            "stateMutability": "nonpayable",
            "type": "function"
        },
        {
            "inputs": [
                {
                    "internalType": "uint256",
                    "name": "tokenId",
                    "type": "uint256"
                },
                {
                    "internalType": "string",
                    "name": "URI",
                    "type": "string"
                }
            ],
            "name": "setTokenURI",
            "outputs": [],
            "stateMutability": "nonpayable",
            "type": "function"
        },
        {
            "inputs": [
                {
                    "internalType": "bytes4",
                    "name": "interfaceId",
                    "type": "bytes4"
                }
            ],
            "name": "supportsInterface",
            "outputs": [
                {
                    "internalType": "bool",
                    "name": "",
                    "type": "bool"
                }
            ],
            "stateMutability": "view",
            "type": "function"
        },
        {
            "inputs": [],
            "name": "symbol",
            "outputs": [
                {
                    "internalType": "string",
                    "name": "",
                    "type": "string"
                }
            ],
            "stateMutability": "view",
            "type": "function"
        },
        {
            "inputs": [
                {
                    "internalType": "uint256",
                    "name": "tokenId",
                    "type": "uint256"
                }
            ],
            "name": "tokenURI",
            "outputs": [
                {
                    "internalType": "string",
                    "name": "",
                    "type": "string"
                }
            ],
            "stateMutability": "view",
            "type": "function"
        },
        {
            "inputs": [
                {
                    "internalType": "address",
                    "name": "from",
                    "type": "address"
                },
                {
                    "internalType": "address",
                    "name": "to",
                    "type": "address"
                },
                {
                    "internalType": "uint256",
                    "name": "tokenId",
                    "type": "uint256"
                }
            ],
            "name": "transferFrom",
            "outputs": [],
            "stateMutability": "nonpayable",
            "type": "function"
        }
    ],
    "bytecode": "60806040523480156200001157600080fd5b50604051620021c6380380620021c68339810160408190526200003491620001d6565b6040518060400160405280600e81526020016d283937b832b93a3c902a37b5b2b760911b81525060405180604001604052806002815260200161141560f21b8152508160009081620000879190620002cf565b506001620000968282620002cf565b5050600e80546001600160a01b0319163317905550600c620000b98382620002cf565b50600d620000c88282620002cf565b50600e546040516001600160a01b0390911681527fedc72216363839831f76919254ddbbadce2234833dfa8fb47dcdbe73035b8a609060200160405180910390a150506200039b565b634e487b7160e01b600052604160045260246000fd5b600082601f8301126200013957600080fd5b81516001600160401b038082111562000156576200015662000111565b604051601f8301601f19908116603f0116810190828211818310171562000181576200018162000111565b816040528381526020925086838588010111156200019e57600080fd5b600091505b83821015620001c25785820183015181830184015290820190620001a3565b600093810190920192909252949350505050565b60008060408385031215620001ea57600080fd5b82516001600160401b03808211156200020257600080fd5b620002108683870162000127565b935060208501519150808211156200022757600080fd5b50620002368582860162000127565b9150509250929050565b600181811c908216806200025557607f821691505b6020821081036200027657634e487b7160e01b600052602260045260246000fd5b50919050565b601f821115620002ca57600081815260208120601f850160051c81016020861015620002a55750805b601f850160051c820191505b81811015620002c657828155600101620002b1565b5050505b505050565b81516001600160401b03811115620002eb57620002eb62000111565b6200030381620002fc845462000240565b846200027c565b602080601f8311600181146200033b5760008415620003225750858301515b600019600386901b1c1916600185901b178555620002c6565b600085815260208120601f198616915b828110156200036c578886015182559484019460019091019084016200034b565b50858210156200038b5787850151600019600388901b60f8161c191681555b5050505050600190811b01905550565b611e1b80620003ab6000396000f3fe6080604052600436106101145760003560e01c80636f73fb6b116100a0578063b88d4fde11610064578063b88d4fde14610323578063c87b56dd14610343578063cb96fb4814610363578063e985e9c514610394578063fd508728146103b457600080fd5b80636f73fb6b1461027857806370a08231146102ae57806378a8353e146102ce57806395d89b41146102ee578063a22cb4651461030357600080fd5b8063162094c4116100e7578063162094c4146101ca57806323b872dd146101ea57806342842e0e1461020a578063596b83571461022a5780636352211e1461025857600080fd5b806301ffc9a71461011957806306fdde031461014e578063081812fc14610170578063095ea7b3146101a8575b600080fd5b34801561012557600080fd5b506101396101343660046116b5565b6103c7565b60405190151581526020015b60405180910390f35b34801561015a57600080fd5b50610163610419565b604051610145919061171f565b34801561017c57600080fd5b5061019061018b366004611732565b6104ab565b6040516001600160a01b039091168152602001610145565b3480156101b457600080fd5b506101c86101c3366004611767565b6104d2565b005b3480156101d657600080fd5b506101c86101e536600461183d565b6105ec565b3480156101f657600080fd5b506101c8610205366004611884565b61066f565b34801561021657600080fd5b506101c8610225366004611884565b6106a0565b34801561023657600080fd5b5061024a6102453660046118c0565b6106bb565b604051908152602001610145565b34801561026457600080fd5b50610190610273366004611732565b61082b565b34801561028457600080fd5b506101c8610293366004611732565b6000908152600a60205260409020805460ff19166001179055565b3480156102ba57600080fd5b5061024a6102c936600461199a565b61088b565b3480156102da57600080fd5b506101636102e9366004611732565b610911565b3480156102fa57600080fd5b506101636109b5565b34801561030f57600080fd5b506101c861031e3660046119b5565b6109c4565b34801561032f57600080fd5b506101c861033e3660046119f1565b6109d3565b34801561034f57600080fd5b5061016361035e366004611732565b610a05565b34801561036f57600080fd5b5061038361037e366004611732565b610b0c565b604051610145959493929190611a6d565b3480156103a057600080fd5b506101396103af366004611ace565b610de2565b6101c86103c2366004611b01565b610e10565b60006001600160e01b031982166380ac58cd60e01b14806103f857506001600160e01b03198216635b5e139f60e01b145b8061041357506301ffc9a760e01b6001600160e01b03198316145b92915050565b60606000805461042890611b23565b80601f016020809104026020016040519081016040528092919081815260200182805461045490611b23565b80156104a15780601f10610476576101008083540402835291602001916104a1565b820191906000526020600020905b81548152906001019060200180831161048457829003601f168201915b5050505050905090565b60006104b682610fdc565b506000908152600460205260409020546001600160a01b031690565b60006104dd8261082b565b9050806001600160a01b0316836001600160a01b03160361054f5760405162461bcd60e51b815260206004820152602160248201527f4552433732313a20617070726f76616c20746f2063757272656e74206f776e656044820152603960f91b60648201526084015b60405180910390fd5b336001600160a01b038216148061056b575061056b8133610de2565b6105dd5760405162461bcd60e51b815260206004820152603d60248201527f4552433732313a20617070726f76652063616c6c6572206973206e6f7420746f60448201527f6b656e206f776e6572206f7220617070726f76656420666f7220616c6c0000006064820152608401610546565b6105e7838361103e565b505050565b6000828152600760205260409020546001600160a01b0316806106515760405162461bcd60e51b815260206004820152601c60248201527f4552524f523a20746f6b656e206964206973206e6f742076616c6964000000006044820152606401610546565b6000838152600b602052604090206106698382611bab565b50505050565b61067933826110ac565b6106955760405162461bcd60e51b815260040161054690611c6b565b6105e783838361110b565b6105e7838383604051806020016040528060008152506109d3565b600e546000906001600160a01b031633146107185760405162461bcd60e51b815260206004820181905260248201527f4f6e6c79206f776e65722063616e2072656769737465722070726f70657274796044820152606401610546565b60006040518060a00160405280898152602001888152602001878152602001868152602001858152509050600061074e60065490565b600081815260086020526040902083519192508391819061076f9082611bab565b50602082015160018201906107849082611bab565b50604082015160028201906107999082611bab565b50606082015160038201906107ae9082611bab565b50608082015160048201906107c39082611bab565b505050600081815260076020908152604080832080546001600160a01b0319163390811790915560098352818420889055600a909252909120805460ff19166001179055610811908261127c565b61081f600680546001019055565b98975050505050505050565b6000818152600260205260408120546001600160a01b0316806104135760405162461bcd60e51b8152602060048201526018602482015277115490cdcc8c4e881a5b9d985b1a59081d1bdad95b88125160421b6044820152606401610546565b60006001600160a01b0382166108f55760405162461bcd60e51b815260206004820152602960248201527f4552433732313a2061646472657373207a65726f206973206e6f7420612076616044820152683634b21037bbb732b960b91b6064820152608401610546565b506001600160a01b031660009081526003602052604090205490565b60008181526008602052604081208054606092919061092f90611b23565b80601f016020809104026020016040519081016040528092919081815260200182805461095b90611b23565b80156109a85780601f1061097d576101008083540402835291602001916109a8565b820191906000526020600020905b81548152906001019060200180831161098b57829003601f168201915b5093979650505050505050565b60606001805461042890611b23565b6109cf338383611415565b5050565b6109dd33836110ac565b6109f95760405162461bcd60e51b815260040161054690611c6b565b610669848484846114e3565b6000818152600760205260409020546060906001600160a01b031680610a6d5760405162461bcd60e51b815260206004820152601c60248201527f4552524f523a20746f6b656e206964206973206e6f742076616c6964000000006044820152606401610546565b6000838152600b602052604090208054610a8690611b23565b80601f0160208091040260200160405190810160405280929190818152602001828054610ab290611b23565b8015610aff5780601f10610ad457610100808354040283529160200191610aff565b820191906000526020600020905b815481529060010190602001808311610ae257829003601f168201915b5050505050915050919050565b600860205260009081526040902080548190610b2790611b23565b80601f0160208091040260200160405190810160405280929190818152602001828054610b5390611b23565b8015610ba05780601f10610b7557610100808354040283529160200191610ba0565b820191906000526020600020905b815481529060010190602001808311610b8357829003601f168201915b505050505090806001018054610bb590611b23565b80601f0160208091040260200160405190810160405280929190818152602001828054610be190611b23565b8015610c2e5780601f10610c0357610100808354040283529160200191610c2e565b820191906000526020600020905b815481529060010190602001808311610c1157829003601f168201915b505050505090806002018054610c4390611b23565b80601f0160208091040260200160405190810160405280929190818152602001828054610c6f90611b23565b8015610cbc5780601f10610c9157610100808354040283529160200191610cbc565b820191906000526020600020905b815481529060010190602001808311610c9f57829003601f168201915b505050505090806003018054610cd190611b23565b80601f0160208091040260200160405190810160405280929190818152602001828054610cfd90611b23565b8015610d4a5780601f10610d1f57610100808354040283529160200191610d4a565b820191906000526020600020905b815481529060010190602001808311610d2d57829003601f168201915b505050505090806004018054610d5f90611b23565b80601f0160208091040260200160405190810160405280929190818152602001828054610d8b90611b23565b8015610dd85780601f10610dad57610100808354040283529160200191610dd8565b820191906000526020600020905b815481529060010190602001808311610dbb57829003601f168201915b5050505050905085565b6001600160a01b03918216600090815260056020908152604080832093909416825291909152205460ff1690565b6000828152600760205260409020546001600160a01b03163303610e765760405162461bcd60e51b815260206004820152601d60248201527f4f776e65722063616e6e6f7420627579207468652070726f70657274790000006044820152606401610546565b600082815260096020526040902054811015610ef15760405162461bcd60e51b815260206004820152603460248201527f596f7520626964207072696365206973206c6f776572207468616e20746865206044820152737461726765742073656c6c696e6720707269636560601b6064820152608401610546565b6000828152600a602052604090205460ff161515600114610f605760405162461bcd60e51b815260206004820152602360248201527f50726f7065727479206e6f7420666f722073616c6520617420746865206d6f6d604482015262195b9d60ea1b6064820152608401610546565b6000610f6b8361082b565b9050610f7881338561110b565b6000838152600a60209081526040808320805460ff19169055600790915280822080546001600160a01b03191633179055516001600160a01b038316913480156108fc02929091818181858888f19350505050158015610669573d6000803e3d6000fd5b6000818152600260205260409020546001600160a01b031661103b5760405162461bcd60e51b8152602060048201526018602482015277115490cdcc8c4e881a5b9d985b1a59081d1bdad95b88125160421b6044820152606401610546565b50565b600081815260046020526040902080546001600160a01b0319166001600160a01b03841690811790915581906110738261082b565b6001600160a01b03167f8c5be1e5ebec7d5bd14f71427d1e84f3dd0314c0f7b2291e5b200ac8c7c3b92560405160405180910390a45050565b6000806110b88361082b565b9050806001600160a01b0316846001600160a01b031614806110df57506110df8185610de2565b806111035750836001600160a01b03166110f8846104ab565b6001600160a01b0316145b949350505050565b826001600160a01b031661111e8261082b565b6001600160a01b0316146111445760405162461bcd60e51b815260040161054690611cb8565b6001600160a01b0382166111a65760405162461bcd60e51b8152602060048201526024808201527f4552433732313a207472616e7366657220746f20746865207a65726f206164646044820152637265737360e01b6064820152608401610546565b6111b38383836001611516565b826001600160a01b03166111c68261082b565b6001600160a01b0316146111ec5760405162461bcd60e51b815260040161054690611cb8565b600081815260046020908152604080832080546001600160a01b03199081169091556001600160a01b0387811680865260038552838620805460001901905590871680865283862080546001019055868652600290945282852080549092168417909155905184937fddf252ad1be2c89b69c2b068fc378daa952ba7f163c4a11628f55a4df523b3ef91a4505050565b6001600160a01b0382166112d25760405162461bcd60e51b815260206004820181905260248201527f4552433732313a206d696e7420746f20746865207a65726f20616464726573736044820152606401610546565b6000818152600260205260409020546001600160a01b0316156113375760405162461bcd60e51b815260206004820152601c60248201527f4552433732313a20746f6b656e20616c7265616479206d696e746564000000006044820152606401610546565b611345600083836001611516565b6000818152600260205260409020546001600160a01b0316156113aa5760405162461bcd60e51b815260206004820152601c60248201527f4552433732313a20746f6b656e20616c7265616479206d696e746564000000006044820152606401610546565b6001600160a01b038216600081815260036020908152604080832080546001019055848352600290915280822080546001600160a01b0319168417905551839291907fddf252ad1be2c89b69c2b068fc378daa952ba7f163c4a11628f55a4df523b3ef908290a45050565b816001600160a01b0316836001600160a01b0316036114765760405162461bcd60e51b815260206004820152601960248201527f4552433732313a20617070726f766520746f2063616c6c6572000000000000006044820152606401610546565b6001600160a01b03838116600081815260056020908152604080832094871680845294825291829020805460ff191686151590811790915591519182527f17307eab39ab6107e8899845ad3d59bd9653f200f220920489ca2b5937696c31910160405180910390a3505050565b6114ee84848461110b565b6114fa8484848461159e565b6106695760405162461bcd60e51b815260040161054690611cfd565b6001811115610669576001600160a01b0384161561155c576001600160a01b03841660009081526003602052604081208054839290611556908490611d65565b90915550505b6001600160a01b03831615610669576001600160a01b03831660009081526003602052604081208054839290611593908490611d78565b909155505050505050565b60006001600160a01b0384163b1561169457604051630a85bd0160e11b81526001600160a01b0385169063150b7a02906115e2903390899088908890600401611d8b565b6020604051808303816000875af192505050801561161d575060408051601f3d908101601f1916820190925261161a91810190611dc8565b60015b61167a573d80801561164b576040519150601f19603f3d011682016040523d82523d6000602084013e611650565b606091505b5080516000036116725760405162461bcd60e51b815260040161054690611cfd565b805181602001fd5b6001600160e01b031916630a85bd0160e11b149050611103565b506001949350505050565b6001600160e01b03198116811461103b57600080fd5b6000602082840312156116c757600080fd5b81356116d28161169f565b9392505050565b6000815180845260005b818110156116ff576020818501810151868301820152016116e3565b506000602082860101526020601f19601f83011685010191505092915050565b6020815260006116d260208301846116d9565b60006020828403121561174457600080fd5b5035919050565b80356001600160a01b038116811461176257600080fd5b919050565b6000806040838503121561177a57600080fd5b6117838361174b565b946020939093013593505050565b634e487b7160e01b600052604160045260246000fd5b600067ffffffffffffffff808411156117c2576117c2611791565b604051601f8501601f19908116603f011681019082821181831017156117ea576117ea611791565b8160405280935085815286868601111561180357600080fd5b858560208301376000602087830101525050509392505050565b600082601f83011261182e57600080fd5b6116d2838335602085016117a7565b6000806040838503121561185057600080fd5b82359150602083013567ffffffffffffffff81111561186e57600080fd5b61187a8582860161181d565b9150509250929050565b60008060006060848603121561189957600080fd5b6118a28461174b565b92506118b06020850161174b565b9150604084013590509250925092565b60008060008060008060c087890312156118d957600080fd5b863567ffffffffffffffff808211156118f157600080fd5b6118fd8a838b0161181d565b9750602089013591508082111561191357600080fd5b61191f8a838b0161181d565b9650604089013591508082111561193557600080fd5b6119418a838b0161181d565b9550606089013591508082111561195757600080fd5b6119638a838b0161181d565b9450608089013591508082111561197957600080fd5b5061198689828a0161181d565b92505060a087013590509295509295509295565b6000602082840312156119ac57600080fd5b6116d28261174b565b600080604083850312156119c857600080fd5b6119d18361174b565b9150602083013580151581146119e657600080fd5b809150509250929050565b60008060008060808587031215611a0757600080fd5b611a108561174b565b9350611a1e6020860161174b565b925060408501359150606085013567ffffffffffffffff811115611a4157600080fd5b8501601f81018713611a5257600080fd5b611a61878235602084016117a7565b91505092959194509250565b60a081526000611a8060a08301886116d9565b8281036020840152611a9281886116d9565b90508281036040840152611aa681876116d9565b90508281036060840152611aba81866116d9565b9050828103608084015261081f81856116d9565b60008060408385031215611ae157600080fd5b611aea8361174b565b9150611af86020840161174b565b90509250929050565b60008060408385031215611b1457600080fd5b50508035926020909101359150565b600181811c90821680611b3757607f821691505b602082108103611b5757634e487b7160e01b600052602260045260246000fd5b50919050565b601f8211156105e757600081815260208120601f850160051c81016020861015611b845750805b601f850160051c820191505b81811015611ba357828155600101611b90565b505050505050565b815167ffffffffffffffff811115611bc557611bc5611791565b611bd981611bd38454611b23565b84611b5d565b602080601f831160018114611c0e5760008415611bf65750858301515b600019600386901b1c1916600185901b178555611ba3565b600085815260208120601f198616915b82811015611c3d57888601518255948401946001909101908401611c1e565b5085821015611c5b5787850151600019600388901b60f8161c191681555b5050505050600190811b01905550565b6020808252602d908201527f4552433732313a2063616c6c6572206973206e6f7420746f6b656e206f776e6560408201526c1c881bdc88185c1c1c9bdd9959609a1b606082015260800190565b60208082526025908201527f4552433732313a207472616e736665722066726f6d20696e636f72726563742060408201526437bbb732b960d91b606082015260800190565b60208082526032908201527f4552433732313a207472616e7366657220746f206e6f6e20455243373231526560408201527131b2b4bb32b91034b6b83632b6b2b73a32b960711b606082015260800190565b634e487b7160e01b600052601160045260246000fd5b8181038181111561041357610413611d4f565b8082018082111561041357610413611d4f565b6001600160a01b0385811682528416602082015260408101839052608060608201819052600090611dbe908301846116d9565b9695505050505050565b600060208284031215611dda57600080fd5b81516116d28161169f56fea26469706673582212209eefe40e8858fd3b57b10f2f29410d52e780b7084d988af399c96b9fc047536964736f6c63430008110033",
    "sourcePath": "/home/ubuntu/code/capstone/capstone_project/contracts/PropertyToken.sol",
    "compiler": {
        "name": "solc",
        "version": "0.8.17+commit.8df45f5f"
    },
    "functionHashes": {
        "_propertylist(uint256)": "cb96fb48",
        "_set_for_sale(uint256)": "6f73fb6b",
        "approve(address,uint256)": "095ea7b3",
        "balanceOf(address)": "70a08231",
        "bidProperty(uint256,uint256)": "fd508728",
        "getApproved(uint256)": "081812fc",
        "get_property_location(uint256)": "78a8353e",
        "isApprovedForAll(address,address)": "e985e9c5",
        "name()": "06fdde03",
        "ownerOf(uint256)": "6352211e",
        "registerProperty(string,string,string,string,string,uint256)": "596b8357",
        "safeTransferFrom(address,address,uint256)": "42842e0e",
        "safeTransferFrom(address,address,uint256,bytes)": "b88d4fde",
        "setApprovalForAll(address,bool)": "a22cb465",
        "setTokenURI(uint256,string)": "162094c4",
        "supportsInterface(bytes4)": "01ffc9a7",
        "symbol()": "95d89b41",
        "tokenURI(uint256)": "c87b56dd",
        "transferFrom(address,address,uint256)": "23b872dd"
    },
    "gasEstimates": {
        "creation": {
            "codeDepositCost": "1541400",
            "executionCost": "infinite",
            "totalCost": "infinite"
        },
        "external": {
            "_propertylist(uint256)": "infinite",
            "_set_for_sale(uint256)": "24522",
            "approve(address,uint256)": "infinite",
            "balanceOf(address)": "2634",
            "bidProperty(uint256,uint256)": "infinite",
            "getApproved(uint256)": "4792",
            "get_property_location(uint256)": "infinite",
            "isApprovedForAll(address,address)": "infinite",
            "name()": "infinite",
            "ownerOf(uint256)": "2649",
            "registerProperty(string,string,string,string,string,uint256)": "infinite",
            "safeTransferFrom(address,address,uint256)": "infinite",
            "safeTransferFrom(address,address,uint256,bytes)": "infinite",
            "setApprovalForAll(address,bool)": "26794",
            "setTokenURI(uint256,string)": "infinite",
            "supportsInterface(bytes4)": "534",
            "symbol()": "infinite",
            "tokenURI(uint256)": "infinite",
            "transferFrom(address,address,uint256)": "infinite"
        }
    }
}