{
    "contractName": "PropertyContract",
    "abi": [
        {
            "inputs": [],
            "stateMutability": "nonpayable",
            "type": "constructor"
        },
        {
            "anonymous": false,
            "inputs": [
                {
                    "indexed": true,
                    "internalType": "address",
                    "name": "owner",
                    "type": "address"
                },
                {
                    "indexed": true,
                    "internalType": "address",
                    "name": "approved",
                    "type": "address"
                },
                {
                    "indexed": true,
                    "internalType": "uint256",
                    "name": "tokenId",
                    "type": "uint256"
                }
            ],
            "name": "Approval",
            "type": "event"
        },
        {
            "anonymous": false,
            "inputs": [
                {
                    "indexed": true,
                    "internalType": "address",
                    "name": "owner",
                    "type": "address"
                },
                {
                    "indexed": true,
                    "internalType": "address",
                    "name": "operator",
                    "type": "address"
                },
                {
                    "indexed": false,
                    "internalType": "bool",
                    "name": "approved",
                    "type": "bool"
                }
            ],
            "name": "ApprovalForAll",
            "type": "event"
        },
        {
            "anonymous": false,
            "inputs": [
                {
                    "indexed": false,
                    "internalType": "address",
                    "name": "owner",
                    "type": "address"
                }
            ],
            "name": "ContractOwnerShipTransferred",
            "type": "event"
        },
        {
            "anonymous": false,
            "inputs": [
                {
                    "indexed": true,
                    "internalType": "address",
                    "name": "from",
                    "type": "address"
                },
                {
                    "indexed": true,
                    "internalType": "address",
                    "name": "to",
                    "type": "address"
                },
                {
                    "indexed": true,
                    "internalType": "uint256",
                    "name": "tokenId",
                    "type": "uint256"
                }
            ],
            "name": "Transfer",
            "type": "event"
        },
        {
            "inputs": [
                {
                    "internalType": "string",
                    "name": "_location",
                    "type": "string"
                },
                {
                    "internalType": "string",
                    "name": "_unit_block",
                    "type": "string"
                },
                {
                    "internalType": "string",
                    "name": "_unit_floor",
                    "type": "string"
                },
                {
                    "internalType": "string",
                    "name": "_unit_flat",
                    "type": "string"
                },
                {
                    "internalType": "string",
                    "name": "_prop_id",
                    "type": "string"
                },
                {
                    "internalType": "uint256",
                    "name": "_target_price",
                    "type": "uint256"
                }
            ],
            "name": "_registerProperty",
            "outputs": [
                {
                    "internalType": "uint256",
                    "name": "",
                    "type": "uint256"
                }
            ],
            "stateMutability": "nonpayable",
            "type": "function"
        },
        {
            "inputs": [
                {
                    "internalType": "address",
                    "name": "to",
                    "type": "address"
                },
                {
                    "internalType": "uint256",
                    "name": "tokenId",
                    "type": "uint256"
                }
            ],
            "name": "approve",
            "outputs": [],
            "stateMutability": "nonpayable",
            "type": "function"
        },
        {
            "inputs": [
                {
                    "internalType": "address",
                    "name": "owner",
                    "type": "address"
                }
            ],
            "name": "balanceOf",
            "outputs": [
                {
                    "internalType": "uint256",
                    "name": "",
                    "type": "uint256"
                }
            ],
            "stateMutability": "view",
            "type": "function"
        },
        {
            "inputs": [
                {
                    "internalType": "uint256",
                    "name": "tokenId",
                    "type": "uint256"
                },
                {
                    "internalType": "uint256",
                    "name": "bidPrice",
                    "type": "uint256"
                }
            ],
            "name": "bidProperty",
            "outputs": [],
            "stateMutability": "payable",
            "type": "function"
        },
        {
            "inputs": [
                {
                    "internalType": "uint256",
                    "name": "tokenId",
                    "type": "uint256"
                }
            ],
            "name": "getApproved",
            "outputs": [
                {
                    "internalType": "address",
                    "name": "",
                    "type": "address"
                }
            ],
            "stateMutability": "view",
            "type": "function"
        },
        {
            "inputs": [
                {
                    "internalType": "uint256",
                    "name": "tokenId",
                    "type": "uint256"
                }
            ],
            "name": "get_property_location",
            "outputs": [],
            "stateMutability": "nonpayable",
            "type": "function"
        },
        {
            "inputs": [
                {
                    "internalType": "address",
                    "name": "owner",
                    "type": "address"
                },
                {
                    "internalType": "address",
                    "name": "operator",
                    "type": "address"
                }
            ],
            "name": "isApprovedForAll",
            "outputs": [
                {
                    "internalType": "bool",
                    "name": "",
                    "type": "bool"
                }
            ],
            "stateMutability": "view",
            "type": "function"
        },
        {
            "inputs": [],
            "name": "name",
            "outputs": [
                {
                    "internalType": "string",
                    "name": "",
                    "type": "string"
                }
            ],
            "stateMutability": "view",
            "type": "function"
        },
        {
            "inputs": [
                {
                    "internalType": "uint256",
                    "name": "tokenId",
                    "type": "uint256"
                }
            ],
            "name": "ownerOf",
            "outputs": [
                {
                    "internalType": "address",
                    "name": "",
                    "type": "address"
                }
            ],
            "stateMutability": "view",
            "type": "function"
        },
        {
            "inputs": [
                {
                    "internalType": "address",
                    "name": "from",
                    "type": "address"
                },
                {
                    "internalType": "address",
                    "name": "to",
                    "type": "address"
                },
                {
                    "internalType": "uint256",
                    "name": "tokenId",
                    "type": "uint256"
                }
            ],
            "name": "safeTransferFrom",
            "outputs": [],
            "stateMutability": "nonpayable",
            "type": "function"
        },
        {
            "inputs": [
                {
                    "internalType": "address",
                    "name": "from",
                    "type": "address"
                },
                {
                    "internalType": "address",
                    "name": "to",
                    "type": "address"
                },
                {
                    "internalType": "uint256",
                    "name": "tokenId",
                    "type": "uint256"
                },
                {
                    "internalType": "bytes",
                    "name": "data",
                    "type": "bytes"
                }
            ],
            "name": "safeTransferFrom",
            "outputs": [],
            "stateMutability": "nonpayable",
            "type": "function"
        },
        {
            "inputs": [
                {
                    "internalType": "address",
                    "name": "operator",
                    "type": "address"
                },
                {
                    "internalType": "bool",
                    "name": "approved",
                    "type": "bool"
                }
            ],
            "name": "setApprovalForAll",
            "outputs": [],
            "stateMutability": "nonpayable",
            "type": "function"
        },
        {
            "inputs": [
                {
                    "internalType": "bytes4",
                    "name": "interfaceId",
                    "type": "bytes4"
                }
            ],
            "name": "supportsInterface",
            "outputs": [
                {
                    "internalType": "bool",
                    "name": "",
                    "type": "bool"
                }
            ],
            "stateMutability": "view",
            "type": "function"
        },
        {
            "inputs": [],
            "name": "symbol",
            "outputs": [
                {
                    "internalType": "string",
                    "name": "",
                    "type": "string"
                }
            ],
            "stateMutability": "view",
            "type": "function"
        },
        {
            "inputs": [
                {
                    "internalType": "uint256",
                    "name": "tokenId",
                    "type": "uint256"
                }
            ],
            "name": "tokenURI",
            "outputs": [
                {
                    "internalType": "string",
                    "name": "",
                    "type": "string"
                }
            ],
            "stateMutability": "view",
            "type": "function"
        },
        {
            "inputs": [
                {
                    "internalType": "address",
                    "name": "from",
                    "type": "address"
                },
                {
                    "internalType": "address",
                    "name": "to",
                    "type": "address"
                },
                {
                    "internalType": "uint256",
                    "name": "tokenId",
                    "type": "uint256"
                }
            ],
            "name": "transferFrom",
            "outputs": [],
            "stateMutability": "nonpayable",
            "type": "function"
        }
    ],
    "bytecode": "60806040523480156200001157600080fd5b506040518060400160405280600e81526020016d50726f7065727479546f6b656e7360901b81525060405180604001604052806002815260200161141560f21b81525081600090816200006591906200016a565b5060016200007482826200016a565b5050600a80546001600160a01b031916339081179091556040519081527fedc72216363839831f76919254ddbbadce2234833dfa8fb47dcdbe73035b8a60915060200160405180910390a162000236565b634e487b7160e01b600052604160045260246000fd5b600181811c90821680620000f057607f821691505b6020821081036200011157634e487b7160e01b600052602260045260246000fd5b50919050565b601f8211156200016557600081815260208120601f850160051c81016020861015620001405750805b601f850160051c820191505b8181101562000161578281556001016200014c565b5050505b505050565b81516001600160401b03811115620001865762000186620000c5565b6200019e81620001978454620000db565b8462000117565b602080601f831160018114620001d65760008415620001bd5750858301515b600019600386901b1c1916600185901b17855562000161565b600085815260208120601f198616915b828110156200020757888601518255948401946001909101908401620001e6565b5085821015620002265787850151600019600388901b60f8161c191681555b5050505050600190811b01905550565b6117b980620002466000396000f3fe6080604052600436106100f35760003560e01c806378a8353e1161008a578063b88d4fde11610059578063b88d4fde146102aa578063c87b56dd146102ca578063e985e9c5146102ea578063fd5087281461030a57600080fd5b806378a8353e1461023757806395d89b41146102555780639df9db4f1461026a578063a22cb4651461028a57600080fd5b806323b872dd116100c657806323b872dd146101a957806342842e0e146101c95780636352211e146101e957806370a082311461020957600080fd5b806301ffc9a7146100f857806306fdde031461012d578063081812fc1461014f578063095ea7b314610187575b600080fd5b34801561010457600080fd5b506101186101133660046110a0565b61031d565b60405190151581526020015b60405180910390f35b34801561013957600080fd5b5061014261036f565b604051610124919061110d565b34801561015b57600080fd5b5061016f61016a366004611120565b610401565b6040516001600160a01b039091168152602001610124565b34801561019357600080fd5b506101a76101a2366004611155565b610428565b005b3480156101b557600080fd5b506101a76101c436600461117f565b610542565b3480156101d557600080fd5b506101a76101e436600461117f565b610573565b3480156101f557600080fd5b5061016f610204366004611120565b61058e565b34801561021557600080fd5b506102296102243660046111bb565b6105ee565b604051908152602001610124565b34801561024357600080fd5b506101a7610252366004611120565b50565b34801561026157600080fd5b50610142610674565b34801561027657600080fd5b50610229610285366004611282565b610683565b34801561029657600080fd5b506101a76102a536600461135c565b61079b565b3480156102b657600080fd5b506101a76102c5366004611398565b6107aa565b3480156102d657600080fd5b506101426102e5366004611120565b6107e2565b3480156102f657600080fd5b50610118610305366004611414565b610856565b6101a7610318366004611447565b610884565b60006001600160e01b031982166380ac58cd60e01b148061034e57506001600160e01b03198216635b5e139f60e01b145b8061036957506301ffc9a760e01b6001600160e01b03198316145b92915050565b60606000805461037e90611469565b80601f01602080910402602001604051908101604052809291908181526020018280546103aa90611469565b80156103f75780601f106103cc576101008083540402835291602001916103f7565b820191906000526020600020905b8154815290600101906020018083116103da57829003601f168201915b5050505050905090565b600061040c8261097d565b506000908152600460205260409020546001600160a01b031690565b60006104338261058e565b9050806001600160a01b0316836001600160a01b0316036104a55760405162461bcd60e51b815260206004820152602160248201527f4552433732313a20617070726f76616c20746f2063757272656e74206f776e656044820152603960f91b60648201526084015b60405180910390fd5b336001600160a01b03821614806104c157506104c18133610856565b6105335760405162461bcd60e51b815260206004820152603e60248201527f4552433732313a20617070726f76652063616c6c6572206973206e6f7420746f60448201527f6b656e206f776e6572206e6f7220617070726f76656420666f7220616c6c0000606482015260840161049c565b61053d83836109dc565b505050565b61054c3382610a4a565b6105685760405162461bcd60e51b815260040161049c906114a3565b61053d838383610aa9565b61053d838383604051806020016040528060008152506107aa565b6000818152600260205260408120546001600160a01b0316806103695760405162461bcd60e51b8152602060048201526018602482015277115490cdcc8c4e881a5b9d985b1a59081d1bdad95b88125160421b604482015260640161049c565b60006001600160a01b0382166106585760405162461bcd60e51b815260206004820152602960248201527f4552433732313a2061646472657373207a65726f206973206e6f7420612076616044820152683634b21037bbb732b960b91b606482015260840161049c565b506001600160a01b031660009081526003602052604090205490565b60606001805461037e90611469565b6000806040518060a0016040528089815260200188815260200187815260200186815260200185815250905060006106ba60065490565b6000818152600860209081526040822080546001810182559083529120845192935084926005909202019081906106f1908261153f565b5060208201516001820190610706908261153f565b506040820151600282019061071b908261153f565b5060608201516003820190610730908261153f565b5060808201516004820190610745908261153f565b505050600081815260076020908152604080832080546001600160a01b0319163390811790915560099092529091208590556107819082610c45565b61078f600680546001019055565b98975050505050505050565b6107a6338383610d87565b5050565b6107b43383610a4a565b6107d05760405162461bcd60e51b815260040161049c906114a3565b6107dc84848484610e55565b50505050565b60606107ed8261097d565b600061080460408051602081019091526000815290565b90506000815111610824576040518060200160405280600081525061084f565b8061082e84610e88565b60405160200161083f9291906115ff565b6040516020818303038152906040525b9392505050565b6001600160a01b03918216600090815260056020908152604080832093909416825291909152205460ff1690565b6000828152600760205260409020546001600160a01b031633036108ea5760405162461bcd60e51b815260206004820152601d60248201527f4f776e65722063616e6e6f7420627579207468652070726f7065727479000000604482015260640161049c565b6000828152600960205260409020548110156109655760405162461bcd60e51b815260206004820152603460248201527f596f7520626964207072696365206973206c6f776572207468616e20746865206044820152737461726765742073656c6c696e6720707269636560601b606482015260840161049c565b60006109708361058e565b905061053d813385610aa9565b6000818152600260205260409020546001600160a01b03166102525760405162461bcd60e51b8152602060048201526018602482015277115490cdcc8c4e881a5b9d985b1a59081d1bdad95b88125160421b604482015260640161049c565b600081815260046020526040902080546001600160a01b0319166001600160a01b0384169081179091558190610a118261058e565b6001600160a01b03167f8c5be1e5ebec7d5bd14f71427d1e84f3dd0314c0f7b2291e5b200ac8c7c3b92560405160405180910390a45050565b600080610a568361058e565b9050806001600160a01b0316846001600160a01b03161480610a7d5750610a7d8185610856565b80610aa15750836001600160a01b0316610a9684610401565b6001600160a01b0316145b949350505050565b826001600160a01b0316610abc8261058e565b6001600160a01b031614610b205760405162461bcd60e51b815260206004820152602560248201527f4552433732313a207472616e736665722066726f6d20696e636f72726563742060448201526437bbb732b960d91b606482015260840161049c565b6001600160a01b038216610b825760405162461bcd60e51b8152602060048201526024808201527f4552433732313a207472616e7366657220746f20746865207a65726f206164646044820152637265737360e01b606482015260840161049c565b610b8d6000826109dc565b6001600160a01b0383166000908152600360205260408120805460019290610bb6908490611644565b90915550506001600160a01b0382166000908152600360205260408120805460019290610be4908490611657565b909155505060008181526002602052604080822080546001600160a01b0319166001600160a01b0386811691821790925591518493918716917fddf252ad1be2c89b69c2b068fc378daa952ba7f163c4a11628f55a4df523b3ef91a4505050565b6001600160a01b038216610c9b5760405162461bcd60e51b815260206004820181905260248201527f4552433732313a206d696e7420746f20746865207a65726f2061646472657373604482015260640161049c565b6000818152600260205260409020546001600160a01b031615610d005760405162461bcd60e51b815260206004820152601c60248201527f4552433732313a20746f6b656e20616c7265616479206d696e74656400000000604482015260640161049c565b6001600160a01b0382166000908152600360205260408120805460019290610d29908490611657565b909155505060008181526002602052604080822080546001600160a01b0319166001600160a01b03861690811790915590518392907fddf252ad1be2c89b69c2b068fc378daa952ba7f163c4a11628f55a4df523b3ef908290a45050565b816001600160a01b0316836001600160a01b031603610de85760405162461bcd60e51b815260206004820152601960248201527f4552433732313a20617070726f766520746f2063616c6c657200000000000000604482015260640161049c565b6001600160a01b03838116600081815260056020908152604080832094871680845294825291829020805460ff191686151590811790915591519182527f17307eab39ab6107e8899845ad3d59bd9653f200f220920489ca2b5937696c31910160405180910390a3505050565b610e60848484610aa9565b610e6c84848484610f89565b6107dc5760405162461bcd60e51b815260040161049c9061166a565b606081600003610eaf5750506040805180820190915260018152600360fc1b602082015290565b8160005b8115610ed95780610ec3816116bc565b9150610ed29050600a836116eb565b9150610eb3565b60008167ffffffffffffffff811115610ef457610ef46111d6565b6040519080825280601f01601f191660200182016040528015610f1e576020820181803683370190505b5090505b8415610aa157610f33600183611644565b9150610f40600a866116ff565b610f4b906030611657565b60f81b818381518110610f6057610f60611713565b60200101906001600160f81b031916908160001a905350610f82600a866116eb565b9450610f22565b60006001600160a01b0384163b1561107f57604051630a85bd0160e11b81526001600160a01b0385169063150b7a0290610fcd903390899088908890600401611729565b6020604051808303816000875af1925050508015611008575060408051601f3d908101601f1916820190925261100591810190611766565b60015b611065573d808015611036576040519150601f19603f3d011682016040523d82523d6000602084013e61103b565b606091505b50805160000361105d5760405162461bcd60e51b815260040161049c9061166a565b805181602001fd5b6001600160e01b031916630a85bd0160e11b149050610aa1565b506001949350505050565b6001600160e01b03198116811461025257600080fd5b6000602082840312156110b257600080fd5b813561084f8161108a565b60005b838110156110d85781810151838201526020016110c0565b50506000910152565b600081518084526110f98160208601602086016110bd565b601f01601f19169290920160200192915050565b60208152600061084f60208301846110e1565b60006020828403121561113257600080fd5b5035919050565b80356001600160a01b038116811461115057600080fd5b919050565b6000806040838503121561116857600080fd5b61117183611139565b946020939093013593505050565b60008060006060848603121561119457600080fd5b61119d84611139565b92506111ab60208501611139565b9150604084013590509250925092565b6000602082840312156111cd57600080fd5b61084f82611139565b634e487b7160e01b600052604160045260246000fd5b600067ffffffffffffffff80841115611207576112076111d6565b604051601f8501601f19908116603f0116810190828211818310171561122f5761122f6111d6565b8160405280935085815286868601111561124857600080fd5b858560208301376000602087830101525050509392505050565b600082601f83011261127357600080fd5b61084f838335602085016111ec565b60008060008060008060c0878903121561129b57600080fd5b863567ffffffffffffffff808211156112b357600080fd5b6112bf8a838b01611262565b975060208901359150808211156112d557600080fd5b6112e18a838b01611262565b965060408901359150808211156112f757600080fd5b6113038a838b01611262565b9550606089013591508082111561131957600080fd5b6113258a838b01611262565b9450608089013591508082111561133b57600080fd5b5061134889828a01611262565b92505060a087013590509295509295509295565b6000806040838503121561136f57600080fd5b61137883611139565b91506020830135801515811461138d57600080fd5b809150509250929050565b600080600080608085870312156113ae57600080fd5b6113b785611139565b93506113c560208601611139565b925060408501359150606085013567ffffffffffffffff8111156113e857600080fd5b8501601f810187136113f957600080fd5b611408878235602084016111ec565b91505092959194509250565b6000806040838503121561142757600080fd5b61143083611139565b915061143e60208401611139565b90509250929050565b6000806040838503121561145a57600080fd5b50508035926020909101359150565b600181811c9082168061147d57607f821691505b60208210810361149d57634e487b7160e01b600052602260045260246000fd5b50919050565b6020808252602e908201527f4552433732313a2063616c6c6572206973206e6f7420746f6b656e206f776e6560408201526d1c881b9bdc88185c1c1c9bdd995960921b606082015260800190565b601f82111561053d57600081815260208120601f850160051c810160208610156115185750805b601f850160051c820191505b8181101561153757828155600101611524565b505050505050565b815167ffffffffffffffff811115611559576115596111d6565b61156d816115678454611469565b846114f1565b602080601f8311600181146115a2576000841561158a5750858301515b600019600386901b1c1916600185901b178555611537565b600085815260208120601f198616915b828110156115d1578886015182559484019460019091019084016115b2565b50858210156115ef5787850151600019600388901b60f8161c191681555b5050505050600190811b01905550565b600083516116118184602088016110bd565b8351908301906116258183602088016110bd565b01949350505050565b634e487b7160e01b600052601160045260246000fd5b818103818111156103695761036961162e565b808201808211156103695761036961162e565b60208082526032908201527f4552433732313a207472616e7366657220746f206e6f6e20455243373231526560408201527131b2b4bb32b91034b6b83632b6b2b73a32b960711b606082015260800190565b6000600182016116ce576116ce61162e565b5060010190565b634e487b7160e01b600052601260045260246000fd5b6000826116fa576116fa6116d5565b500490565b60008261170e5761170e6116d5565b500690565b634e487b7160e01b600052603260045260246000fd5b6001600160a01b038581168252841660208201526040810183905260806060820181905260009061175c908301846110e1565b9695505050505050565b60006020828403121561177857600080fd5b815161084f8161108a56fea2646970667358221220429530a1d7a1a3ab5610b0b85ff93866cf17651a637e437da1ac07cff897593f64736f6c63430008110033",
    "sourcePath": "/home/ubuntu/code/capstone/capstone_project/contracts/PropertyToken.sol",
    "compiler": {
        "name": "solc",
        "version": "0.8.17+commit.8df45f5f"
    },
    "functionHashes": {
        "_registerProperty(string,string,string,string,string,uint256)": "9df9db4f",
        "approve(address,uint256)": "095ea7b3",
        "balanceOf(address)": "70a08231",
        "bidProperty(uint256,uint256)": "fd508728",
        "getApproved(uint256)": "081812fc",
        "get_property_location(uint256)": "78a8353e",
        "isApprovedForAll(address,address)": "e985e9c5",
        "name()": "06fdde03",
        "ownerOf(uint256)": "6352211e",
        "safeTransferFrom(address,address,uint256)": "42842e0e",
        "safeTransferFrom(address,address,uint256,bytes)": "b88d4fde",
        "setApprovalForAll(address,bool)": "a22cb465",
        "supportsInterface(bytes4)": "01ffc9a7",
        "symbol()": "95d89b41",
        "tokenURI(uint256)": "c87b56dd",
        "transferFrom(address,address,uint256)": "23b872dd"
    },
    "gasEstimates": {
        "creation": {
            "codeDepositCost": "1214600",
            "executionCost": "infinite",
            "totalCost": "infinite"
        },
        "external": {
            "_registerProperty(string,string,string,string,string,uint256)": "infinite",
            "approve(address,uint256)": "infinite",
            "balanceOf(address)": "2678",
            "bidProperty(uint256,uint256)": "infinite",
            "getApproved(uint256)": "4792",
            "get_property_location(uint256)": "234",
            "isApprovedForAll(address,address)": "infinite",
            "name()": "infinite",
            "ownerOf(uint256)": "2605",
            "safeTransferFrom(address,address,uint256)": "infinite",
            "safeTransferFrom(address,address,uint256,bytes)": "infinite",
            "setApprovalForAll(address,bool)": "26772",
            "supportsInterface(bytes4)": "534",
            "symbol()": "infinite",
            "tokenURI(uint256)": "infinite",
            "transferFrom(address,address,uint256)": "infinite"
        }
    }
}