{
    "contractName": "PropertyContract",
    "abi": [
        {
            "inputs": [],
            "stateMutability": "nonpayable",
            "type": "constructor"
        },
        {
            "anonymous": false,
            "inputs": [
                {
                    "indexed": true,
                    "internalType": "address",
                    "name": "owner",
                    "type": "address"
                },
                {
                    "indexed": true,
                    "internalType": "address",
                    "name": "approved",
                    "type": "address"
                },
                {
                    "indexed": true,
                    "internalType": "uint256",
                    "name": "tokenId",
                    "type": "uint256"
                }
            ],
            "name": "Approval",
            "type": "event"
        },
        {
            "anonymous": false,
            "inputs": [
                {
                    "indexed": true,
                    "internalType": "address",
                    "name": "owner",
                    "type": "address"
                },
                {
                    "indexed": true,
                    "internalType": "address",
                    "name": "operator",
                    "type": "address"
                },
                {
                    "indexed": false,
                    "internalType": "bool",
                    "name": "approved",
                    "type": "bool"
                }
            ],
            "name": "ApprovalForAll",
            "type": "event"
        },
        {
            "anonymous": false,
            "inputs": [
                {
                    "indexed": true,
                    "internalType": "address",
                    "name": "sender",
                    "type": "address"
                },
                {
                    "indexed": false,
                    "internalType": "uint256",
                    "name": "amount",
                    "type": "uint256"
                }
            ],
            "name": "Bid",
            "type": "event"
        },
        {
            "anonymous": false,
            "inputs": [],
            "name": "Cancel",
            "type": "event"
        },
        {
            "anonymous": false,
            "inputs": [
                {
                    "indexed": false,
                    "internalType": "address",
                    "name": "owner",
                    "type": "address"
                }
            ],
            "name": "ContractOwnerShipTransferred",
            "type": "event"
        },
        {
            "anonymous": false,
            "inputs": [
                {
                    "indexed": false,
                    "internalType": "address",
                    "name": "winner",
                    "type": "address"
                },
                {
                    "indexed": false,
                    "internalType": "uint256",
                    "name": "amount",
                    "type": "uint256"
                }
            ],
            "name": "End",
            "type": "event"
        },
        {
            "anonymous": false,
            "inputs": [],
            "name": "Start",
            "type": "event"
        },
        {
            "anonymous": false,
            "inputs": [
                {
                    "indexed": true,
                    "internalType": "address",
                    "name": "from",
                    "type": "address"
                },
                {
                    "indexed": true,
                    "internalType": "address",
                    "name": "to",
                    "type": "address"
                },
                {
                    "indexed": true,
                    "internalType": "uint256",
                    "name": "tokenId",
                    "type": "uint256"
                }
            ],
            "name": "Transfer",
            "type": "event"
        },
        {
            "anonymous": false,
            "inputs": [
                {
                    "indexed": true,
                    "internalType": "address",
                    "name": "bidder",
                    "type": "address"
                },
                {
                    "indexed": false,
                    "internalType": "uint256",
                    "name": "amount",
                    "type": "uint256"
                }
            ],
            "name": "Withdraw",
            "type": "event"
        },
        {
            "inputs": [
                {
                    "internalType": "uint256",
                    "name": "",
                    "type": "uint256"
                }
            ],
            "name": "_propertylist",
            "outputs": [
                {
                    "internalType": "string",
                    "name": "location",
                    "type": "string"
                },
                {
                    "internalType": "string",
                    "name": "unit_block",
                    "type": "string"
                },
                {
                    "internalType": "string",
                    "name": "unit_floor",
                    "type": "string"
                },
                {
                    "internalType": "string",
                    "name": "unit_flat",
                    "type": "string"
                },
                {
                    "internalType": "string",
                    "name": "prop_id",
                    "type": "string"
                }
            ],
            "stateMutability": "view",
            "type": "function"
        },
        {
            "inputs": [
                {
                    "internalType": "uint256",
                    "name": "tokenId",
                    "type": "uint256"
                }
            ],
            "name": "_set_for_sale",
            "outputs": [],
            "stateMutability": "nonpayable",
            "type": "function"
        },
        {
            "inputs": [
                {
                    "internalType": "address",
                    "name": "to",
                    "type": "address"
                },
                {
                    "internalType": "uint256",
                    "name": "tokenId",
                    "type": "uint256"
                }
            ],
            "name": "approve",
            "outputs": [],
            "stateMutability": "nonpayable",
            "type": "function"
        },
        {
            "inputs": [
                {
                    "internalType": "address",
                    "name": "owner",
                    "type": "address"
                }
            ],
            "name": "balanceOf",
            "outputs": [
                {
                    "internalType": "uint256",
                    "name": "",
                    "type": "uint256"
                }
            ],
            "stateMutability": "view",
            "type": "function"
        },
        {
            "inputs": [],
            "name": "bid",
            "outputs": [],
            "stateMutability": "payable",
            "type": "function"
        },
        {
            "inputs": [
                {
                    "internalType": "uint256",
                    "name": "tokenId",
                    "type": "uint256"
                },
                {
                    "internalType": "uint256",
                    "name": "bidPrice",
                    "type": "uint256"
                }
            ],
            "name": "bidProperty",
            "outputs": [],
            "stateMutability": "payable",
            "type": "function"
        },
        {
            "inputs": [
                {
                    "internalType": "address",
                    "name": "",
                    "type": "address"
                }
            ],
            "name": "bids",
            "outputs": [
                {
                    "internalType": "uint256",
                    "name": "",
                    "type": "uint256"
                }
            ],
            "stateMutability": "view",
            "type": "function"
        },
        {
            "inputs": [
                {
                    "internalType": "uint256",
                    "name": "tokenId",
                    "type": "uint256"
                }
            ],
            "name": "cancel_auction",
            "outputs": [],
            "stateMutability": "nonpayable",
            "type": "function"
        },
        {
            "inputs": [
                {
                    "internalType": "uint256",
                    "name": "tokenId",
                    "type": "uint256"
                }
            ],
            "name": "end",
            "outputs": [],
            "stateMutability": "nonpayable",
            "type": "function"
        },
        {
            "inputs": [],
            "name": "endAt",
            "outputs": [
                {
                    "internalType": "uint256",
                    "name": "",
                    "type": "uint256"
                }
            ],
            "stateMutability": "view",
            "type": "function"
        },
        {
            "inputs": [],
            "name": "ended",
            "outputs": [
                {
                    "internalType": "bool",
                    "name": "",
                    "type": "bool"
                }
            ],
            "stateMutability": "view",
            "type": "function"
        },
        {
            "inputs": [
                {
                    "internalType": "uint256",
                    "name": "tokenId",
                    "type": "uint256"
                }
            ],
            "name": "getApproved",
            "outputs": [
                {
                    "internalType": "address",
                    "name": "",
                    "type": "address"
                }
            ],
            "stateMutability": "view",
            "type": "function"
        },
        {
            "inputs": [
                {
                    "internalType": "uint256",
                    "name": "tokenId",
                    "type": "uint256"
                }
            ],
            "name": "get_property_location",
            "outputs": [
                {
                    "internalType": "string",
                    "name": "",
                    "type": "string"
                }
            ],
            "stateMutability": "view",
            "type": "function"
        },
        {
            "inputs": [],
            "name": "highest_bid",
            "outputs": [
                {
                    "internalType": "uint256",
                    "name": "",
                    "type": "uint256"
                }
            ],
            "stateMutability": "view",
            "type": "function"
        },
        {
            "inputs": [],
            "name": "highest_bidder",
            "outputs": [
                {
                    "internalType": "address",
                    "name": "",
                    "type": "address"
                }
            ],
            "stateMutability": "view",
            "type": "function"
        },
        {
            "inputs": [
                {
                    "internalType": "address",
                    "name": "owner",
                    "type": "address"
                },
                {
                    "internalType": "address",
                    "name": "operator",
                    "type": "address"
                }
            ],
            "name": "isApprovedForAll",
            "outputs": [
                {
                    "internalType": "bool",
                    "name": "",
                    "type": "bool"
                }
            ],
            "stateMutability": "view",
            "type": "function"
        },
        {
            "inputs": [],
            "name": "name",
            "outputs": [
                {
                    "internalType": "string",
                    "name": "",
                    "type": "string"
                }
            ],
            "stateMutability": "view",
            "type": "function"
        },
        {
            "inputs": [
                {
                    "internalType": "uint256",
                    "name": "tokenId",
                    "type": "uint256"
                }
            ],
            "name": "ownerOf",
            "outputs": [
                {
                    "internalType": "address",
                    "name": "",
                    "type": "address"
                }
            ],
            "stateMutability": "view",
            "type": "function"
        },
        {
            "inputs": [
                {
                    "internalType": "string",
                    "name": "_location",
                    "type": "string"
                },
                {
                    "internalType": "string",
                    "name": "_unit_block",
                    "type": "string"
                },
                {
                    "internalType": "string",
                    "name": "_unit_floor",
                    "type": "string"
                },
                {
                    "internalType": "string",
                    "name": "_unit_flat",
                    "type": "string"
                },
                {
                    "internalType": "string",
                    "name": "_prop_id",
                    "type": "string"
                },
                {
                    "internalType": "uint256",
                    "name": "_target_price",
                    "type": "uint256"
                }
            ],
            "name": "registerProperty",
            "outputs": [
                {
                    "internalType": "uint256",
                    "name": "",
                    "type": "uint256"
                }
            ],
            "stateMutability": "nonpayable",
            "type": "function"
        },
        {
            "inputs": [
                {
                    "internalType": "address",
                    "name": "from",
                    "type": "address"
                },
                {
                    "internalType": "address",
                    "name": "to",
                    "type": "address"
                },
                {
                    "internalType": "uint256",
                    "name": "tokenId",
                    "type": "uint256"
                }
            ],
            "name": "safeTransferFrom",
            "outputs": [],
            "stateMutability": "nonpayable",
            "type": "function"
        },
        {
            "inputs": [
                {
                    "internalType": "address",
                    "name": "from",
                    "type": "address"
                },
                {
                    "internalType": "address",
                    "name": "to",
                    "type": "address"
                },
                {
                    "internalType": "uint256",
                    "name": "tokenId",
                    "type": "uint256"
                },
                {
                    "internalType": "bytes",
                    "name": "data",
                    "type": "bytes"
                }
            ],
            "name": "safeTransferFrom",
            "outputs": [],
            "stateMutability": "nonpayable",
            "type": "function"
        },
        {
            "inputs": [
                {
                    "internalType": "address",
                    "name": "operator",
                    "type": "address"
                },
                {
                    "internalType": "bool",
                    "name": "approved",
                    "type": "bool"
                }
            ],
            "name": "setApprovalForAll",
            "outputs": [],
            "stateMutability": "nonpayable",
            "type": "function"
        },
        {
            "inputs": [
                {
                    "internalType": "uint256",
                    "name": "tokenId",
                    "type": "uint256"
                },
                {
                    "internalType": "string",
                    "name": "URI",
                    "type": "string"
                }
            ],
            "name": "setTokenURI",
            "outputs": [],
            "stateMutability": "nonpayable",
            "type": "function"
        },
        {
            "inputs": [
                {
                    "internalType": "uint256",
                    "name": "tokenId",
                    "type": "uint256"
                },
                {
                    "internalType": "uint256",
                    "name": "start_bid",
                    "type": "uint256"
                }
            ],
            "name": "start",
            "outputs": [],
            "stateMutability": "nonpayable",
            "type": "function"
        },
        {
            "inputs": [],
            "name": "started",
            "outputs": [
                {
                    "internalType": "bool",
                    "name": "",
                    "type": "bool"
                }
            ],
            "stateMutability": "view",
            "type": "function"
        },
        {
            "inputs": [
                {
                    "internalType": "bytes4",
                    "name": "interfaceId",
                    "type": "bytes4"
                }
            ],
            "name": "supportsInterface",
            "outputs": [
                {
                    "internalType": "bool",
                    "name": "",
                    "type": "bool"
                }
            ],
            "stateMutability": "view",
            "type": "function"
        },
        {
            "inputs": [],
            "name": "symbol",
            "outputs": [
                {
                    "internalType": "string",
                    "name": "",
                    "type": "string"
                }
            ],
            "stateMutability": "view",
            "type": "function"
        },
        {
            "inputs": [
                {
                    "internalType": "uint256",
                    "name": "tokenId",
                    "type": "uint256"
                }
            ],
            "name": "tokenURI",
            "outputs": [
                {
                    "internalType": "string",
                    "name": "",
                    "type": "string"
                }
            ],
            "stateMutability": "view",
            "type": "function"
        },
        {
            "inputs": [
                {
                    "internalType": "address",
                    "name": "from",
                    "type": "address"
                },
                {
                    "internalType": "address",
                    "name": "to",
                    "type": "address"
                },
                {
                    "internalType": "uint256",
                    "name": "tokenId",
                    "type": "uint256"
                }
            ],
            "name": "transferFrom",
            "outputs": [],
            "stateMutability": "nonpayable",
            "type": "function"
        },
        {
            "inputs": [],
            "name": "withdraw",
            "outputs": [],
            "stateMutability": "nonpayable",
            "type": "function"
        }
    ],
    "bytecode": "60806040523480156200001157600080fd5b506040518060400160405280600e81526020016d50726f7065727479546f6b656e7360901b81525060405180604001604052806002815260200161141560f21b8152508160009081620000659190620001d1565b506001620000748282620001d1565b5050600e80546001600160a01b03191633178155604080518082019091529081526d50726f7065727479546f6b656e7360901b6020820152600c9150620000bc9082620001d1565b50604080518082019091526002815261141560f21b6020820152600d90620000e59082620001d1565b50600e546040516001600160a01b0390911681527fedc72216363839831f76919254ddbbadce2234833dfa8fb47dcdbe73035b8a609060200160405180910390a16200029d565b634e487b7160e01b600052604160045260246000fd5b600181811c908216806200015757607f821691505b6020821081036200017857634e487b7160e01b600052602260045260246000fd5b50919050565b601f821115620001cc57600081815260208120601f850160051c81016020861015620001a75750805b601f850160051c820191505b81811015620001c857828155600101620001b3565b5050505b505050565b81516001600160401b03811115620001ed57620001ed6200012c565b6200020581620001fe845462000142565b846200017e565b602080601f8311600181146200023d5760008415620002245750858301515b600019600386901b1c1916600185901b178555620001c8565b600085815260208120601f198616915b828110156200026e578886015182559484019460019091019084016200024d565b50858210156200028d5787850151600019600388901b60f8161c191681555b5050505050600190811b01905550565b61249f80620002ad6000396000f3fe6080604052600436106101cd5760003560e01c80636352211e116100f7578063a22cb46511610095578063cb96fb4811610064578063cb96fb4814610535578063e5c6009114610566578063e985e9c51461057c578063fd5087281461059c57600080fd5b8063a22cb465146104b5578063b88d4fde146104d5578063bd9215f4146104f5578063c87b56dd1461051557600080fd5b806378a8353e116100d157806378a8353e1461044a5780637cc3ae8c1461046a5780638fb4b5731461048057806395d89b41146104a057600080fd5b80636352211e146103d45780636f73fb6b146103f457806370a082311461042a57600080fd5b80631998aeef1161016f57806342842e0e1161013e57806342842e0e14610339578063596b8357146103595780635990ee2a1461038757806362ea82db146103a757600080fd5b80631998aeef146102e25780631f2698ab146102ea57806323b872dd146103045780633ccfd60b1461032457600080fd5b8063095ea7b3116101ab578063095ea7b3146102615780630ad245281461028357806312fa6feb146102a3578063162094c4146102c257600080fd5b806301ffc9a7146101d257806306fdde0314610207578063081812fc14610229575b600080fd5b3480156101de57600080fd5b506101f26101ed366004611d39565b6105af565b60405190151581526020015b60405180910390f35b34801561021357600080fd5b5061021c610601565b6040516101fe9190611da3565b34801561023557600080fd5b50610249610244366004611db6565b610693565b6040516001600160a01b0390911681526020016101fe565b34801561026d57600080fd5b5061028161027c366004611deb565b6106ba565b005b34801561028f57600080fd5b5061028161029e366004611db6565b6107d4565b3480156102af57600080fd5b506010546101f290610100900460ff1681565b3480156102ce57600080fd5b506102816102dd366004611ec1565b6108af565b610281610932565b3480156102f657600080fd5b506010546101f29060ff1681565b34801561031057600080fd5b5061028161031f366004611f08565b610a9b565b34801561033057600080fd5b50610281610acc565b34801561034557600080fd5b50610281610354366004611f08565b610b46565b34801561036557600080fd5b50610379610374366004611f44565b610b61565b6040519081526020016101fe565b34801561039357600080fd5b506102816103a2366004611db6565b610cd1565b3480156103b357600080fd5b506103796103c236600461201e565b60146020526000908152604090205481565b3480156103e057600080fd5b506102496103ef366004611db6565b610d8f565b34801561040057600080fd5b5061028161040f366004611db6565b6000908152600a60205260409020805460ff19166001179055565b34801561043657600080fd5b5061037961044536600461201e565b610def565b34801561045657600080fd5b5061021c610465366004611db6565b610e75565b34801561047657600080fd5b5061037960115481565b34801561048c57600080fd5b5061028161049b366004612039565b610f19565b3480156104ac57600080fd5b5061021c61103c565b3480156104c157600080fd5b506102816104d036600461205b565b61104b565b3480156104e157600080fd5b506102816104f0366004612097565b61105a565b34801561050157600080fd5b50601254610249906001600160a01b031681565b34801561052157600080fd5b5061021c610530366004611db6565b61108c565b34801561054157600080fd5b50610555610550366004611db6565b611193565b6040516101fe959493929190612113565b34801561057257600080fd5b5061037960135481565b34801561058857600080fd5b506101f2610597366004612174565b611469565b6102816105aa366004612039565b611497565b60006001600160e01b031982166380ac58cd60e01b14806105e057506001600160e01b03198216635b5e139f60e01b145b806105fb57506301ffc9a760e01b6001600160e01b03198316145b92915050565b606060008054610610906121a7565b80601f016020809104026020016040519081016040528092919081815260200182805461063c906121a7565b80156106895780601f1061065e57610100808354040283529160200191610689565b820191906000526020600020905b81548152906001019060200180831161066c57829003601f168201915b5050505050905090565b600061069e82611663565b506000908152600460205260409020546001600160a01b031690565b60006106c582610d8f565b9050806001600160a01b0316836001600160a01b0316036107375760405162461bcd60e51b815260206004820152602160248201527f4552433732313a20617070726f76616c20746f2063757272656e74206f776e656044820152603960f91b60648201526084015b60405180910390fd5b336001600160a01b038216148061075357506107538133611469565b6107c55760405162461bcd60e51b815260206004820152603d60248201527f4552433732313a20617070726f76652063616c6c6572206973206e6f7420746f60448201527f6b656e206f776e6572206f7220617070726f76656420666f7220616c6c000000606482015260840161072e565b6107cf83836116c2565b505050565b60105460ff1661081c5760405162461bcd60e51b8152602060048201526013602482015272105d58dd1a5bdb881b9bdd081cdd185c9d1959606a1b604482015260640161072e565b601054610100900460ff16156108745760405162461bcd60e51b815260206004820152601a60248201527f41756374696f6e2068617320616c726561647920656e65646564000000000000604482015260640161072e565b6010805461ff0019166101001790556012546001600160a01b0316156108ac576012546108ac9030906001600160a01b031683611730565b50565b6000828152600760205260409020546001600160a01b0316806109145760405162461bcd60e51b815260206004820152601c60248201527f4552524f523a20746f6b656e206964206973206e6f742076616c696400000000604482015260640161072e565b6000838152600b6020526040902061092c838261222f565b50505050565b60105460ff166109725760405162461bcd60e51b815260206004820152600b60248201526a1b9bdd081cdd185c9d195960aa1b604482015260640161072e565b60115442106109ab5760405162461bcd60e51b8152602060048201526005602482015264195b99195960da1b604482015260640161072e565b6013543411610a075760405162461bcd60e51b815260206004820152602260248201527f6269642076616c756520736d616c6c6572207468616e206869676865737420626044820152611a5960f21b606482015260840161072e565b6012546001600160a01b031615610a4b576013546012546001600160a01b031660009081526014602052604081208054909190610a45908490612305565b90915550505b601280546001600160a01b031916339081179091553460138190556040519081527fe684a55f31b79eca403df938249029212a5925ec6be8012e099b45bc1019e5d29060200160405180910390a2565b610aa533826118a1565b610ac15760405162461bcd60e51b815260040161072e90612318565b6107cf838383611730565b33600081815260146020526040808220805490839055905190929183156108fc02918491818181858888f19350505050158015610b0d573d6000803e3d6000fd5b5060405181815233907f884edad9ce6fa2440d8a54cc123490eb96d2768479d49ff9c7366125a94243649060200160405180910390a250565b6107cf8383836040518060200160405280600081525061105a565b600e546000906001600160a01b03163314610bbe5760405162461bcd60e51b815260206004820181905260248201527f4f6e6c79206f776e65722063616e2072656769737465722070726f7065727479604482015260640161072e565b60006040518060a001604052808981526020018881526020018781526020018681526020018581525090506000610bf460065490565b6000818152600860205260409020835191925083918190610c15908261222f565b5060208201516001820190610c2a908261222f565b5060408201516002820190610c3f908261222f565b5060608201516003820190610c54908261222f565b5060808201516004820190610c69908261222f565b505050600081815260076020908152604080832080546001600160a01b0319163390811790915560098352818420889055600a909252909120805460ff19166001179055610cb79082611900565b610cc5600680546001019055565b98975050505050505050565b6000818152600760205260409020546001600160a01b0316338114610d385760405162461bcd60e51b815260206004820152601d60248201527f6f6e6c79206f776e65722063616e2063616e63656c2061756374696f6e000000604482015260640161072e565b610d43303384611730565b6000828152600a6020526040808220805460ff19908116909155601080549091169055517f4aa8e773783771612c47fa512db50b9316d0863fd83c45829adfe92833d7d68b9190a15050565b6000818152600260205260408120546001600160a01b0316806105fb5760405162461bcd60e51b8152602060048201526018602482015277115490cdcc8c4e881a5b9d985b1a59081d1bdad95b88125160421b604482015260640161072e565b60006001600160a01b038216610e595760405162461bcd60e51b815260206004820152602960248201527f4552433732313a2061646472657373207a65726f206973206e6f7420612076616044820152683634b21037bbb732b960b91b606482015260840161072e565b506001600160a01b031660009081526003602052604090205490565b600081815260086020526040812080546060929190610e93906121a7565b80601f0160208091040260200160405190810160405280929190818152602001828054610ebf906121a7565b8015610f0c5780601f10610ee157610100808354040283529160200191610f0c565b820191906000526020600020905b815481529060010190602001808311610eef57829003601f168201915b5093979650505050505050565b60105460ff1615610f785760405162461bcd60e51b815260206004820152602360248201527f41756374696f6e20686173206265656e20737461727465642070726576696f75604482015262736c7960e81b606482015260840161072e565b6000610f8383610d8f565b9050336001600160a01b03821614610fd25760405162461bcd60e51b81526020600482015260126024820152713737ba10383937b832b93a3c9037bbb732b960711b604482015260640161072e565b610fdd333085611730565b610ffc836000908152600a60205260409020805460ff19166001179055565b6010805460ff1916600117905560138290556040517f1b55ba3aa851a46be3b365aee5b5c140edd620d578922f3e8466d2cbd96f954b90600090a1505050565b606060018054610610906121a7565b611056338383611a99565b5050565b61106433836118a1565b6110805760405162461bcd60e51b815260040161072e90612318565b61092c84848484611b67565b6000818152600760205260409020546060906001600160a01b0316806110f45760405162461bcd60e51b815260206004820152601c60248201527f4552524f523a20746f6b656e206964206973206e6f742076616c696400000000604482015260640161072e565b6000838152600b60205260409020805461110d906121a7565b80601f0160208091040260200160405190810160405280929190818152602001828054611139906121a7565b80156111865780601f1061115b57610100808354040283529160200191611186565b820191906000526020600020905b81548152906001019060200180831161116957829003601f168201915b5050505050915050919050565b6008602052600090815260409020805481906111ae906121a7565b80601f01602080910402602001604051908101604052809291908181526020018280546111da906121a7565b80156112275780601f106111fc57610100808354040283529160200191611227565b820191906000526020600020905b81548152906001019060200180831161120a57829003601f168201915b50505050509080600101805461123c906121a7565b80601f0160208091040260200160405190810160405280929190818152602001828054611268906121a7565b80156112b55780601f1061128a576101008083540402835291602001916112b5565b820191906000526020600020905b81548152906001019060200180831161129857829003601f168201915b5050505050908060020180546112ca906121a7565b80601f01602080910402602001604051908101604052809291908181526020018280546112f6906121a7565b80156113435780601f1061131857610100808354040283529160200191611343565b820191906000526020600020905b81548152906001019060200180831161132657829003601f168201915b505050505090806003018054611358906121a7565b80601f0160208091040260200160405190810160405280929190818152602001828054611384906121a7565b80156113d15780601f106113a6576101008083540402835291602001916113d1565b820191906000526020600020905b8154815290600101906020018083116113b457829003601f168201915b5050505050908060040180546113e6906121a7565b80601f0160208091040260200160405190810160405280929190818152602001828054611412906121a7565b801561145f5780601f106114345761010080835404028352916020019161145f565b820191906000526020600020905b81548152906001019060200180831161144257829003601f168201915b5050505050905085565b6001600160a01b03918216600090815260056020908152604080832093909416825291909152205460ff1690565b6000828152600760205260409020546001600160a01b031633036114fd5760405162461bcd60e51b815260206004820152601d60248201527f4f776e65722063616e6e6f7420627579207468652070726f7065727479000000604482015260640161072e565b6000828152600960205260409020548110156115785760405162461bcd60e51b815260206004820152603460248201527f596f7520626964207072696365206973206c6f776572207468616e20746865206044820152737461726765742073656c6c696e6720707269636560601b606482015260840161072e565b6000828152600a602052604090205460ff1615156001146115e75760405162461bcd60e51b815260206004820152602360248201527f50726f7065727479206e6f7420666f722073616c6520617420746865206d6f6d604482015262195b9d60ea1b606482015260840161072e565b60006115f283610d8f565b90506115ff813385611730565b6000838152600a60209081526040808320805460ff19169055600790915280822080546001600160a01b03191633179055516001600160a01b038316913480156108fc02929091818181858888f1935050505015801561092c573d6000803e3d6000fd5b6000818152600260205260409020546001600160a01b03166108ac5760405162461bcd60e51b8152602060048201526018602482015277115490cdcc8c4e881a5b9d985b1a59081d1bdad95b88125160421b604482015260640161072e565b600081815260046020526040902080546001600160a01b0319166001600160a01b03841690811790915581906116f782610d8f565b6001600160a01b03167f8c5be1e5ebec7d5bd14f71427d1e84f3dd0314c0f7b2291e5b200ac8c7c3b92560405160405180910390a45050565b826001600160a01b031661174382610d8f565b6001600160a01b0316146117695760405162461bcd60e51b815260040161072e90612365565b6001600160a01b0382166117cb5760405162461bcd60e51b8152602060048201526024808201527f4552433732313a207472616e7366657220746f20746865207a65726f206164646044820152637265737360e01b606482015260840161072e565b6117d88383836001611b9a565b826001600160a01b03166117eb82610d8f565b6001600160a01b0316146118115760405162461bcd60e51b815260040161072e90612365565b600081815260046020908152604080832080546001600160a01b03199081169091556001600160a01b0387811680865260038552838620805460001901905590871680865283862080546001019055868652600290945282852080549092168417909155905184937fddf252ad1be2c89b69c2b068fc378daa952ba7f163c4a11628f55a4df523b3ef91a4505050565b6000806118ad83610d8f565b9050806001600160a01b0316846001600160a01b031614806118d457506118d48185611469565b806118f85750836001600160a01b03166118ed84610693565b6001600160a01b0316145b949350505050565b6001600160a01b0382166119565760405162461bcd60e51b815260206004820181905260248201527f4552433732313a206d696e7420746f20746865207a65726f2061646472657373604482015260640161072e565b6000818152600260205260409020546001600160a01b0316156119bb5760405162461bcd60e51b815260206004820152601c60248201527f4552433732313a20746f6b656e20616c7265616479206d696e74656400000000604482015260640161072e565b6119c9600083836001611b9a565b6000818152600260205260409020546001600160a01b031615611a2e5760405162461bcd60e51b815260206004820152601c60248201527f4552433732313a20746f6b656e20616c7265616479206d696e74656400000000604482015260640161072e565b6001600160a01b038216600081815260036020908152604080832080546001019055848352600290915280822080546001600160a01b0319168417905551839291907fddf252ad1be2c89b69c2b068fc378daa952ba7f163c4a11628f55a4df523b3ef908290a45050565b816001600160a01b0316836001600160a01b031603611afa5760405162461bcd60e51b815260206004820152601960248201527f4552433732313a20617070726f766520746f2063616c6c657200000000000000604482015260640161072e565b6001600160a01b03838116600081815260056020908152604080832094871680845294825291829020805460ff191686151590811790915591519182527f17307eab39ab6107e8899845ad3d59bd9653f200f220920489ca2b5937696c31910160405180910390a3505050565b611b72848484611730565b611b7e84848484611c22565b61092c5760405162461bcd60e51b815260040161072e906123aa565b600181111561092c576001600160a01b03841615611be0576001600160a01b03841660009081526003602052604081208054839290611bda9084906123fc565b90915550505b6001600160a01b0383161561092c576001600160a01b03831660009081526003602052604081208054839290611c17908490612305565b909155505050505050565b60006001600160a01b0384163b15611d1857604051630a85bd0160e11b81526001600160a01b0385169063150b7a0290611c6690339089908890889060040161240f565b6020604051808303816000875af1925050508015611ca1575060408051601f3d908101601f19168201909252611c9e9181019061244c565b60015b611cfe573d808015611ccf576040519150601f19603f3d011682016040523d82523d6000602084013e611cd4565b606091505b508051600003611cf65760405162461bcd60e51b815260040161072e906123aa565b805181602001fd5b6001600160e01b031916630a85bd0160e11b1490506118f8565b506001949350505050565b6001600160e01b0319811681146108ac57600080fd5b600060208284031215611d4b57600080fd5b8135611d5681611d23565b9392505050565b6000815180845260005b81811015611d8357602081850181015186830182015201611d67565b506000602082860101526020601f19601f83011685010191505092915050565b602081526000611d566020830184611d5d565b600060208284031215611dc857600080fd5b5035919050565b80356001600160a01b0381168114611de657600080fd5b919050565b60008060408385031215611dfe57600080fd5b611e0783611dcf565b946020939093013593505050565b634e487b7160e01b600052604160045260246000fd5b600067ffffffffffffffff80841115611e4657611e46611e15565b604051601f8501601f19908116603f01168101908282118183101715611e6e57611e6e611e15565b81604052809350858152868686011115611e8757600080fd5b858560208301376000602087830101525050509392505050565b600082601f830112611eb257600080fd5b611d5683833560208501611e2b565b60008060408385031215611ed457600080fd5b82359150602083013567ffffffffffffffff811115611ef257600080fd5b611efe85828601611ea1565b9150509250929050565b600080600060608486031215611f1d57600080fd5b611f2684611dcf565b9250611f3460208501611dcf565b9150604084013590509250925092565b60008060008060008060c08789031215611f5d57600080fd5b863567ffffffffffffffff80821115611f7557600080fd5b611f818a838b01611ea1565b97506020890135915080821115611f9757600080fd5b611fa38a838b01611ea1565b96506040890135915080821115611fb957600080fd5b611fc58a838b01611ea1565b95506060890135915080821115611fdb57600080fd5b611fe78a838b01611ea1565b94506080890135915080821115611ffd57600080fd5b5061200a89828a01611ea1565b92505060a087013590509295509295509295565b60006020828403121561203057600080fd5b611d5682611dcf565b6000806040838503121561204c57600080fd5b50508035926020909101359150565b6000806040838503121561206e57600080fd5b61207783611dcf565b91506020830135801515811461208c57600080fd5b809150509250929050565b600080600080608085870312156120ad57600080fd5b6120b685611dcf565b93506120c460208601611dcf565b925060408501359150606085013567ffffffffffffffff8111156120e757600080fd5b8501601f810187136120f857600080fd5b61210787823560208401611e2b565b91505092959194509250565b60a08152600061212660a0830188611d5d565b82810360208401526121388188611d5d565b9050828103604084015261214c8187611d5d565b905082810360608401526121608186611d5d565b90508281036080840152610cc58185611d5d565b6000806040838503121561218757600080fd5b61219083611dcf565b915061219e60208401611dcf565b90509250929050565b600181811c908216806121bb57607f821691505b6020821081036121db57634e487b7160e01b600052602260045260246000fd5b50919050565b601f8211156107cf57600081815260208120601f850160051c810160208610156122085750805b601f850160051c820191505b8181101561222757828155600101612214565b505050505050565b815167ffffffffffffffff81111561224957612249611e15565b61225d8161225784546121a7565b846121e1565b602080601f831160018114612292576000841561227a5750858301515b600019600386901b1c1916600185901b178555612227565b600085815260208120601f198616915b828110156122c1578886015182559484019460019091019084016122a2565b50858210156122df5787850151600019600388901b60f8161c191681555b5050505050600190811b01905550565b634e487b7160e01b600052601160045260246000fd5b808201808211156105fb576105fb6122ef565b6020808252602d908201527f4552433732313a2063616c6c6572206973206e6f7420746f6b656e206f776e6560408201526c1c881bdc88185c1c1c9bdd9959609a1b606082015260800190565b60208082526025908201527f4552433732313a207472616e736665722066726f6d20696e636f72726563742060408201526437bbb732b960d91b606082015260800190565b60208082526032908201527f4552433732313a207472616e7366657220746f206e6f6e20455243373231526560408201527131b2b4bb32b91034b6b83632b6b2b73a32b960711b606082015260800190565b818103818111156105fb576105fb6122ef565b6001600160a01b038581168252841660208201526040810183905260806060820181905260009061244290830184611d5d565b9695505050505050565b60006020828403121561245e57600080fd5b8151611d5681611d2356fea264697066735822122033550f5e9d9a0b251113f4c922308c94df870cf282cea7b2731c2a225b58093a64736f6c63430008110033",
    "sourcePath": "/home/ubuntu/code/capstone/capstone_project/contracts/PropertyToken.sol",
    "compiler": {
        "name": "solc",
        "version": "0.8.17+commit.8df45f5f"
    },
    "functionHashes": {
        "_propertylist(uint256)": "cb96fb48",
        "_set_for_sale(uint256)": "6f73fb6b",
        "approve(address,uint256)": "095ea7b3",
        "balanceOf(address)": "70a08231",
        "bid()": "1998aeef",
        "bidProperty(uint256,uint256)": "fd508728",
        "bids(address)": "62ea82db",
        "cancel_auction(uint256)": "5990ee2a",
        "end(uint256)": "0ad24528",
        "endAt()": "7cc3ae8c",
        "ended()": "12fa6feb",
        "getApproved(uint256)": "081812fc",
        "get_property_location(uint256)": "78a8353e",
        "highest_bid()": "e5c60091",
        "highest_bidder()": "bd9215f4",
        "isApprovedForAll(address,address)": "e985e9c5",
        "name()": "06fdde03",
        "ownerOf(uint256)": "6352211e",
        "registerProperty(string,string,string,string,string,uint256)": "596b8357",
        "safeTransferFrom(address,address,uint256)": "42842e0e",
        "safeTransferFrom(address,address,uint256,bytes)": "b88d4fde",
        "setApprovalForAll(address,bool)": "a22cb465",
        "setTokenURI(uint256,string)": "162094c4",
        "start(uint256,uint256)": "8fb4b573",
        "started()": "1f2698ab",
        "supportsInterface(bytes4)": "01ffc9a7",
        "symbol()": "95d89b41",
        "tokenURI(uint256)": "c87b56dd",
        "transferFrom(address,address,uint256)": "23b872dd",
        "withdraw()": "3ccfd60b"
    },
    "gasEstimates": {
        "creation": {
            "codeDepositCost": "1875000",
            "executionCost": "infinite",
            "totalCost": "infinite"
        },
        "external": {
            "_propertylist(uint256)": "infinite",
            "_set_for_sale(uint256)": "24567",
            "approve(address,uint256)": "infinite",
            "balanceOf(address)": "2679",
            "bid()": "85051",
            "bidProperty(uint256,uint256)": "infinite",
            "bids(address)": "2630",
            "cancel_auction(uint256)": "infinite",
            "end(uint256)": "infinite",
            "endAt()": "2362",
            "ended()": "2400",
            "getApproved(uint256)": "4815",
            "get_property_location(uint256)": "infinite",
            "highest_bid()": "2361",
            "highest_bidder()": "2426",
            "isApprovedForAll(address,address)": "infinite",
            "name()": "infinite",
            "ownerOf(uint256)": "2584",
            "registerProperty(string,string,string,string,string,uint256)": "infinite",
            "safeTransferFrom(address,address,uint256)": "infinite",
            "safeTransferFrom(address,address,uint256,bytes)": "infinite",
            "setApprovalForAll(address,bool)": "26728",
            "setTokenURI(uint256,string)": "infinite",
            "start(uint256,uint256)": "infinite",
            "started()": "2367",
            "supportsInterface(bytes4)": "557",
            "symbol()": "infinite",
            "tokenURI(uint256)": "infinite",
            "transferFrom(address,address,uint256)": "infinite",
            "withdraw()": "infinite"
        }
    }
}