{
    "contractName": "PropertyContract",
    "abi": [
        {
            "inputs": [],
            "stateMutability": "nonpayable",
            "type": "constructor"
        },
        {
            "anonymous": false,
            "inputs": [
                {
                    "indexed": true,
                    "internalType": "address",
                    "name": "owner",
                    "type": "address"
                },
                {
                    "indexed": true,
                    "internalType": "address",
                    "name": "approved",
                    "type": "address"
                },
                {
                    "indexed": true,
                    "internalType": "uint256",
                    "name": "tokenId",
                    "type": "uint256"
                }
            ],
            "name": "Approval",
            "type": "event"
        },
        {
            "anonymous": false,
            "inputs": [
                {
                    "indexed": true,
                    "internalType": "address",
                    "name": "owner",
                    "type": "address"
                },
                {
                    "indexed": true,
                    "internalType": "address",
                    "name": "operator",
                    "type": "address"
                },
                {
                    "indexed": false,
                    "internalType": "bool",
                    "name": "approved",
                    "type": "bool"
                }
            ],
            "name": "ApprovalForAll",
            "type": "event"
        },
        {
            "anonymous": false,
            "inputs": [
                {
                    "indexed": true,
                    "internalType": "address",
                    "name": "sender",
                    "type": "address"
                },
                {
                    "indexed": false,
                    "internalType": "uint256",
                    "name": "amount",
                    "type": "uint256"
                }
            ],
            "name": "Bid",
            "type": "event"
        },
        {
            "anonymous": false,
            "inputs": [
                {
                    "indexed": false,
                    "internalType": "address",
                    "name": "owner",
                    "type": "address"
                }
            ],
            "name": "ContractOwnerShipTransferred",
            "type": "event"
        },
        {
            "anonymous": false,
            "inputs": [
                {
                    "indexed": false,
                    "internalType": "address",
                    "name": "winner",
                    "type": "address"
                },
                {
                    "indexed": false,
                    "internalType": "uint256",
                    "name": "amount",
                    "type": "uint256"
                }
            ],
            "name": "End",
            "type": "event"
        },
        {
            "anonymous": false,
            "inputs": [],
            "name": "Start",
            "type": "event"
        },
        {
            "anonymous": false,
            "inputs": [
                {
                    "indexed": true,
                    "internalType": "address",
                    "name": "from",
                    "type": "address"
                },
                {
                    "indexed": true,
                    "internalType": "address",
                    "name": "to",
                    "type": "address"
                },
                {
                    "indexed": true,
                    "internalType": "uint256",
                    "name": "tokenId",
                    "type": "uint256"
                }
            ],
            "name": "Transfer",
            "type": "event"
        },
        {
            "anonymous": false,
            "inputs": [
                {
                    "indexed": true,
                    "internalType": "address",
                    "name": "bidder",
                    "type": "address"
                },
                {
                    "indexed": false,
                    "internalType": "uint256",
                    "name": "amount",
                    "type": "uint256"
                }
            ],
            "name": "Withdraw",
            "type": "event"
        },
        {
            "inputs": [
                {
                    "internalType": "uint256",
                    "name": "",
                    "type": "uint256"
                }
            ],
            "name": "_propertylist",
            "outputs": [
                {
                    "internalType": "string",
                    "name": "location",
                    "type": "string"
                },
                {
                    "internalType": "string",
                    "name": "unit_block",
                    "type": "string"
                },
                {
                    "internalType": "string",
                    "name": "unit_floor",
                    "type": "string"
                },
                {
                    "internalType": "string",
                    "name": "unit_flat",
                    "type": "string"
                },
                {
                    "internalType": "string",
                    "name": "prop_id",
                    "type": "string"
                }
            ],
            "stateMutability": "view",
            "type": "function"
        },
        {
            "inputs": [
                {
                    "internalType": "address",
                    "name": "to",
                    "type": "address"
                },
                {
                    "internalType": "uint256",
                    "name": "tokenId",
                    "type": "uint256"
                }
            ],
            "name": "approve",
            "outputs": [],
            "stateMutability": "nonpayable",
            "type": "function"
        },
        {
            "inputs": [
                {
                    "internalType": "address",
                    "name": "owner",
                    "type": "address"
                }
            ],
            "name": "balanceOf",
            "outputs": [
                {
                    "internalType": "uint256",
                    "name": "",
                    "type": "uint256"
                }
            ],
            "stateMutability": "view",
            "type": "function"
        },
        {
            "inputs": [],
            "name": "bid",
            "outputs": [],
            "stateMutability": "payable",
            "type": "function"
        },
        {
            "inputs": [
                {
                    "internalType": "uint256",
                    "name": "tokenId",
                    "type": "uint256"
                },
                {
                    "internalType": "uint256",
                    "name": "bidPrice",
                    "type": "uint256"
                }
            ],
            "name": "bidProperty",
            "outputs": [],
            "stateMutability": "payable",
            "type": "function"
        },
        {
            "inputs": [
                {
                    "internalType": "address",
                    "name": "",
                    "type": "address"
                }
            ],
            "name": "bids",
            "outputs": [
                {
                    "internalType": "uint256",
                    "name": "",
                    "type": "uint256"
                }
            ],
            "stateMutability": "view",
            "type": "function"
        },
        {
            "inputs": [],
            "name": "cancel_auction",
            "outputs": [],
            "stateMutability": "nonpayable",
            "type": "function"
        },
        {
            "inputs": [],
            "name": "end",
            "outputs": [],
            "stateMutability": "nonpayable",
            "type": "function"
        },
        {
            "inputs": [],
            "name": "endAt",
            "outputs": [
                {
                    "internalType": "uint256",
                    "name": "",
                    "type": "uint256"
                }
            ],
            "stateMutability": "view",
            "type": "function"
        },
        {
            "inputs": [],
            "name": "ended",
            "outputs": [
                {
                    "internalType": "bool",
                    "name": "",
                    "type": "bool"
                }
            ],
            "stateMutability": "view",
            "type": "function"
        },
        {
            "inputs": [
                {
                    "internalType": "uint256",
                    "name": "tokenId",
                    "type": "uint256"
                }
            ],
            "name": "getApproved",
            "outputs": [
                {
                    "internalType": "address",
                    "name": "",
                    "type": "address"
                }
            ],
            "stateMutability": "view",
            "type": "function"
        },
        {
            "inputs": [
                {
                    "internalType": "uint256",
                    "name": "tokenId",
                    "type": "uint256"
                }
            ],
            "name": "get_property_location",
            "outputs": [
                {
                    "internalType": "string",
                    "name": "",
                    "type": "string"
                }
            ],
            "stateMutability": "view",
            "type": "function"
        },
        {
            "inputs": [],
            "name": "highest_bid",
            "outputs": [
                {
                    "internalType": "uint256",
                    "name": "",
                    "type": "uint256"
                }
            ],
            "stateMutability": "view",
            "type": "function"
        },
        {
            "inputs": [],
            "name": "highest_bidder",
            "outputs": [
                {
                    "internalType": "address",
                    "name": "",
                    "type": "address"
                }
            ],
            "stateMutability": "view",
            "type": "function"
        },
        {
            "inputs": [
                {
                    "internalType": "address",
                    "name": "owner",
                    "type": "address"
                },
                {
                    "internalType": "address",
                    "name": "operator",
                    "type": "address"
                }
            ],
            "name": "isApprovedForAll",
            "outputs": [
                {
                    "internalType": "bool",
                    "name": "",
                    "type": "bool"
                }
            ],
            "stateMutability": "view",
            "type": "function"
        },
        {
            "inputs": [],
            "name": "name",
            "outputs": [
                {
                    "internalType": "string",
                    "name": "",
                    "type": "string"
                }
            ],
            "stateMutability": "view",
            "type": "function"
        },
        {
            "inputs": [
                {
                    "internalType": "uint256",
                    "name": "tokenId",
                    "type": "uint256"
                }
            ],
            "name": "ownerOf",
            "outputs": [
                {
                    "internalType": "address",
                    "name": "",
                    "type": "address"
                }
            ],
            "stateMutability": "view",
            "type": "function"
        },
        {
            "inputs": [
                {
                    "internalType": "string",
                    "name": "_location",
                    "type": "string"
                },
                {
                    "internalType": "string",
                    "name": "_unit_block",
                    "type": "string"
                },
                {
                    "internalType": "string",
                    "name": "_unit_floor",
                    "type": "string"
                },
                {
                    "internalType": "string",
                    "name": "_unit_flat",
                    "type": "string"
                },
                {
                    "internalType": "string",
                    "name": "_prop_id",
                    "type": "string"
                },
                {
                    "internalType": "uint256",
                    "name": "_target_price",
                    "type": "uint256"
                }
            ],
            "name": "registerProperty",
            "outputs": [
                {
                    "internalType": "uint256",
                    "name": "",
                    "type": "uint256"
                }
            ],
            "stateMutability": "nonpayable",
            "type": "function"
        },
        {
            "inputs": [
                {
                    "internalType": "address",
                    "name": "from",
                    "type": "address"
                },
                {
                    "internalType": "address",
                    "name": "to",
                    "type": "address"
                },
                {
                    "internalType": "uint256",
                    "name": "tokenId",
                    "type": "uint256"
                }
            ],
            "name": "safeTransferFrom",
            "outputs": [],
            "stateMutability": "nonpayable",
            "type": "function"
        },
        {
            "inputs": [
                {
                    "internalType": "address",
                    "name": "from",
                    "type": "address"
                },
                {
                    "internalType": "address",
                    "name": "to",
                    "type": "address"
                },
                {
                    "internalType": "uint256",
                    "name": "tokenId",
                    "type": "uint256"
                },
                {
                    "internalType": "bytes",
                    "name": "data",
                    "type": "bytes"
                }
            ],
            "name": "safeTransferFrom",
            "outputs": [],
            "stateMutability": "nonpayable",
            "type": "function"
        },
        {
            "inputs": [
                {
                    "internalType": "address",
                    "name": "operator",
                    "type": "address"
                },
                {
                    "internalType": "bool",
                    "name": "approved",
                    "type": "bool"
                }
            ],
            "name": "setApprovalForAll",
            "outputs": [],
            "stateMutability": "nonpayable",
            "type": "function"
        },
        {
            "inputs": [
                {
                    "internalType": "uint256",
                    "name": "tokenId",
                    "type": "uint256"
                },
                {
                    "internalType": "string",
                    "name": "URI",
                    "type": "string"
                }
            ],
            "name": "setTokenURI",
            "outputs": [],
            "stateMutability": "nonpayable",
            "type": "function"
        },
        {
            "inputs": [
                {
                    "internalType": "uint256",
                    "name": "tokenId",
                    "type": "uint256"
                }
            ],
            "name": "set_for_sale",
            "outputs": [],
            "stateMutability": "nonpayable",
            "type": "function"
        },
        {
            "inputs": [
                {
                    "internalType": "uint256",
                    "name": "tokenId",
                    "type": "uint256"
                },
                {
                    "internalType": "uint256",
                    "name": "start_bid",
                    "type": "uint256"
                }
            ],
            "name": "start",
            "outputs": [],
            "stateMutability": "nonpayable",
            "type": "function"
        },
        {
            "inputs": [],
            "name": "started",
            "outputs": [
                {
                    "internalType": "bool",
                    "name": "",
                    "type": "bool"
                }
            ],
            "stateMutability": "view",
            "type": "function"
        },
        {
            "inputs": [
                {
                    "internalType": "bytes4",
                    "name": "interfaceId",
                    "type": "bytes4"
                }
            ],
            "name": "supportsInterface",
            "outputs": [
                {
                    "internalType": "bool",
                    "name": "",
                    "type": "bool"
                }
            ],
            "stateMutability": "view",
            "type": "function"
        },
        {
            "inputs": [],
            "name": "symbol",
            "outputs": [
                {
                    "internalType": "string",
                    "name": "",
                    "type": "string"
                }
            ],
            "stateMutability": "view",
            "type": "function"
        },
        {
            "inputs": [
                {
                    "internalType": "uint256",
                    "name": "tokenId",
                    "type": "uint256"
                }
            ],
            "name": "tokenURI",
            "outputs": [
                {
                    "internalType": "string",
                    "name": "",
                    "type": "string"
                }
            ],
            "stateMutability": "view",
            "type": "function"
        },
        {
            "inputs": [
                {
                    "internalType": "address",
                    "name": "from",
                    "type": "address"
                },
                {
                    "internalType": "address",
                    "name": "to",
                    "type": "address"
                },
                {
                    "internalType": "uint256",
                    "name": "tokenId",
                    "type": "uint256"
                }
            ],
            "name": "transferFrom",
            "outputs": [],
            "stateMutability": "nonpayable",
            "type": "function"
        },
        {
            "inputs": [],
            "name": "withdraw",
            "outputs": [],
            "stateMutability": "nonpayable",
            "type": "function"
        }
    ],
    "bytecode": "60806040523480156200001157600080fd5b506040518060400160405280600e81526020016d50726f7065727479546f6b656e7360901b81525060405180604001604052806002815260200161141560f21b8152508160009081620000659190620001d1565b506001620000748282620001d1565b5050600e80546001600160a01b03191633178155604080518082019091529081526d50726f7065727479546f6b656e7360901b6020820152600c9150620000bc9082620001d1565b50604080518082019091526002815261141560f21b6020820152600d90620000e59082620001d1565b50600e546040516001600160a01b0390911681527fedc72216363839831f76919254ddbbadce2234833dfa8fb47dcdbe73035b8a609060200160405180910390a16200029d565b634e487b7160e01b600052604160045260246000fd5b600181811c908216806200015757607f821691505b6020821081036200017857634e487b7160e01b600052602260045260246000fd5b50919050565b601f821115620001cc57600081815260208120601f850160051c81016020861015620001a75750805b601f850160051c820191505b81811015620001c857828155600101620001b3565b5050505b505050565b81516001600160401b03811115620001ed57620001ed6200012c565b6200020581620001fe845462000142565b846200017e565b602080601f8311600181146200023d5760008415620002245750858301515b600019600386901b1c1916600185901b178555620001c8565b600085815260208120601f198616915b828110156200026e578886015182559484019460019091019084016200024d565b50858210156200028d5787850151600019600388901b60f8161c191681555b5050505050600190811b01905550565b61239780620002ad6000396000f3fe6080604052600436106101cd5760003560e01c806370a08231116100f7578063bd9215f411610095578063e5c6009111610064578063e5c6009114610532578063e985e9c514610548578063efbe1c1c14610568578063fd5087281461057d57600080fd5b8063bd9215f41461048b578063bdd3fea0146104ab578063c87b56dd146104e1578063cb96fb481461050157600080fd5b80638fb4b573116100d15780638fb4b5731461041657806395d89b4114610436578063a22cb4651461044b578063b88d4fde1461046b57600080fd5b806370a08231146103c057806378a8353e146103e05780637cc3ae8c1461040057600080fd5b80631f2698ab1161016f57806342842e0e1161013e57806342842e0e14610325578063596b83571461034557806362ea82db146103735780636352211e146103a057600080fd5b80631f2698ab146102ca57806323b872dd146102e45780633ba88ca1146103045780633ccfd60b1461031057600080fd5b8063095ea7b3116101ab578063095ea7b31461026157806312fa6feb14610283578063162094c4146102a25780631998aeef146102c257600080fd5b806301ffc9a7146101d257806306fdde0314610207578063081812fc14610229575b600080fd5b3480156101de57600080fd5b506101f26101ed366004611c31565b610590565b60405190151581526020015b60405180910390f35b34801561021357600080fd5b5061021c6105e2565b6040516101fe9190611c9b565b34801561023557600080fd5b50610249610244366004611cae565b610674565b6040516001600160a01b0390911681526020016101fe565b34801561026d57600080fd5b5061028161027c366004611ce3565b61069b565b005b34801561028f57600080fd5b506010546101f290610100900460ff1681565b3480156102ae57600080fd5b506102816102bd366004611db9565b6107b5565b610281610838565b3480156102d657600080fd5b506010546101f29060ff1681565b3480156102f057600080fd5b506102816102ff366004611e00565b6109a1565b34801561028157600080fd5b34801561031c57600080fd5b506102816109d2565b34801561033157600080fd5b50610281610340366004611e00565b610a4c565b34801561035157600080fd5b50610365610360366004611e3c565b610a67565b6040519081526020016101fe565b34801561037f57600080fd5b5061036561038e366004611f16565b60146020526000908152604090205481565b3480156103ac57600080fd5b506102496103bb366004611cae565b610bd7565b3480156103cc57600080fd5b506103656103db366004611f16565b610c37565b3480156103ec57600080fd5b5061021c6103fb366004611cae565b610cbd565b34801561040c57600080fd5b5061036560115481565b34801561042257600080fd5b50610281610431366004611f31565b610d61565b34801561044257600080fd5b5061021c610e80565b34801561045757600080fd5b50610281610466366004611f53565b610e8f565b34801561047757600080fd5b50610281610486366004611f8f565b610e9e565b34801561049757600080fd5b50601254610249906001600160a01b031681565b3480156104b757600080fd5b506102816104c6366004611cae565b6000908152600a60205260409020805460ff19166001179055565b3480156104ed57600080fd5b5061021c6104fc366004611cae565b610ed0565b34801561050d57600080fd5b5061052161051c366004611cae565b610fd7565b6040516101fe95949392919061200b565b34801561053e57600080fd5b5061036560135481565b34801561055457600080fd5b506101f261056336600461206c565b6112ad565b34801561057457600080fd5b506102816112db565b61028161058b366004611f31565b61138c565b60006001600160e01b031982166380ac58cd60e01b14806105c157506001600160e01b03198216635b5e139f60e01b145b806105dc57506301ffc9a760e01b6001600160e01b03198316145b92915050565b6060600080546105f19061209f565b80601f016020809104026020016040519081016040528092919081815260200182805461061d9061209f565b801561066a5780601f1061063f5761010080835404028352916020019161066a565b820191906000526020600020905b81548152906001019060200180831161064d57829003601f168201915b5050505050905090565b600061067f82611558565b506000908152600460205260409020546001600160a01b031690565b60006106a682610bd7565b9050806001600160a01b0316836001600160a01b0316036107185760405162461bcd60e51b815260206004820152602160248201527f4552433732313a20617070726f76616c20746f2063757272656e74206f776e656044820152603960f91b60648201526084015b60405180910390fd5b336001600160a01b0382161480610734575061073481336112ad565b6107a65760405162461bcd60e51b815260206004820152603d60248201527f4552433732313a20617070726f76652063616c6c6572206973206e6f7420746f60448201527f6b656e206f776e6572206f7220617070726f76656420666f7220616c6c000000606482015260840161070f565b6107b083836115ba565b505050565b6000828152600760205260409020546001600160a01b03168061081a5760405162461bcd60e51b815260206004820152601c60248201527f4552524f523a20746f6b656e206964206973206e6f742076616c696400000000604482015260640161070f565b6000838152600b602052604090206108328382612127565b50505050565b60105460ff166108785760405162461bcd60e51b815260206004820152600b60248201526a1b9bdd081cdd185c9d195960aa1b604482015260640161070f565b60115442106108b15760405162461bcd60e51b8152602060048201526005602482015264195b99195960da1b604482015260640161070f565b601354341161090d5760405162461bcd60e51b815260206004820152602260248201527f6269642076616c756520736d616c6c6572207468616e206869676865737420626044820152611a5960f21b606482015260840161070f565b6012546001600160a01b031615610951576013546012546001600160a01b03166000908152601460205260408120805490919061094b9084906121fd565b90915550505b601280546001600160a01b031916339081179091553460138190556040519081527fe684a55f31b79eca403df938249029212a5925ec6be8012e099b45bc1019e5d29060200160405180910390a2565b6109ab3382611628565b6109c75760405162461bcd60e51b815260040161070f90612210565b6107b0838383611687565b33600081815260146020526040808220805490839055905190929183156108fc02918491818181858888f19350505050158015610a13573d6000803e3d6000fd5b5060405181815233907f884edad9ce6fa2440d8a54cc123490eb96d2768479d49ff9c7366125a94243649060200160405180910390a250565b6107b083838360405180602001604052806000815250610e9e565b600e546000906001600160a01b03163314610ac45760405162461bcd60e51b815260206004820181905260248201527f4f6e6c79206f776e65722063616e2072656769737465722070726f7065727479604482015260640161070f565b60006040518060a001604052808981526020018881526020018781526020018681526020018581525090506000610afa60065490565b6000818152600860205260409020835191925083918190610b1b9082612127565b5060208201516001820190610b309082612127565b5060408201516002820190610b459082612127565b5060608201516003820190610b5a9082612127565b5060808201516004820190610b6f9082612127565b505050600081815260076020908152604080832080546001600160a01b0319163390811790915560098352818420889055600a909252909120805460ff19166001179055610bbd90826117f8565b610bcb600680546001019055565b98975050505050505050565b6000818152600260205260408120546001600160a01b0316806105dc5760405162461bcd60e51b8152602060048201526018602482015277115490cdcc8c4e881a5b9d985b1a59081d1bdad95b88125160421b604482015260640161070f565b60006001600160a01b038216610ca15760405162461bcd60e51b815260206004820152602960248201527f4552433732313a2061646472657373207a65726f206973206e6f7420612076616044820152683634b21037bbb732b960b91b606482015260840161070f565b506001600160a01b031660009081526003602052604090205490565b600081815260086020526040812080546060929190610cdb9061209f565b80601f0160208091040260200160405190810160405280929190818152602001828054610d079061209f565b8015610d545780601f10610d2957610100808354040283529160200191610d54565b820191906000526020600020905b815481529060010190602001808311610d3757829003601f168201915b5093979650505050505050565b60105460ff1615610dc05760405162461bcd60e51b815260206004820152602360248201527f41756374696f6e20686173206265656e20737461727465642070726576696f75604482015262736c7960e81b606482015260840161070f565b6000610dcb83610bd7565b9050336001600160a01b03821614610e1a5760405162461bcd60e51b81526020600482015260126024820152713737ba10383937b832b93a3c9037bbb732b960711b604482015260640161070f565b610e25333085611687565b60008381526007602052604080822080546001600160a01b031916301790556010805460ff191660011790556013849055517f1b55ba3aa851a46be3b365aee5b5c140edd620d578922f3e8466d2cbd96f954b9190a1505050565b6060600180546105f19061209f565b610e9a338383611991565b5050565b610ea83383611628565b610ec45760405162461bcd60e51b815260040161070f90612210565b61083284848484611a5f565b6000818152600760205260409020546060906001600160a01b031680610f385760405162461bcd60e51b815260206004820152601c60248201527f4552524f523a20746f6b656e206964206973206e6f742076616c696400000000604482015260640161070f565b6000838152600b602052604090208054610f519061209f565b80601f0160208091040260200160405190810160405280929190818152602001828054610f7d9061209f565b8015610fca5780601f10610f9f57610100808354040283529160200191610fca565b820191906000526020600020905b815481529060010190602001808311610fad57829003601f168201915b5050505050915050919050565b600860205260009081526040902080548190610ff29061209f565b80601f016020809104026020016040519081016040528092919081815260200182805461101e9061209f565b801561106b5780601f106110405761010080835404028352916020019161106b565b820191906000526020600020905b81548152906001019060200180831161104e57829003601f168201915b5050505050908060010180546110809061209f565b80601f01602080910402602001604051908101604052809291908181526020018280546110ac9061209f565b80156110f95780601f106110ce576101008083540402835291602001916110f9565b820191906000526020600020905b8154815290600101906020018083116110dc57829003601f168201915b50505050509080600201805461110e9061209f565b80601f016020809104026020016040519081016040528092919081815260200182805461113a9061209f565b80156111875780601f1061115c57610100808354040283529160200191611187565b820191906000526020600020905b81548152906001019060200180831161116a57829003601f168201915b50505050509080600301805461119c9061209f565b80601f01602080910402602001604051908101604052809291908181526020018280546111c89061209f565b80156112155780601f106111ea57610100808354040283529160200191611215565b820191906000526020600020905b8154815290600101906020018083116111f857829003601f168201915b50505050509080600401805461122a9061209f565b80601f01602080910402602001604051908101604052809291908181526020018280546112569061209f565b80156112a35780601f10611278576101008083540402835291602001916112a3565b820191906000526020600020905b81548152906001019060200180831161128657829003601f168201915b5050505050905085565b6001600160a01b03918216600090815260056020908152604080832093909416825291909152205460ff1690565b60105460ff166113235760405162461bcd60e51b8152602060048201526013602482015272105d58dd1a5bdb881b9bdd081cdd185c9d1959606a1b604482015260640161070f565b601054610100900460ff161561137b5760405162461bcd60e51b815260206004820152601a60248201527f41756374696f6e2068617320616c726561647920656e65646564000000000000604482015260640161070f565b6010805461ff001916610100179055565b6000828152600760205260409020546001600160a01b031633036113f25760405162461bcd60e51b815260206004820152601d60248201527f4f776e65722063616e6e6f7420627579207468652070726f7065727479000000604482015260640161070f565b60008281526009602052604090205481101561146d5760405162461bcd60e51b815260206004820152603460248201527f596f7520626964207072696365206973206c6f776572207468616e20746865206044820152737461726765742073656c6c696e6720707269636560601b606482015260840161070f565b6000828152600a602052604090205460ff1615156001146114dc5760405162461bcd60e51b815260206004820152602360248201527f50726f7065727479206e6f7420666f722073616c6520617420746865206d6f6d604482015262195b9d60ea1b606482015260840161070f565b60006114e783610bd7565b90506114f4813385611687565b6000838152600a60209081526040808320805460ff19169055600790915280822080546001600160a01b03191633179055516001600160a01b038316913480156108fc02929091818181858888f19350505050158015610832573d6000803e3d6000fd5b6000818152600260205260409020546001600160a01b03166115b75760405162461bcd60e51b8152602060048201526018602482015277115490cdcc8c4e881a5b9d985b1a59081d1bdad95b88125160421b604482015260640161070f565b50565b600081815260046020526040902080546001600160a01b0319166001600160a01b03841690811790915581906115ef82610bd7565b6001600160a01b03167f8c5be1e5ebec7d5bd14f71427d1e84f3dd0314c0f7b2291e5b200ac8c7c3b92560405160405180910390a45050565b60008061163483610bd7565b9050806001600160a01b0316846001600160a01b0316148061165b575061165b81856112ad565b8061167f5750836001600160a01b031661167484610674565b6001600160a01b0316145b949350505050565b826001600160a01b031661169a82610bd7565b6001600160a01b0316146116c05760405162461bcd60e51b815260040161070f9061225d565b6001600160a01b0382166117225760405162461bcd60e51b8152602060048201526024808201527f4552433732313a207472616e7366657220746f20746865207a65726f206164646044820152637265737360e01b606482015260840161070f565b61172f8383836001611a92565b826001600160a01b031661174282610bd7565b6001600160a01b0316146117685760405162461bcd60e51b815260040161070f9061225d565b600081815260046020908152604080832080546001600160a01b03199081169091556001600160a01b0387811680865260038552838620805460001901905590871680865283862080546001019055868652600290945282852080549092168417909155905184937fddf252ad1be2c89b69c2b068fc378daa952ba7f163c4a11628f55a4df523b3ef91a4505050565b6001600160a01b03821661184e5760405162461bcd60e51b815260206004820181905260248201527f4552433732313a206d696e7420746f20746865207a65726f2061646472657373604482015260640161070f565b6000818152600260205260409020546001600160a01b0316156118b35760405162461bcd60e51b815260206004820152601c60248201527f4552433732313a20746f6b656e20616c7265616479206d696e74656400000000604482015260640161070f565b6118c1600083836001611a92565b6000818152600260205260409020546001600160a01b0316156119265760405162461bcd60e51b815260206004820152601c60248201527f4552433732313a20746f6b656e20616c7265616479206d696e74656400000000604482015260640161070f565b6001600160a01b038216600081815260036020908152604080832080546001019055848352600290915280822080546001600160a01b0319168417905551839291907fddf252ad1be2c89b69c2b068fc378daa952ba7f163c4a11628f55a4df523b3ef908290a45050565b816001600160a01b0316836001600160a01b0316036119f25760405162461bcd60e51b815260206004820152601960248201527f4552433732313a20617070726f766520746f2063616c6c657200000000000000604482015260640161070f565b6001600160a01b03838116600081815260056020908152604080832094871680845294825291829020805460ff191686151590811790915591519182527f17307eab39ab6107e8899845ad3d59bd9653f200f220920489ca2b5937696c31910160405180910390a3505050565b611a6a848484611687565b611a7684848484611b1a565b6108325760405162461bcd60e51b815260040161070f906122a2565b6001811115610832576001600160a01b03841615611ad8576001600160a01b03841660009081526003602052604081208054839290611ad29084906122f4565b90915550505b6001600160a01b03831615610832576001600160a01b03831660009081526003602052604081208054839290611b0f9084906121fd565b909155505050505050565b60006001600160a01b0384163b15611c1057604051630a85bd0160e11b81526001600160a01b0385169063150b7a0290611b5e903390899088908890600401612307565b6020604051808303816000875af1925050508015611b99575060408051601f3d908101601f19168201909252611b9691810190612344565b60015b611bf6573d808015611bc7576040519150601f19603f3d011682016040523d82523d6000602084013e611bcc565b606091505b508051600003611bee5760405162461bcd60e51b815260040161070f906122a2565b805181602001fd5b6001600160e01b031916630a85bd0160e11b14905061167f565b506001949350505050565b6001600160e01b0319811681146115b757600080fd5b600060208284031215611c4357600080fd5b8135611c4e81611c1b565b9392505050565b6000815180845260005b81811015611c7b57602081850181015186830182015201611c5f565b506000602082860101526020601f19601f83011685010191505092915050565b602081526000611c4e6020830184611c55565b600060208284031215611cc057600080fd5b5035919050565b80356001600160a01b0381168114611cde57600080fd5b919050565b60008060408385031215611cf657600080fd5b611cff83611cc7565b946020939093013593505050565b634e487b7160e01b600052604160045260246000fd5b600067ffffffffffffffff80841115611d3e57611d3e611d0d565b604051601f8501601f19908116603f01168101908282118183101715611d6657611d66611d0d565b81604052809350858152868686011115611d7f57600080fd5b858560208301376000602087830101525050509392505050565b600082601f830112611daa57600080fd5b611c4e83833560208501611d23565b60008060408385031215611dcc57600080fd5b82359150602083013567ffffffffffffffff811115611dea57600080fd5b611df685828601611d99565b9150509250929050565b600080600060608486031215611e1557600080fd5b611e1e84611cc7565b9250611e2c60208501611cc7565b9150604084013590509250925092565b60008060008060008060c08789031215611e5557600080fd5b863567ffffffffffffffff80821115611e6d57600080fd5b611e798a838b01611d99565b97506020890135915080821115611e8f57600080fd5b611e9b8a838b01611d99565b96506040890135915080821115611eb157600080fd5b611ebd8a838b01611d99565b95506060890135915080821115611ed357600080fd5b611edf8a838b01611d99565b94506080890135915080821115611ef557600080fd5b50611f0289828a01611d99565b92505060a087013590509295509295509295565b600060208284031215611f2857600080fd5b611c4e82611cc7565b60008060408385031215611f4457600080fd5b50508035926020909101359150565b60008060408385031215611f6657600080fd5b611f6f83611cc7565b915060208301358015158114611f8457600080fd5b809150509250929050565b60008060008060808587031215611fa557600080fd5b611fae85611cc7565b9350611fbc60208601611cc7565b925060408501359150606085013567ffffffffffffffff811115611fdf57600080fd5b8501601f81018713611ff057600080fd5b611fff87823560208401611d23565b91505092959194509250565b60a08152600061201e60a0830188611c55565b82810360208401526120308188611c55565b905082810360408401526120448187611c55565b905082810360608401526120588186611c55565b90508281036080840152610bcb8185611c55565b6000806040838503121561207f57600080fd5b61208883611cc7565b915061209660208401611cc7565b90509250929050565b600181811c908216806120b357607f821691505b6020821081036120d357634e487b7160e01b600052602260045260246000fd5b50919050565b601f8211156107b057600081815260208120601f850160051c810160208610156121005750805b601f850160051c820191505b8181101561211f5782815560010161210c565b505050505050565b815167ffffffffffffffff81111561214157612141611d0d565b6121558161214f845461209f565b846120d9565b602080601f83116001811461218a57600084156121725750858301515b600019600386901b1c1916600185901b17855561211f565b600085815260208120601f198616915b828110156121b95788860151825594840194600190910190840161219a565b50858210156121d75787850151600019600388901b60f8161c191681555b5050505050600190811b01905550565b634e487b7160e01b600052601160045260246000fd5b808201808211156105dc576105dc6121e7565b6020808252602d908201527f4552433732313a2063616c6c6572206973206e6f7420746f6b656e206f776e6560408201526c1c881bdc88185c1c1c9bdd9959609a1b606082015260800190565b60208082526025908201527f4552433732313a207472616e736665722066726f6d20696e636f72726563742060408201526437bbb732b960d91b606082015260800190565b60208082526032908201527f4552433732313a207472616e7366657220746f206e6f6e20455243373231526560408201527131b2b4bb32b91034b6b83632b6b2b73a32b960711b606082015260800190565b818103818111156105dc576105dc6121e7565b6001600160a01b038581168252841660208201526040810183905260806060820181905260009061233a90830184611c55565b9695505050505050565b60006020828403121561235657600080fd5b8151611c4e81611c1b56fea264697066735822122064723081991dd7496dc0bdf8fdb2ece95386af9846c63846b577d1514162519964736f6c63430008110033",
    "sourcePath": "/home/ubuntu/code/capstone/capstone_project/contracts/PropertyToken.sol",
    "compiler": {
        "name": "solc",
        "version": "0.8.17+commit.8df45f5f"
    },
    "functionHashes": {
        "_propertylist(uint256)": "cb96fb48",
        "approve(address,uint256)": "095ea7b3",
        "balanceOf(address)": "70a08231",
        "bid()": "1998aeef",
        "bidProperty(uint256,uint256)": "fd508728",
        "bids(address)": "62ea82db",
        "cancel_auction()": "3ba88ca1",
        "end()": "efbe1c1c",
        "endAt()": "7cc3ae8c",
        "ended()": "12fa6feb",
        "getApproved(uint256)": "081812fc",
        "get_property_location(uint256)": "78a8353e",
        "highest_bid()": "e5c60091",
        "highest_bidder()": "bd9215f4",
        "isApprovedForAll(address,address)": "e985e9c5",
        "name()": "06fdde03",
        "ownerOf(uint256)": "6352211e",
        "registerProperty(string,string,string,string,string,uint256)": "596b8357",
        "safeTransferFrom(address,address,uint256)": "42842e0e",
        "safeTransferFrom(address,address,uint256,bytes)": "b88d4fde",
        "setApprovalForAll(address,bool)": "a22cb465",
        "setTokenURI(uint256,string)": "162094c4",
        "set_for_sale(uint256)": "bdd3fea0",
        "start(uint256,uint256)": "8fb4b573",
        "started()": "1f2698ab",
        "supportsInterface(bytes4)": "01ffc9a7",
        "symbol()": "95d89b41",
        "tokenURI(uint256)": "c87b56dd",
        "transferFrom(address,address,uint256)": "23b872dd",
        "withdraw()": "3ccfd60b"
    },
    "gasEstimates": {
        "creation": {
            "codeDepositCost": "1822200",
            "executionCost": "infinite",
            "totalCost": "infinite"
        },
        "external": {
            "_propertylist(uint256)": "infinite",
            "approve(address,uint256)": "infinite",
            "balanceOf(address)": "2635",
            "bid()": "85117",
            "bidProperty(uint256,uint256)": "infinite",
            "bids(address)": "2608",
            "cancel_auction()": "213",
            "end()": "28716",
            "endAt()": "2385",
            "ended()": "2378",
            "getApproved(uint256)": "4815",
            "get_property_location(uint256)": "infinite",
            "highest_bid()": "2339",
            "highest_bidder()": "2382",
            "isApprovedForAll(address,address)": "infinite",
            "name()": "infinite",
            "ownerOf(uint256)": "2649",
            "registerProperty(string,string,string,string,string,uint256)": "infinite",
            "safeTransferFrom(address,address,uint256)": "infinite",
            "safeTransferFrom(address,address,uint256,bytes)": "infinite",
            "setApprovalForAll(address,bool)": "26772",
            "setTokenURI(uint256,string)": "infinite",
            "set_for_sale(uint256)": "24566",
            "start(uint256,uint256)": "infinite",
            "started()": "2345",
            "supportsInterface(bytes4)": "557",
            "symbol()": "infinite",
            "tokenURI(uint256)": "infinite",
            "transferFrom(address,address,uint256)": "infinite",
            "withdraw()": "infinite"
        }
    }
}