{
  "_format": "hh-sol-artifact-1",
  "contractName": "PropertyToken",
  "sourceName": "contracts/PropertyToken.sol",
  "abi": [
    {
      "inputs": [],
      "stateMutability": "nonpayable",
      "type": "constructor"
    },
    {
      "anonymous": false,
      "inputs": [
        {
          "indexed": true,
          "internalType": "address",
          "name": "owner",
          "type": "address"
        },
        {
          "indexed": true,
          "internalType": "address",
          "name": "approved",
          "type": "address"
        },
        {
          "indexed": true,
          "internalType": "uint256",
          "name": "tokenId",
          "type": "uint256"
        }
      ],
      "name": "Approval",
      "type": "event"
    },
    {
      "anonymous": false,
      "inputs": [
        {
          "indexed": true,
          "internalType": "address",
          "name": "owner",
          "type": "address"
        },
        {
          "indexed": true,
          "internalType": "address",
          "name": "operator",
          "type": "address"
        },
        {
          "indexed": false,
          "internalType": "bool",
          "name": "approved",
          "type": "bool"
        }
      ],
      "name": "ApprovalForAll",
      "type": "event"
    },
    {
      "anonymous": false,
      "inputs": [
        {
          "indexed": true,
          "internalType": "address",
          "name": "sender",
          "type": "address"
        },
        {
          "indexed": false,
          "internalType": "uint256",
          "name": "amount",
          "type": "uint256"
        }
      ],
      "name": "Bid",
      "type": "event"
    },
    {
      "anonymous": false,
      "inputs": [],
      "name": "Cancel",
      "type": "event"
    },
    {
      "anonymous": false,
      "inputs": [
        {
          "indexed": false,
          "internalType": "address",
          "name": "owner",
          "type": "address"
        }
      ],
      "name": "ContractOwnerShipTransferred",
      "type": "event"
    },
    {
      "anonymous": false,
      "inputs": [
        {
          "indexed": false,
          "internalType": "address",
          "name": "winner",
          "type": "address"
        },
        {
          "indexed": false,
          "internalType": "uint256",
          "name": "amount",
          "type": "uint256"
        }
      ],
      "name": "End",
      "type": "event"
    },
    {
      "anonymous": false,
      "inputs": [],
      "name": "Start",
      "type": "event"
    },
    {
      "anonymous": false,
      "inputs": [
        {
          "indexed": true,
          "internalType": "address",
          "name": "from",
          "type": "address"
        },
        {
          "indexed": true,
          "internalType": "address",
          "name": "to",
          "type": "address"
        },
        {
          "indexed": true,
          "internalType": "uint256",
          "name": "tokenId",
          "type": "uint256"
        }
      ],
      "name": "Transfer",
      "type": "event"
    },
    {
      "anonymous": false,
      "inputs": [
        {
          "indexed": true,
          "internalType": "address",
          "name": "sender",
          "type": "address"
        },
        {
          "indexed": false,
          "internalType": "uint256",
          "name": "auctionId",
          "type": "uint256"
        }
      ],
      "name": "Withdraw",
      "type": "event"
    },
    {
      "inputs": [
        {
          "internalType": "uint256",
          "name": "",
          "type": "uint256"
        }
      ],
      "name": "_auctions",
      "outputs": [
        {
          "internalType": "uint256",
          "name": "auctionTokenId",
          "type": "uint256"
        },
        {
          "internalType": "uint256",
          "name": "highestBid",
          "type": "uint256"
        },
        {
          "internalType": "address",
          "name": "highestBidder",
          "type": "address"
        },
        {
          "internalType": "address",
          "name": "seller",
          "type": "address"
        },
        {
          "internalType": "bool",
          "name": "started",
          "type": "bool"
        },
        {
          "internalType": "bool",
          "name": "ended",
          "type": "bool"
        },
        {
          "components": [
            {
              "internalType": "uint256",
              "name": "tokenId",
              "type": "uint256"
            },
            {
              "internalType": "string",
              "name": "building",
              "type": "string"
            },
            {
              "internalType": "address",
              "name": "owner",
              "type": "address"
            },
            {
              "internalType": "string",
              "name": "location",
              "type": "string"
            },
            {
              "internalType": "string",
              "name": "unit_block",
              "type": "string"
            },
            {
              "internalType": "string",
              "name": "unit_floor",
              "type": "string"
            },
            {
              "internalType": "string",
              "name": "unit_flat",
              "type": "string"
            },
            {
              "internalType": "string",
              "name": "prop_id",
              "type": "string"
            },
            {
              "internalType": "uint256",
              "name": "price",
              "type": "uint256"
            },
            {
              "internalType": "bool",
              "name": "for_sale",
              "type": "bool"
            },
            {
              "internalType": "bool",
              "name": "primary_mkt",
              "type": "bool"
            }
          ],
          "internalType": "struct PropertyToken.Property",
          "name": "auctionProperty",
          "type": "tuple"
        }
      ],
      "stateMutability": "view",
      "type": "function"
    },
    {
      "inputs": [
        {
          "internalType": "uint256",
          "name": "",
          "type": "uint256"
        }
      ],
      "name": "_propertylist",
      "outputs": [
        {
          "internalType": "uint256",
          "name": "tokenId",
          "type": "uint256"
        },
        {
          "internalType": "string",
          "name": "building",
          "type": "string"
        },
        {
          "internalType": "address",
          "name": "owner",
          "type": "address"
        },
        {
          "internalType": "string",
          "name": "location",
          "type": "string"
        },
        {
          "internalType": "string",
          "name": "unit_block",
          "type": "string"
        },
        {
          "internalType": "string",
          "name": "unit_floor",
          "type": "string"
        },
        {
          "internalType": "string",
          "name": "unit_flat",
          "type": "string"
        },
        {
          "internalType": "string",
          "name": "prop_id",
          "type": "string"
        },
        {
          "internalType": "uint256",
          "name": "price",
          "type": "uint256"
        },
        {
          "internalType": "bool",
          "name": "for_sale",
          "type": "bool"
        },
        {
          "internalType": "bool",
          "name": "primary_mkt",
          "type": "bool"
        }
      ],
      "stateMutability": "view",
      "type": "function"
    },
    {
      "inputs": [
        {
          "internalType": "address",
          "name": "to",
          "type": "address"
        },
        {
          "internalType": "uint256",
          "name": "tokenId",
          "type": "uint256"
        }
      ],
      "name": "approve",
      "outputs": [],
      "stateMutability": "nonpayable",
      "type": "function"
    },
    {
      "inputs": [],
      "name": "auction_seller",
      "outputs": [
        {
          "internalType": "address payable",
          "name": "",
          "type": "address"
        }
      ],
      "stateMutability": "view",
      "type": "function"
    },
    {
      "inputs": [
        {
          "internalType": "address",
          "name": "owner",
          "type": "address"
        }
      ],
      "name": "balanceOf",
      "outputs": [
        {
          "internalType": "uint256",
          "name": "",
          "type": "uint256"
        }
      ],
      "stateMutability": "view",
      "type": "function"
    },
    {
      "inputs": [
        {
          "internalType": "uint256",
          "name": "bidPrice",
          "type": "uint256"
        },
        {
          "internalType": "uint256",
          "name": "auctionId",
          "type": "uint256"
        }
      ],
      "name": "bid",
      "outputs": [],
      "stateMutability": "payable",
      "type": "function"
    },
    {
      "inputs": [
        {
          "internalType": "uint256",
          "name": "tokenId",
          "type": "uint256"
        },
        {
          "internalType": "uint256",
          "name": "bidPrice",
          "type": "uint256"
        }
      ],
      "name": "bidProperty",
      "outputs": [],
      "stateMutability": "payable",
      "type": "function"
    },
    {
      "inputs": [
        {
          "internalType": "uint256",
          "name": "auctionId",
          "type": "uint256"
        }
      ],
      "name": "end",
      "outputs": [],
      "stateMutability": "nonpayable",
      "type": "function"
    },
    {
      "inputs": [],
      "name": "getAllProps",
      "outputs": [
        {
          "components": [
            {
              "internalType": "uint256",
              "name": "tokenId",
              "type": "uint256"
            },
            {
              "internalType": "string",
              "name": "building",
              "type": "string"
            },
            {
              "internalType": "address",
              "name": "owner",
              "type": "address"
            },
            {
              "internalType": "string",
              "name": "location",
              "type": "string"
            },
            {
              "internalType": "string",
              "name": "unit_block",
              "type": "string"
            },
            {
              "internalType": "string",
              "name": "unit_floor",
              "type": "string"
            },
            {
              "internalType": "string",
              "name": "unit_flat",
              "type": "string"
            },
            {
              "internalType": "string",
              "name": "prop_id",
              "type": "string"
            },
            {
              "internalType": "uint256",
              "name": "price",
              "type": "uint256"
            },
            {
              "internalType": "bool",
              "name": "for_sale",
              "type": "bool"
            },
            {
              "internalType": "bool",
              "name": "primary_mkt",
              "type": "bool"
            }
          ],
          "internalType": "struct PropertyToken.Property[]",
          "name": "",
          "type": "tuple[]"
        }
      ],
      "stateMutability": "view",
      "type": "function"
    },
    {
      "inputs": [
        {
          "internalType": "uint256",
          "name": "tokenId",
          "type": "uint256"
        }
      ],
      "name": "getApproved",
      "outputs": [
        {
          "internalType": "address",
          "name": "",
          "type": "address"
        }
      ],
      "stateMutability": "view",
      "type": "function"
    },
    {
      "inputs": [],
      "name": "getMyProps",
      "outputs": [
        {
          "components": [
            {
              "internalType": "uint256",
              "name": "tokenId",
              "type": "uint256"
            },
            {
              "internalType": "string",
              "name": "building",
              "type": "string"
            },
            {
              "internalType": "address",
              "name": "owner",
              "type": "address"
            },
            {
              "internalType": "string",
              "name": "location",
              "type": "string"
            },
            {
              "internalType": "string",
              "name": "unit_block",
              "type": "string"
            },
            {
              "internalType": "string",
              "name": "unit_floor",
              "type": "string"
            },
            {
              "internalType": "string",
              "name": "unit_flat",
              "type": "string"
            },
            {
              "internalType": "string",
              "name": "prop_id",
              "type": "string"
            },
            {
              "internalType": "uint256",
              "name": "price",
              "type": "uint256"
            },
            {
              "internalType": "bool",
              "name": "for_sale",
              "type": "bool"
            },
            {
              "internalType": "bool",
              "name": "primary_mkt",
              "type": "bool"
            }
          ],
          "internalType": "struct PropertyToken.Property[]",
          "name": "",
          "type": "tuple[]"
        }
      ],
      "stateMutability": "view",
      "type": "function"
    },
    {
      "inputs": [
        {
          "internalType": "uint256",
          "name": "tokenId",
          "type": "uint256"
        }
      ],
      "name": "getOwner",
      "outputs": [
        {
          "internalType": "address",
          "name": "",
          "type": "address"
        }
      ],
      "stateMutability": "view",
      "type": "function"
    },
    {
      "inputs": [
        {
          "internalType": "uint256",
          "name": "tokenId",
          "type": "uint256"
        }
      ],
      "name": "get_property_location",
      "outputs": [
        {
          "internalType": "string",
          "name": "",
          "type": "string"
        }
      ],
      "stateMutability": "view",
      "type": "function"
    },
    {
      "inputs": [
        {
          "internalType": "address",
          "name": "owner",
          "type": "address"
        },
        {
          "internalType": "address",
          "name": "operator",
          "type": "address"
        }
      ],
      "name": "isApprovedForAll",
      "outputs": [
        {
          "internalType": "bool",
          "name": "",
          "type": "bool"
        }
      ],
      "stateMutability": "view",
      "type": "function"
    },
    {
      "inputs": [],
      "name": "name",
      "outputs": [
        {
          "internalType": "string",
          "name": "",
          "type": "string"
        }
      ],
      "stateMutability": "view",
      "type": "function"
    },
    {
      "inputs": [
        {
          "internalType": "uint256",
          "name": "tokenId",
          "type": "uint256"
        }
      ],
      "name": "ownerOf",
      "outputs": [
        {
          "internalType": "address",
          "name": "",
          "type": "address"
        }
      ],
      "stateMutability": "view",
      "type": "function"
    },
    {
      "inputs": [
        {
          "internalType": "string",
          "name": "_building",
          "type": "string"
        },
        {
          "internalType": "string",
          "name": "_location",
          "type": "string"
        },
        {
          "internalType": "string",
          "name": "_unit_block",
          "type": "string"
        },
        {
          "internalType": "string",
          "name": "_unit_floor",
          "type": "string"
        },
        {
          "internalType": "string",
          "name": "_unit_flat",
          "type": "string"
        },
        {
          "internalType": "string",
          "name": "_prop_id",
          "type": "string"
        },
        {
          "internalType": "uint256",
          "name": "_target_price",
          "type": "uint256"
        },
        {
          "internalType": "string",
          "name": "tokenURI",
          "type": "string"
        }
      ],
      "name": "registerProperty",
      "outputs": [
        {
          "internalType": "uint256",
          "name": "",
          "type": "uint256"
        }
      ],
      "stateMutability": "nonpayable",
      "type": "function"
    },
    {
      "inputs": [
        {
          "internalType": "address",
          "name": "from",
          "type": "address"
        },
        {
          "internalType": "address",
          "name": "to",
          "type": "address"
        },
        {
          "internalType": "uint256",
          "name": "tokenId",
          "type": "uint256"
        }
      ],
      "name": "safeTransferFrom",
      "outputs": [],
      "stateMutability": "nonpayable",
      "type": "function"
    },
    {
      "inputs": [
        {
          "internalType": "address",
          "name": "from",
          "type": "address"
        },
        {
          "internalType": "address",
          "name": "to",
          "type": "address"
        },
        {
          "internalType": "uint256",
          "name": "tokenId",
          "type": "uint256"
        },
        {
          "internalType": "bytes",
          "name": "data",
          "type": "bytes"
        }
      ],
      "name": "safeTransferFrom",
      "outputs": [],
      "stateMutability": "nonpayable",
      "type": "function"
    },
    {
      "inputs": [
        {
          "internalType": "address",
          "name": "operator",
          "type": "address"
        },
        {
          "internalType": "bool",
          "name": "approved",
          "type": "bool"
        }
      ],
      "name": "setApprovalForAll",
      "outputs": [],
      "stateMutability": "nonpayable",
      "type": "function"
    },
    {
      "inputs": [
        {
          "internalType": "uint256",
          "name": "tokenId",
          "type": "uint256"
        },
        {
          "internalType": "bool",
          "name": "forSale",
          "type": "bool"
        }
      ],
      "name": "setForSale",
      "outputs": [],
      "stateMutability": "nonpayable",
      "type": "function"
    },
    {
      "inputs": [
        {
          "internalType": "uint256",
          "name": "tokenId",
          "type": "uint256"
        },
        {
          "internalType": "address",
          "name": "ownerAddress",
          "type": "address"
        }
      ],
      "name": "setOwner",
      "outputs": [],
      "stateMutability": "nonpayable",
      "type": "function"
    },
    {
      "inputs": [
        {
          "internalType": "uint256",
          "name": "tokenId",
          "type": "uint256"
        }
      ],
      "name": "setSecondary",
      "outputs": [],
      "stateMutability": "nonpayable",
      "type": "function"
    },
    {
      "inputs": [
        {
          "internalType": "uint256",
          "name": "auctionTokenId",
          "type": "uint256"
        },
        {
          "internalType": "uint256",
          "name": "startBid",
          "type": "uint256"
        }
      ],
      "name": "start",
      "outputs": [],
      "stateMutability": "nonpayable",
      "type": "function"
    },
    {
      "inputs": [
        {
          "internalType": "bytes4",
          "name": "interfaceId",
          "type": "bytes4"
        }
      ],
      "name": "supportsInterface",
      "outputs": [
        {
          "internalType": "bool",
          "name": "",
          "type": "bool"
        }
      ],
      "stateMutability": "view",
      "type": "function"
    },
    {
      "inputs": [],
      "name": "symbol",
      "outputs": [
        {
          "internalType": "string",
          "name": "",
          "type": "string"
        }
      ],
      "stateMutability": "view",
      "type": "function"
    },
    {
      "inputs": [
        {
          "internalType": "uint256",
          "name": "tokenId",
          "type": "uint256"
        }
      ],
      "name": "tokenURI",
      "outputs": [
        {
          "internalType": "string",
          "name": "",
          "type": "string"
        }
      ],
      "stateMutability": "view",
      "type": "function"
    },
    {
      "inputs": [
        {
          "internalType": "address",
          "name": "from",
          "type": "address"
        },
        {
          "internalType": "address",
          "name": "to",
          "type": "address"
        },
        {
          "internalType": "uint256",
          "name": "tokenId",
          "type": "uint256"
        }
      ],
      "name": "transferFrom",
      "outputs": [],
      "stateMutability": "nonpayable",
      "type": "function"
    },
    {
      "inputs": [
        {
          "internalType": "uint256",
          "name": "auctionId",
          "type": "uint256"
        }
      ],
      "name": "withdraw",
      "outputs": [],
      "stateMutability": "nonpayable",
      "type": "function"
    }
  ],
  "bytecode": "0x60803462000347576001600160401b03906040908082018381118282101762000331578252600d81526020906c283937b832b93a3caa37b5b2b760991b828201528251938385018581108282111762000331578452600385526214151560ea1b838601528151818111620003315760008054916001948584811c9416801562000326575b8785101462000312578190601f94858111620002bf575b5087908583116001146200025b5784926200024f575b5050600019600383901b1c191690851b1781555b86519283116200023b5783548481811c9116801562000230575b868210146200021c57828111620001d4575b5084918311600114620001605790600080516020620033e383398151915295968362000154575b5050600019600383901b1c191690821b1790555b600b80546001600160a01b031916339081179091558351908152a15161309690816200034d8239f35b01519050388062000117565b95601f198316848852858820975b818110620001be575091600080516020620033e38339815191529697918486959410620001a4575b505050811b0190556200012b565b015160001960f88460031b161c1916905538808062000196565b838301518955978501979286019286016200016e565b8482528582208380860160051c82019288871062000212575b0160051c019085905b82811062000206575050620000f0565b838155018590620001f6565b92508192620001ed565b634e487b7160e01b82526022600452602482fd5b90607f1690620000de565b634e487b7160e01b81526041600452602490fd5b015190503880620000b0565b8480528885208894509190601f198416865b8b828210620002a857505084116200028e575b505050811b018155620000c4565b015160001960f88460031b161c1916905538808062000280565b8385015186558b979095019493840193016200026d565b9091508380528784208580850160051c8201928a861062000308575b918991869594930160051c01915b828110620002f95750506200009a565b868155859450899101620002e9565b92508192620002db565b634e487b7160e01b83526022600452602483fd5b93607f169362000083565b634e487b7160e01b600052604160045260246000fd5b600080fdfe608080604052600436101561001357600080fd5b60003560e01c90816301ffc9a71461269d5750806306fdde03146125fa578063081812fc146125dc578063095ea7b3146124625780630ad24528146122ba57806317dc6bf6146122285780631bf89166146121ff57806323b872dd146121db5780632e1a7d4d146120f957806342842e0e146120d1578063598647f814611f7f5780636352211e14611f4f5780636553c1e514611ddc57806370a0823114611d4557806378a8353e14611d165780637fd3924714611cca57806383db753b14611c585780638fb4b5731461131757806395d89b4114611252578063a22cb4651461118a578063b88d4fde1461112b578063bf506ffb146110fb578063c41a360a146110c4578063c87b56dd14611060578063cb96fb4814610f3a578063e985e9c514610ee4578063f0a6c16b14610eae578063f4a2d6231461032d5763fd5087281461015e57600080fd5b61016736612a5a565b81600052602090600d825260018060a01b0390816002604060002001541633146102e85783600052600d8352600860406000200154116102865782600052600d8252600160ff60096040600020015416151503610235576000808080936101cd87612b36565b906101d9883384612d45565b8290341561022b575b34921690f11561021f576000918252600d905260409020600981018054600290920180546001600160a01b0319163317905561ffff199091169055005b6040513d6000823e3d90fd5b6108fc91506101e2565b60405162461bcd60e51b815260048101839052602360248201527f50726f7065727479206e6f7420666f722073616c6520617420746865206d6f6d604482015262195b9d60ea1b6064820152608490fd5b60405162461bcd60e51b815260048101839052603460248201527f596f7520626964207072696365206973206c6f776572207468616e20746865206044820152737461726765742073656c6c696e6720707269636560601b6064820152608490fd5b60405162461bcd60e51b815260048101849052601d60248201527f4f776e65722063616e6e6f7420627579207468652070726f70657274790000006044820152606490fd5b34610ea957610100366003190112610ea9576004356001600160401b038111610ea95761035e903690600401612ad1565b6024356001600160401b038111610ea95761037d903690600401612ad1565b906044356001600160401b038111610ea95761039d903690600401612ad1565b906064356001600160401b038111610ea9576103bd903690600401612ad1565b6084356001600160401b038111610ea9576103dc903690600401612ad1565b60a4356001600160401b038111610ea9576103fb903690600401612ad1565b9160e4356001600160401b038111610ea95761041b903690600401612ad1565b600b546001600160a01b03169690959033889003610e65576007549760405196610444886127ae565b898852602088015260408701526060860152608085015260a084015260c083015260e082015260c4356101008201526001610120820152600161014082015282600052600d602052604060002081518155602082015180519060018060401b0382116108d35781906104b96001850154612774565b601f8111610e12575b50602090601f8311600114610da057600092610d95575b50508160011b916000199060031b1c19161760018201555b60408201516002820180546001600160a01b0319166001600160a01b039290921691909117905560608201518051906001600160401b0382116108d357819061053d6003850154612774565b601f8111610d42575b50602090601f8311600114610cd057600092610cc5575b50508160011b916000199060031b1c19161760038201555b60808201518051906001600160401b0382116108d357819061059a6004850154612774565b601f8111610c72575b50602090601f8311600114610c0057600092610bf5575b50508160011b916000199060031b1c19161760048201555b60a08201518051906001600160401b0382116108d35781906105f76005850154612774565b601f8111610ba2575b50602090601f8311600114610b3057600092610b25575b50508160011b916000199060031b1c19161760058201555b60c08201518051906001600160401b0382116108d35781906106546006850154612774565b601f8111610ad2575b50602090601f8311600114610a6057600092610a55575b50508160011b916000199060031b1c19161760068201555b60e08201518051906001600160401b0382116108d3576106af6007840154612774565b601f8111610a0e575b50602090601f83116001146109945792826101409360099361072b9796600092610989575b50508160011b916000199060031b1c19161760078201555b61010084015160088201550191610713610120820151151584612e41565b0151815461ff00191690151560081b61ff0016179055565b33156109455761074361073d83612e52565b15612f94565b61074f61073d83612e52565b33600052600360205260406000206001815401905581600052600260205260406000203360018060a01b0319825416179055813360006000805160206130418339815191528180a46107a082612e52565b156108e9576000828152600660205260409020815192906001600160401b0384116108d3576107cf8154612774565b93601f851161088b575b602094508493601f821160011461082857938192939460009261081d575b50508160011b916000199060031b1c19161790555b600160075401600755604051908152f35b0151905085806107f7565b601f1982169483600052866000209160005b87811061087457508360019596971061085b575b505050811b01905561080c565b015160001960f88460031b161c1916905585808061084e565b91928860018192868501518155019401920161083a565b816000526020600020601f820160051c810195602083106108c9575b601f0160051c01945b8581106108bd57506107d9565b600081556001016108b0565b90955085906108a7565b634e487b7160e01b600052604160045260246000fd5b60405162461bcd60e51b815260206004820152602e60248201527f45524337323155524953746f726167653a2055524920736574206f66206e6f6e60448201526d32bc34b9ba32b73a103a37b5b2b760911b6064820152608490fd5b606460405162461bcd60e51b815260206004820152602060248201527f4552433732313a206d696e7420746f20746865207a65726f20616464726573736044820152fd5b0151905089806106dd565b906007840160005260206000209160005b601f19851681106109f657508360099361072b97969360019361014097601f198116106109dd575b505050811b0160078201556106f5565b015160001960f88460031b161c191690558980806109cd565b919260206001819286850151815501940192016109a5565b600784016000526020600020601f840160051c810160208510610a4e575b601f830160051c82018110610a425750506106b8565b60008155600101610a2c565b5080610a2c565b015190508680610674565b9250600684016000526020600020906000935b601f1984168510610ab7576001945083601f19811610610a9e575b505050811b01600682015561068c565b015160001960f88460031b161c19169055868080610a8e565b81810151835560209485019460019093019290910190610a73565b909150600684016000526020600020601f840160051c810160208510610b1e575b90849392915b601f830160051c82018110610b0f57505061065d565b60008155859450600101610af9565b5080610af3565b015190508680610617565b9250600584016000526020600020906000935b601f1984168510610b87576001945083601f19811610610b6e575b505050811b01600582015561062f565b015160001960f88460031b161c19169055868080610b5e565b81810151835560209485019460019093019290910190610b43565b909150600584016000526020600020601f840160051c810160208510610bee575b90849392915b601f830160051c82018110610bdf575050610600565b60008155859450600101610bc9565b5080610bc3565b0151905086806105ba565b9250600484016000526020600020906000935b601f1984168510610c57576001945083601f19811610610c3e575b505050811b0160048201556105d2565b015160001960f88460031b161c19169055868080610c2e565b81810151835560209485019460019093019290910190610c13565b909150600484016000526020600020601f840160051c810160208510610cbe575b90849392915b601f830160051c82018110610caf5750506105a3565b60008155859450600101610c99565b5080610c93565b01519050868061055d565b9250600384016000526020600020906000935b601f1984168510610d27576001945083601f19811610610d0e575b505050811b016003820155610575565b015160001960f88460031b161c19169055868080610cfe565b81810151835560209485019460019093019290910190610ce3565b909150600384016000526020600020601f840160051c810160208510610d8e575b90849392915b601f830160051c82018110610d7f575050610546565b60008155859450600101610d69565b5080610d63565b0151905086806104d9565b9250600184016000526020600020906000935b601f1984168510610df7576001945083601f19811610610dde575b505050811b0160018201556104f1565b015160001960f88460031b161c19169055868080610dce565b81810151835560209485019460019093019290910190610db3565b909150600184016000526020600020601f840160051c810160208510610e5e575b90849392915b601f830160051c82018110610e4f5750506104c2565b60008155859450600101610e39565b5080610e33565b606460405162461bcd60e51b815260206004820152602060248201527f4f6e6c79206f776e65722063616e2072656769737465722070726f70657274796044820152fd5b600080fd5b34610ea9576040366003190112610ea957610ee2610eca612a70565b600435600052600d6020526009604060002001612e41565b005b34610ea9576040366003190112610ea957610efd612748565b610f0561275e565b9060018060a01b03809116600052600560205260406000209116600052602052602060ff604060002054166040519015158152f35b34610ea9576020366003190112610ea957600435600052600d6020526040600020805460018201610f6a90612808565b60028301549092906001600160a01b0316610f8760038301612808565b610f9360048401612808565b610f9f60058501612808565b610fab60068601612808565b91610fb860078701612808565b936008870154966009015495604051998a998a526101608060208c01528a01610fe091612708565b9060408a015288810360608a0152610ff791612708565b878103608089015261100891612708565b86810360a088015261101991612708565b85810360c087015261102a91612708565b84810360e086015261103b91612708565b9161010084015260ff8116151561012084015260081c60ff1615156101408301520390f35b34610ea9576020366003190112610ea95760043561108561108082612e52565b612aef565b60005260066020526110c061109d6040600020612808565b60006040516110ab816127ca565b52604051918291602083526020830190612708565b0390f35b34610ea9576020366003190112610ea957600435600052600d602052602060018060a01b0360026040600020015416604051908152f35b34610ea9576020366003190112610ea9576004356000908152600d60205260409020600901805461ff0019169055005b34610ea9576080366003190112610ea957611144612748565b61114c61275e565b606435916001600160401b038311610ea95736602384011215610ea957611180610ee2933690602481600401359101612a9a565b9160443591612be2565b34610ea9576040366003190112610ea9576111a3612748565b6111ab612a70565b6001600160a01b0390911690338214611211573360005260056020526040600020826000526020526111e1816040600020612e41565b60405190151581527f17307eab39ab6107e8899845ad3d59bd9653f200f220920489ca2b5937696c3160203392a3005b60405162461bcd60e51b815260206004820152601960248201527822a9219b99189d1030b8383937bb32903a379031b0b63632b960391b6044820152606490fd5b34610ea9576000366003190112610ea9576040516000906001805461127681612774565b808452908281169081156112ef57506001146112b1575b6110c08361129d818703826127e5565b604051918291602083526020830190612708565b92508060005260209283600020916000925b8284106112dc5750505081019091019061129d8161128d565b80548585018701529285019281016112c3565b6110c0955061129d93506020915091849260ff191682840152151560051b820101935061128d565b34610ea95761132536612a5a565b6000828152600d602052604090206009015460ff600882901c811615911681611c4f575b5015611c0b576000828152600d60205260409020600201546001600160a01b031633819003611bbc57600f549083600052600d6020526040600020906040519360e0850185811060018060401b038211176108d35760405285855260208501523360408501526060840152600160808401526113cc60a0840191600083526128ae565b60c0840190815260009283526010602090815260409384902085518155818601516001820155938501516002850180546001600160a01b0319166001600160a01b03928316179055606086015160038601805460809098015195516001600160b01b0319909816919092161793151560a01b60ff60a01b169390931794151560a81b60ff60a81b1694909417909155518051600483015591820151805190939192906001600160401b0381116108d3576114896005850154612774565b601f8111611b75575b506020601f8211600114611b06578192939495600092611afb575b50508160011b916000199060031b1c19161760058401555b60408101516006840180546001600160a01b0319166001600160a01b0392909216919091179055606081015180519093906001600160401b0381116108d3576115116007830154612774565b601f8111611ab4575b506020601f8211600114611a45578192939495600092611a3a575b50508160011b916000199060031b1c19161760078201555b608082015180519093906001600160401b0381116108d3576115726008840154612774565b601f81116119f3575b506020601f8211600114611984578192939495600092611979575b50508160011b916000199060031b1c19161760088301555b60a083015180519093906001600160401b0381116108d3576115d36009850154612774565b601f8111611932575b506020601f82116001146118c35781929394956000926118b8575b50508160011b916000199060031b1c19161760098401555b60c081015180519093906001600160401b0381116108d357611634600a830154612774565b601f8111611871575b506020601f82116001146118025781929394956000926117f7575b50508160011b916000199060031b1c191617600a8201555b60e08201518051600b8301916001600160401b0382116108d3576116948354612774565b601f81116117af575b50602090601f831160011461173c579282600d936116f697969361014096600092611731575b50508160011b916000199060031b1c19161790555b610100840151600c8201550191610713610120820151151584612e41565b6117086117038233612c7d565b612b80565b611713813033612d45565b6000908152600d60205260409020600901805460ff19166001179055005b0151905089806116c3565b90601f198316918460005260206000209260005b8181106117975750936116f6979693610140969360019383600d981061177e575b505050811b0190556116d8565b015160001960f88460031b161c19169055898080611771565b92936020600181928786015181550195019301611750565b836000526020600020601f840160051c810191602085106117ed575b601f0160051c01905b8181106117e1575061169d565b600081556001016117d4565b90915081906117cb565b015190508580611658565b600a830160005260206000209060005b601f1984168110611859575060019394959683601f19811610611840575b505050811b01600a820155611670565b015160001960f88460031b161c19169055858080611830565b9091602060018192858b015181550193019101611812565b600a83016000526020600020601f830160051c8101602084106118b1575b601f830160051c820181106118a557505061163d565b6000815560010161188f565b508061188f565b0151905085806115f7565b6009850160005260206000209060005b601f198416811061191a575060019394959683601f19811610611901575b505050811b01600984015561160f565b015160001960f88460031b161c191690558580806118f1565b9091602060018192858b0151815501930191016118d3565b600985016000526020600020601f830160051c810160208410611972575b601f830160051c820181106119665750506115dc565b60008155600101611950565b5080611950565b015190508580611596565b6008840160005260206000209060005b601f19841681106119db575060019394959683601f198116106119c2575b505050811b0160088301556115ae565b015160001960f88460031b161c191690558580806119b2565b9091602060018192858b015181550193019101611994565b600884016000526020600020601f830160051c810160208410611a33575b601f830160051c82018110611a2757505061157b565b60008155600101611a11565b5080611a11565b015190508580611535565b6007830160005260206000209060005b601f1984168110611a9c575060019394959683601f19811610611a83575b505050811b01600782015561154d565b015160001960f88460031b161c19169055858080611a73565b9091602060018192858b015181550193019101611a55565b600783016000526020600020601f830160051c810160208410611af4575b601f830160051c82018110611ae857505061151a565b60008155600101611ad2565b5080611ad2565b0151905085806114ad565b6005850160005260206000209060005b601f1984168110611b5d575060019394959683601f19811610611b44575b505050811b0160058401556114c5565b015160001960f88460031b161c19169055858080611b34565b9091602060018192858b015181550193019101611b16565b600585016000526020600020601f830160051c810160208410611bb5575b601f830160051c82018110611ba9575050611492565b60008155600101611b93565b5080611b93565b60405162461bcd60e51b815260206004820152602160248201527f43616e6e6f742073656c6c206173206e6f742070726f7065727479206f776e656044820152603960f91b6064820152608490fd5b60405162461bcd60e51b815260206004820152601c60248201527b141c9bdc195c9d1e4818d85b9b9bdd08189948185d58dd1a5bdb995960221b6044820152606490fd5b90501583611349565b34610ea9576000366003190112610ea957604051602090818101828252606051809152604082019260408260051b840101916080916000955b828710611c9e5785850386f35b909192938280611cba600193603f198a82030186528851612964565b9601920196019592919092611c91565b34610ea9576040366003190112610ea957611ce361275e565b6004356000908152600d6020526040902060020180546001600160a01b0319166001600160a01b03909216919091179055005b34610ea9576020366003190112610ea957600435600052600d6020526110c061129d6003604060002001612808565b34610ea9576020366003190112610ea9576001600160a01b03611d66612748565b168015611d855760005260036020526020604060002054604051908152f35b60405162461bcd60e51b815260206004820152602960248201527f4552433732313a2061646472657373207a65726f206973206e6f7420612076616044820152683634b21037bbb732b960b91b6064820152608490fd5b34610ea9576000366003190112610ea957600754611df981612fdf565b90611e0760405192836127e5565b808252601f19611e1682612fdf565b0160005b818110611eed5750506000805b828210611e8d576040805160208082528651818301819052600093600582901b8401810192808a01929185015b828710611e615785850386f35b909192938280611e7d600193603f198a82030186528851612964565b9601920196019592919092611e54565b81600052600d602052611ea360406000206128ae565b611ead8286612ff6565b52611eb88185612ff6565b5060018101809111611ed757906000198114611ed75760010190611e27565b634e487b7160e01b600052601160045260246000fd5b602090604051611efc816127ae565b600081526060839080828401526000604084015280808401528060808401528060a08401528060c084015260e0830152600061010083015260006101208301526000610140830152828701015201611e1a565b34610ea9576020366003190112610ea9576020611f6d600435612b36565b6040516001600160a01b039091168152f35b611f8836612a5a565b806000526020906010825260ff60036040600020015460a01c1660ff60036040600020015460a81c16600160406000200154911561209e576120715783111561202157907fe684a55f31b79eca403df938249029212a5925ec6be8012e099b45bc1019e5d291600052601081528260016040600020015560026040600020013360018060a01b03198254161790556040519283523392a2005b60405162461bcd60e51b815260048101839052602260248201527f6269642076616c756520736d616c6c6572207468616e206869676865737420626044820152611a5960f21b6064820152608490fd5b60405162461bcd60e51b8152600481018490526005602482015264195b99195960da1b6044820152606490fd5b60405162461bcd60e51b815260048101859052600b60248201526a1b9bdd081cdd185c9d195960aa1b6044820152606490fd5b34610ea957610ee26120e236612a25565b90604051926120f0846127ca565b60008452612be2565b34610ea957602080600319360112610ea9576004356000818152601083526040902060038101549054919291906001600160a01b03163303612198576000838152601083526040808220600301805460ff60a81b1916600160a81b179055918152600d8352819020600901805460ff191690555191825233917f884edad9ce6fa2440d8a54cc123490eb96d2768479d49ff9c7366125a94243649190a2005b6064826040519062461bcd60e51b825280600483015260248201527f4f6e6c792073656c6c65722063616e2077697468647261772061756374696f6e6044820152fd5b34610ea957610ee26121ec36612a25565b916121fa6117038433612c7d565b612d45565b34610ea9576000366003190112610ea957600e546040516001600160a01b039091168152602090f35b34610ea9576020366003190112610ea9576004356000526010602052604060002080546110c060018301549260ff60018060a01b039182600282015416926122776004600384015493016128ae565b9360405197889788526020880152604087015281166060860152818160a01c161515608086015260a81c16151560a084015260e060c084015260e0830190612964565b34610ea957602080600319360112610ea957600435600081815260108352604090206003810154600282015460019092015493926001600160a01b039283169282169160a01c60ff1615612427578133036123d85760009081526010845260409020548282146123a557600080868194829461234660405161233b816127ca565b858152828a30612be2565b8352600d8852604083206002810180546001600160a01b03191689179055600901805460ff1916905582821561239c575bf11561021f57600080516020613021833981519152926040925b8351928352820152a1005b506108fc612377565b926123d360008051602061302183398151915295926040958651916123c9836127ca565b6000835230612be2565b612391565b60405162461bcd60e51b815260048101859052602160248201527f4f6e6c792073656c6c65722063616e20636c6f7365207468652061756374696f6044820152603760f91b6064820152608490fd5b60405162461bcd60e51b8152600481018590526013602482015272105d58dd1a5bdb881b9bdd081cdd185c9d1959606a1b6044820152606490fd5b34610ea9576040366003190112610ea95761247b612748565b602435906001600160a01b03808061249285612b36565b1692169180831461258d57803314908115612568575b50156124fd57600083815260046020526040902080546001600160a01b031916831790556124d583612b36565b167f8c5be1e5ebec7d5bd14f71427d1e84f3dd0314c0f7b2291e5b200ac8c7c3b925600080a4005b60405162461bcd60e51b815260206004820152603d60248201527f4552433732313a20617070726f76652063616c6c6572206973206e6f7420746f60448201527f6b656e206f776e6572206f7220617070726f76656420666f7220616c6c0000006064820152608490fd5b9050600052600560205260406000203360005260205260ff60406000205416846124a8565b60405162461bcd60e51b815260206004820152602160248201527f4552433732313a20617070726f76616c20746f2063757272656e74206f776e656044820152603960f91b6064820152608490fd5b34610ea9576020366003190112610ea9576020611f6d600435612b59565b34610ea9576000366003190112610ea95760405160009060005461261d81612774565b8083526001918083169081156112ef5750600114612645576110c08361129d818703826127e5565b600080805260209450917f290decd9548b62a8d60345a988386fc84ba6bc95484008f6362f93160ef3e5635b82841061268a5750505081019091019061129d8161128d565b8054858501870152928501928101612671565b34610ea9576020366003190112610ea9576004359063ffffffff60e01b8216809203610ea9576020916380ac58cd60e01b81149081156126f7575b81156126e6575b5015158152f35b6301ffc9a760e01b149050836126df565b635b5e139f60e01b811491506126d8565b919082519283825260005b848110612734575050826000602080949584010152601f8019910116010190565b602081830181015184830182015201612713565b600435906001600160a01b0382168203610ea957565b602435906001600160a01b0382168203610ea957565b90600182811c921680156127a4575b602083101461278e57565b634e487b7160e01b600052602260045260246000fd5b91607f1691612783565b61016081019081106001600160401b038211176108d357604052565b602081019081106001600160401b038211176108d357604052565b601f909101601f19168101906001600160401b038211908210176108d357604052565b906040519182600082549261281c84612774565b90818452600194858116908160001461288b5750600114612848575b5050612846925003836127e5565b565b9093915060005260209081600020936000915b81831061287357505061284693508201013880612838565b8554888401850152948501948794509183019161285b565b91505061284694506020925060ff191682840152151560051b8201013880612838565b906040516128bb816127ae565b61014060ff60098395805485526128d460018201612808565b602086015260028101546001600160a01b031660408601526128f860038201612808565b606086015261290960048201612808565b608086015261291a60058201612808565b60a086015261292b60068201612808565b60c086015261293c60078201612808565b60e086015260088101546101008601520154818116151561012085015260081c161515910152565b90815181526129fd6129eb6129d96129c76129b561299160208801516101608060208a0152880190612708565b60018060a01b03604089015116604088015260608801518782036060890152612708565b60808701518682036080880152612708565b60a086015185820360a0870152612708565b60c085015184820360c0860152612708565b60e084015183820360e0850152612708565b9161010080820151908301526101208082015115159083015261014080910151151591015290565b6060906003190112610ea9576001600160a01b03906004358281168103610ea957916024359081168103610ea9579060443590565b6040906003190112610ea9576004359060243590565b602435908115158203610ea957565b6001600160401b0381116108d357601f01601f191660200190565b929192612aa682612a7f565b91612ab460405193846127e5565b829481845281830111610ea9578281602093846000960137010152565b9080601f83011215610ea957816020612aec93359101612a9a565b90565b15612af657565b60405162461bcd60e51b8152602060048201526018602482015277115490cdcc8c4e881a5b9d985b1a59081d1bdad95b88125160421b6044820152606490fd5b6000908152600260205260409020546001600160a01b0316612aec811515612aef565b612b6561108082612e52565b6000908152600460205260409020546001600160a01b031690565b15612b8757565b60405162461bcd60e51b815260206004820152602d60248201527f4552433732313a2063616c6c6572206973206e6f7420746f6b656e206f776e6560448201526c1c881bdc88185c1c1c9bdd9959609a1b6064820152608490fd5b90612c06939291612bf66117038433612c7d565b612c01838383612d45565b612e6f565b15612c0d57565b60405162461bcd60e51b815280612c2660048201612c2a565b0390fd5b60809060208152603260208201527f4552433732313a207472616e7366657220746f206e6f6e20455243373231526560408201527131b2b4bb32b91034b6b83632b6b2b73a32b960711b60608201520190565b906001600160a01b038080612c9184612b36565b16931691838314938415612cc4575b508315612cae575b50505090565b612cba91929350612b59565b1614388080612ca8565b909350600052600560205260406000208260005260205260ff604060002054169238612ca0565b15612cf257565b60405162461bcd60e51b815260206004820152602560248201527f4552433732313a207472616e736665722066726f6d20696e636f72726563742060448201526437bbb732b960d91b6064820152608490fd5b90612d6d91612d5384612b36565b6001600160a01b0393918416928492909183168414612ceb565b16918215612df05781612d8a91612d8386612b36565b1614612ceb565b600080516020613041833981519152600084815260046020526040812060018060a01b03199081815416905583825260036020526040822060001981540190558482526040822060018154019055858252600260205284604083209182541617905580a4565b60405162461bcd60e51b8152602060048201526024808201527f4552433732313a207472616e7366657220746f20746865207a65726f206164646044820152637265737360e01b6064820152608490fd5b9060ff801983541691151516179055565b6000908152600260205260409020546001600160a01b0316151590565b9293600093909291803b15612f8957948491612ec99660405180948193630a85bd0160e11b9788845233600485015260018060a01b0380921660248501526044840152608060648401528260209b8c976084830190612708565b0393165af1849181612f45575b50612f34575050503d600014612f2c573d612ef081612a7f565b90612efe60405192836127e5565b81528091833d92013e5b80519182612f295760405162461bcd60e51b815280612c2660048201612c2a565b01fd5b506060612f08565b6001600160e01b0319161492509050565b9091508581813d8311612f82575b612f5d81836127e5565b81010312612f7e57516001600160e01b031981168103612f7e579038612ed6565b8480fd5b503d612f53565b505050915050600190565b15612f9b57565b60405162461bcd60e51b815260206004820152601c60248201527b115490cdcc8c4e881d1bdad95b88185b1c9958591e481b5a5b9d195960221b6044820152606490fd5b6001600160401b0381116108d35760051b60200190565b805182101561300a5760209160051b010190565b634e487b7160e01b600052603260045260246000fdfe7d7570b046e5ead3a4f3fbc9fa2445113625a1e79823776146316bafed6b8cc5ddf252ad1be2c89b69c2b068fc378daa952ba7f163c4a11628f55a4df523b3efa264697066735822122007201a1662d8853d82d0651855b12d41dc642c0f67945bb47f2f8c1fbbbd7b1a64736f6c63430008110033edc72216363839831f76919254ddbbadce2234833dfa8fb47dcdbe73035b8a60",
  "linkReferences": {},
  "deployedLinkReferences": {}
}